:020000040800F2
:1000000000200020011400087D1300087F13000861
:1000100000000000000000000000000000000000E0
:100020000000000000000000000000008113000834
:100030000000000000000000831300088513000882
:100040005114000800000000511400085114000869
:1000500051140008511400085114000851140008EC
:100060000000000051140008511400085114000849
:100070005114000851140008511400080000000039
:100080005114000851140008000000005114000829
:1000900051140008511400085114000851140008AC
:1000A000511400089113000851140008511400085D
:1000B00051140008000000000000000000000000D3
:1000C00010B5064C2378002B07D1054B002B02D02E
:1000D000044800E000BF0123237010BD0800002089
:1000E000000000009C140008044B10B5002B03D046
:1000F0000349044800E000BF10BDC04600000000F6
:100100000C0000209C140008002243088B4274D38A
:1001100003098B425FD3030A8B4244D3030B8B4208
:1001200028D3030C8B420DD3FF22090212BA030C11
:100130008B4202D31212090265D0030B8B4219D3F2
:1001400000E0090AC30B8B4201D3CB03C01A524112
:10015000830B8B4201D38B03C01A5241430B8B425A
:1001600001D34B03C01A5241030B8B4201D30B0343
:10017000C01A5241C30A8B4201D3CB02C01A52416A
:10018000830A8B4201D38B02C01A5241430A8B422D
:1001900001D34B02C01A5241030A8B4201D30B0216
:1001A000C01A5241CDD2C3098B4201D3CB01C01A30
:1001B000524183098B4201D38B01C01A524143093A
:1001C0008B4201D34B01C01A524103098B4201D328
:1001D0000B01C01A5241C3088B4201D3CB00C01A95
:1001E000524183088B4201D38B00C01A524143080D
:1001F0008B4201D34B00C01A5241411A00D2014632
:10020000524110467047FFE701B5002000F006F8A4
:1002100002BDC0460029F7D076E770477047C04658
:1002200010B5040000F094FCFA218900FFF76CFF80
:1002300000F060F8012000222100404200F020F888
:10024000002010BD10B5064A136810210B4313603F
:100250000020FFF7E5FF01F039F8002010BDC0468F
:1002600000200240024A1368013313607047C04601
:1002700028000020014B18687047C0462800002065
:1002800070B5002811DB8408134DC034A4006259F6
:1002900003231840C000FC331E008640B24389018E
:1002A0000B4083401343635170BDC0B20F22024024
:1002B000083A920806329200084BD3185D6803246E
:1002C0002040C000FF2214008440A54389010A4059
:1002D00082402A435A60E7E700E100E000ED00E0D9
:1002E0001F2318401E3B8340014A13607047C046DD
:1002F00000E100E001380A4B98420FD8094A5060EB
:100300000948036A1B021B0AC02109060B4303624A
:100310000023936007331360002070470120FCE73F
:10032000FFFFFF0010E000E000ED00E0042805D032
:10033000054A136804218B4313607047024A13680F
:1003400004210B431360F8E710E000E0704710B59C
:10035000FFF7FCFF10BD10B52123C35C022B03D0B7
:1003600004238363012010BD026813680E218B43B0
:10037000136001680A6801239A430A60C26B19007E
:10038000046CA1405160212283541F330022C254C7
:10039000436B002B02D098470020E4E70020E2E7FF
:1003A000F0B5C64600B582B0002338E0032600E071
:1003B0000026AE4035003D430234A400554EA55101
:1003C000554C25684246D4432E0026404A68D20345
:1003D00002D5424615432E004F4D2E606D682E000B
:1003E00026404A68920302D5424615432E004A4DE4
:1003F0006E60AD682E0026404A68D20202D54246A1
:1004000015432E00444DAE60ED682C404A689202C0
:1004100002D542462A4314003F4AD46001330A6899
:100420001400DC4071D001259D402A409046F5D053
:100430004C68022C01D0122C0ED1DC080834A40028
:10044000275807261E40B6000F22B24097430A697C
:10045000B24016003E43265002685F000324260087
:10046000BE40F643324094464A681440BC4062465F
:10047000144304604C68621E012A03D9112C01D078
:10048000122C10D184683440A446CC68BC4062462B
:10049000144384604468AC434A681209012515403E
:1004A0009D4025434560C46826408C68BC40344369
:1004B000C4604A68D200B1D5184DAE690124264304
:1004C000AE61AD692C400194019C9C08A51CAD0057
:1004D000104EAF5903251D40AD000F26AE40B74367
:1004E0009026F605B04200D162E70D4EB04208D02A
:1004F0000C4EB04207D00C4EB04200D156E7052654
:1005000057E7012655E7022653E702B004BC9046A0
:10051000F0BDC04600000140000401400010024050
:100520000004004800080048000C0048002A01D1DF
:10053000816270478161FCE770B582B00400036896
:10054000DB0726D5AE4B5A680C231340042B18D07A
:10055000AB4B5A680C231340082B0ED06368012B59
:100560003CD0002B51D1A64B1A68A6490A401A600C
:100570001A68A5490A401A6036E0A14B5B68DB03A4
:10058000ECD59F4B1B689B0303D56368002B00D100
:10059000ECE123689B0773D5994B5B680C221A42E8
:1005A0005DD0974B5A680C231340082B53D0E36857
:1005B000002B00D186E0924A136801210B4313609F
:1005C000FFF758FE05008E4B1B689B0771D4FFF7A1
:1005D00051FE401B0228F6D90320CAE1884A11685F
:1005E00080235B020B4313606368002B25D0FFF769
:1005F00041FE0500824B1B689B03CAD4FFF73AFEFD
:10060000401B6428F6D90320B3E1052B09D07C4BAD
:100610001A687C490A401A601A687B490A401A60C5
:10062000E2E7774B19688022D2020A431A60196800
:10063000802252020A431A60D6E7FFF71BFE05002C
:100640006F4B1B689B03A4D5FFF714FE401B642867
:10065000F6D903208DE16A4B5B68DB03A7D4684BB6
:100660001B689B0704D5E368012B01D0012080E1C2
:1006700063490B68F82293432269D20013430B604D
:1006800023681B0744D5E369002B2ED05C4A536ACC
:1006900001210B435362FFF7EDFD0500584B5B6AE8
:1006A0009B0735D4FFF7E6FD401B0228F6D903204F
:1006B0005FE153490B68F82293432269D200134348
:1006C0000B60DDE74E4A136801218B431360FFF78F
:1006D000D1FD05004A4B1B689B07D1D5FFF7CAFD2A
:1006E000401B0228F6D9032043E1454A536A012101
:1006F0008B435362FFF7BEFD0500414B5B6A9B07CE
:1007000006D5FFF7B7FD401B0228F6D9032030E1DC
:1007100023685B0700D47FE0394BDB69DB001DD425
:10072000374AD169802040050143D161D369034034
:100730000193019B0125354B1B68DB0510D5A36890
:10074000012B21D0002B36D12D4B1A6A01218A436F
:100750001A621A6A03318A431A621AE00025EAE72C
:100760002A4A116880235B000B431360FFF782FD68
:100770000600264B1B68DB05E1D4FFF77BFD801BE1
:100780006428F6D90320F4E01D4A136A01210B43C3
:100790001362A368002B24D0FFF76CFD0600184BF2
:1007A0001B6A9B0736D4FFF765FD801B184B9842E8
:1007B000F5D90320DDE0052B09D0114B1A6A012180
:1007C0008A431A621A6A03318A431A62E1E70C4BC0
:1007D0001A6A04210A431A621A6A03390A431A621E
:1007E000D7E7FFF747FD0600054B1B6A9B0711D5AE
:1007F000FFF740FD801B064B9842F5D90320B8E077
:1008000000100240FFFFFEFFFFFFFBFF00700040F3
:1008100088130000012D33D02368DB0610D56369EF
:10082000012B33D0053351D1544A536B04218B43F0
:100830005363536BF4318B43A169C9000B4353637A
:10084000236A002B00D193E04C4A51680C220A40E5
:10085000082A00D18FE0022B4FD0484A136848493C
:100860000B401360FFF706FD0400444B1B689B011F
:100870007AD5FFF7FFFC001B0228F6D9032078E0A9
:100880003E4AD3693F490B40D361C5E73B4B5A6BA6
:1008900004210A435A635A6B03390A435A63FFF728
:1008A000E9FC0500354B5B6B9B0706D4FFF7E2FCC8
:1008B000401B0228F6D903205BE030494B6BF8223D
:1008C0009343A269D20013434B63B9E72B4B5A6B96
:1008D00004210A435A635A6B03398A435A63FFF768
:1008E000C9FC0500254B5B6B9B07A9D5FFF7C2FC34
:1008F000401B0228F6D903203BE0204A1368204918
:100900000B401360FFF7B6FC05001C4B1B689B01F6
:1009100006D5FFF7AFFC401B0228F6D9032028E0DC
:10092000164BDA6A0F218A43E16A0A43DA625A688F
:1009300015490A40A16A606A01430A435A6019686E
:10094000802252040A431A60FFF794FC04000B4B08
:100950001B689B0106D4FFF78DFC001B0228F6D90B
:10096000032006E0002004E0002002E0012000E077
:10097000002002B070BD0120FBE7C046001002401D
:10098000FFFFFFFEFFFFFFEFFFFFC2FF30B589B0A3
:1009900004AA174B180032C832C2110002680A605C
:1009A0006A46103313CB13C21B681360114B5A688D
:1009B0000C231340082B19D1910C0733194004A8BC
:1009C000445C0C49C96A0B406946C95CD30308D42E
:1009D00063011B1B9801C01AC0000419200209B052
:1009E00030BD0548FFF790FB6043F8E70248F6E7A3
:1009F000B41400080010024000127A0070B505001F
:100A00000C004D4B1A68012313408B420BD24A490C
:100A10000B680122934323430B600B681A40A242E8
:100A200001D0012070BD2B689B0706D5434A53684F
:100A3000F0218B43A9680B4353602B68DB074BD530
:100A40006B68012B20D0022B24D03C4A12689207FD
:100A50006FD53A494A680320824313434B60FFF73E
:100A600009FC06006B68012B1AD0022B26D0334BF1
:100A70005B680C221A422FD0FFF7FCFB801B304B27
:100A80009842F4D90320CDE72C4A12689203E0D4AF
:100A90000120C7E7294A12689201DAD40120C1E790
:100AA000264B5A680C231340042B15D0FFF7E2FBAA
:100AB000801B234B9842F3D90320B3E71F4B5A689E
:100AC0000C231340082B07D0FFF7D4FB801B1C4BD3
:100AD0009842F3D90320A5E7174B1A680123134066
:100AE000A3420BD914490B680122934323430B60A3
:100AF0000B681A40A24201D0012093E72B685B07E4
:100B000006D50E4A53680F490B40E9680B43536002
:100B1000FFF73CFF094B5A6812090F2313400A4A9A
:100B2000D35CD840094B18600020FFF779FB002008
:100B300078E7012076E7C04600200240001002401E
:100B400088130000FFF8FFFFD41400080400002001
:100B5000014B18687047C04604000020F8B5060035
:100B60000C0017001D003EE0002D05D0FFF782FBB2
:100B7000069BC01AA84236D332685368E0218B43E3
:100B8000536082235B0072689A420CD080239B01E1
:100B9000B26A9A4216D05D230122F254013B002230
:100BA000F254032027E0B36880221202934203D05C
:100BB0008022D2009342E9D13268136840218B43EE
:100BC0001360E3E7326813680B490B401360326827
:100BD000116880239B010B431360DCE70123BB42B8
:100BE00008D06B1CC0D133689B682340A342F5D06A
:100BF0000023F4E70020F8BDFFDFFFFFF0B583B06E
:100C000007000C0015001E0001E0731C10D13A68AB
:100C100093682340AB4245D0C023DB009C42F4D113
:100C2000002DF2D1137BDBB26A46D371D379ECE7A6
:100C3000002E05D0FFF71EFB089BC01AB042E6D37A
:100C40003A685368E0218B43536082235B007A68E3
:100C50009A420CD080239B01BA6A9A4216D05D2337
:100C60000122FA54013B0022FA5403201BE0BB6826
:100C700080221202934203D08022D2009342E9D113
:100C80003A68136840218B431360E3E73A681368BE
:100C900006490B4013603A68116880239B010B439F
:100CA0001360DCE7002003B0F0BDC046FFDFFFFFAC
:100CB00070B582B004000D001600C02100922B0018
:100CC00000224901FFF79AFF002818D100962B0057
:100CD000002280212000FFF741FF002816D1C0210B
:100CE00000962B000022C9002000FFF787FF002894
:100CF0000AD0236E202213432366032004E0236ED0
:100D0000202213432366032002B070BD236E2022ED
:100D1000134323660320F7E710B5041E5ED00023BB
:100D200083625D33C35C002B4CD05D230222E2540E
:100D30002268136840218B431360E368E022D200ED
:100D4000934245D90022F02109018B4205D0E021D0
:100D5000C9008B4201D00021A162216B002905D17D
:100D6000E021C9008B4236D9022323636368A1685E
:100D70000B4321690B4361690B4380218900A06902
:100D800001400B43E1690B43216A0B432168A06AD0
:100D900003430B60618B04230B40616A0B43616B5F
:100DA0000B43E1680B43216813434B602268D3690E
:100DB0000B490B40D361002323665D330122E254CB
:100DC000002010BD5C330022C25400F0A9FAACE749
:100DD00080225201B7E701232363C7E70120F0E730
:100DE000FFF7FFFFF0B5C6685C24045D012C00D15D
:100DF0006CE05C24012505550134045DE4B24568CE
:100E0000012C10D082277F00BD4205D002235C2236
:100E1000002181541800F0BD8568002D4CD1042CB0
:100E200001D00223F3E7002948D0002A48D0002B44
:100E300048D05D24045D042C02D05D2405250555B1
:100E40000024046681638387C3870264442283523B
:100E500002328352E023DB009E4221D91C4BC36443
:100E60001C4B0365E023DB00C2689A4204D846238A
:100E7000C35A9BB2012B18D90268536816490B401C
:100E8000536002685368E0210B43536003681A689B
:100E9000520619D41A68A0390A431A600023B6E72B
:100EA0000E4BC3640E4B0365DCE702685168802378
:100EB0005B010B435360E4E70223A8E70123A6E7A5
:100EC0000123A4E70123A2E70023A0E70223A1E76F
:100ED000571000081B100008FFEFFFFFA50F0008C8
:100EE0004B0F000870477047704710B50400FFF7BC
:100EF000C1F9020021684B68202083434B606421C4
:100F00002000FFF7D5FE002803D0236E20221343D4
:100F10002366236E002B11D15D33E35C042B06D0D6
:100F20005D230122E2542000FFF7DDFF10BD59339D
:100F30000122E2542000FFF7D5FFF7E75D230122ED
:100F4000E2542000FFF7D0FFF0E710B5C38F9BB24B
:100F5000012B19D90368826B1288DA60836B023324
:100F60008363C38F023B9BB2C387C38F9BB2002BAB
:100F700009D10268536880218B4353604623C35ACA
:100F80009BB2002B0BD010BD836B5A1C82631B7865
:100F900002681373C38F013B9BB2C387E5E7FFF77A
:100FA000A4FFF0E710B54623C35A9BB2012B25D905
:100FB0000368DB68026C1380036C0233036446220F
:100FC000835A023B9BB28352835A9BB2012B0ED0B1
:100FD0004623C35A9BB2002B08D102685368602194
:100FE0008B435360C38F9BB2002B13D010BD02689C
:100FF000516880235B010B435360E9E7036C5A1C83
:1010000002640268127B1A704622835A013B9BB22B
:101010008352DDE7FFF769FFE8E710B50368826BED
:101020001288DA60836B02338363C38F013B9BB208
:10103000C387C38F9BB2002B09D1026853688021FC
:101040008B4353604623C35A9BB2002B00D010BD84
:10105000FFF74BFFFBE710B50368DB68026C1380FA
:10106000036C023303644622835A013B9BB28352D2
:10107000835A9BB2002B08D10268536840218B43EE
:101080005360C38F9BB2002B00D010BDFFF72DFF24
:10109000FBE7000030B585B00400016848688A6845
:1010A00041231340012B08D093070CD503060AD522
:1010B000236D2000984705B030BD4306F4D5E36C9E
:1010C00020009847F7E7B0235B001A42F3D083066D
:1010D000F1D553060ED55D23E35C032B48D0236E78
:1010E00004252B43236600230093CB6800938B6871
:1010F0000093009B93060CD5236E01252B4323669A
:10110000002302938B6802930B683F35AB430B605F
:10111000029BD30509D5236E0822134323660023BF
:10112000039323689B680393039B236E002BC2D019
:1011300022685368E0218B4353605D230122E2540F
:1011400083071DD022685368DD398B435360A36D3C
:10115000002B04D00C4A5A63A06DFFF7FCF8636DB6
:10116000002BA8D0084A5A63606DFFF7F4F8A2E795
:1011700000230193CB6801938B680193019B9AE74D
:101180002000FFF7B1FE96E78D11000810B5406A08
:10119000002346228352C387FFF7A6FE10BD00003E
:1011A00082B0064A5169802080020143516153692F
:1011B00003400193019B02B07047C04600100240FB
:1011C000FEE7000010B51048104B036082235B005F
:1011D000436000238360E022D200C2600361436168
:1011E00083613022C261036243628362293AC26230
:1011F000036308334363FFF78FFD002800D110BD60
:10120000BF210348FFF7DCFF2C0000200030014025
:10121000EC14000800B591B002230493013B07933E
:101220000F33089300230C9304A8FFF785F90028D7
:101230001ED10723009300230193029303930021FF
:101240006846FFF7DBFB002816D1FFF781FCFA2187
:101250008900FEF759FFFFF74DF80420FFF766F805
:101260000120002200214042FFF70AF811B000BD22
:101270008E210348FFF7A4FF9B210148FFF7A0FF41
:10128000EC14000810B5FEF7DDFFFFF7C3FFFFF712
:1012900087FFFFF797FF03E00133084A9342FBD92A
:1012A000902000221021C005FFF740F90123044AD5
:1012B00004490548FFF796FD0023EEE79F860100ED
:1012C00024000020000000202C00002000B583B086
:1012D000124B996901221143996199690A40009260
:1012E000009ADA69802149050A43DA61DB690B401B
:1012F0000193019B0520002200214042FEF7C0FF20
:101300000220002200214042FEF7BAFF0120002205
:1013100000214042FEF7B4FF03B000BD00100240C0
:1013200000B587B00268134B9A4201D007B000BDE8
:10133000114A916980204001014391619369034002
:101340000093009BF0230193EE3B02930023039351
:10135000032204920593902001A9C005FFF720F80D
:10136000002200211920FEF78BFF1920FEF7B8FF9D
:10137000DCE7C04600300140001002407047FEE745
:101380007047704710B5FEF76DFFFEF7E0FF10BD28
:1013900010B50248FFF77EFE10BDC0462C000020AD
:1013A000114B1A6801210A431A605A680F4802401B
:1013B0005A601A680E4802401A601A680D480240C6
:1013C0001A605A680C4802405A60DA6A0F20824359
:1013D000DA621A6B094802401A635A6B8A435A63ED
:1013E00000229A607047C046001002400CB8FF0807
:1013F000FFFFF6FEFFFFFBFFFFFFC0FFECFEFFFF5E
:101400000D4885460D480E490E4A002302E0D45887
:10141000C4500433C4188C42F9D30B4A0B4C00233C
:1014200001E013600432A242FBD3FFF7B9FF00F0E2
:1014300011F8FFF727FFFEE7002000200000002042
:10144000080000200415000808000020900000207B
:10145000FEE7000070B500260C4D0D4C641BA41077
:10146000A64209D1002600F019F80A4D0A4C641B67
:10147000A410A64205D170BDB300EB5898470136C1
:10148000EEE7B300EB5898470136F2E7FC1400088A
:10149000FC140008FC14000800150008F8B5C0464C
:1014A000F8BC08BC9E467047F8B5C046F8BC08BCFE
:0414B0009E4670479D
:1014B40002030405060708090A0B0C0D0E0F101091
:1014C4000102030405060708090A0B0C0D0E0F1090
:1014D40000000000000000000102030406070809E0
:1014E40000000000010203042E2E2F5372632F6D9F
:0814F40061696E2E6300000027
:0414FC00E9000008FB
:04150000C10000081E
:08150400B200000000127A00A1
:0400000508001401DA
:00000001FF
