:020000040800F2
:100000000020002075300008F92F0008FB2F0008A1
:1000100000000000000000000000000000000000E0
:10002000000000000000000000000000351D000876
:100030000000000000000000A11D0008FD2F0008C6
:10004000C530000800000000C5300008C5300008B9
:10005000C5300008C5300008C5300008C5300008AC
:1000600000000000C5300008C5300008C530000899
:10007000C530000805300008C53000080000000049
:10008000C5300008C530000800000000C530000879
:10009000C5300008C5300008C5300008C53000086C
:1000A000C5300008C5300008C5300008C53000085C
:1000B000C530000800000000000000000000000043
:1000C00010B5064C2378002B07D1054B002B02D02E
:1000D000044800E000BF0123237010BD8800002009
:1000E0000000000084340008084B10B5002B03D03A
:1000F0000749084800E000BF07480368002B00D10B
:1001000010BD064B002BFBD09847F9E7000000001C
:100110008C000020843400088800002000000000CB
:1001200002B4714649084900095C49008E4402BC8A
:100130007047C046002243088B4274D303098B42A8
:100140005FD3030A8B4244D3030B8B4228D3030CA7
:100150008B420DD3FF22090212BA030C8B4202D349
:100160001212090265D0030B8B4219D300E0090A71
:10017000C30B8B4201D3CB03C01A5241830B8B427A
:1001800001D38B03C01A5241430B8B4201D34B0363
:10019000C01A5241030B8B4201D30B03C01A5241C8
:1001A000C30A8B4201D3CB02C01A5241830A8B424D
:1001B00001D38B02C01A5241430A8B4201D34B0236
:1001C000C01A5241030A8B4201D30B02C01A52419A
:1001D000CDD2C3098B4201D3CB01C01A524183094E
:1001E0008B4201D38B01C01A524143098B4201D388
:1001F0004B01C01A524103098B4201D30B01C01AB3
:100200005241C3088B4201D3CB00C01A524183082C
:100210008B4201D38B00C01A524143088B4201D359
:100220004B00C01A5241411A00D2014652411046B9
:100230007047FFE701B5002000F006F802BDC04698
:100240000029F7D076E770477047C0461023064A6A
:1002500010B5116800200B43136002F08FFE02F00E
:10026000F7FD002010BDC04600200240024A13687E
:10027000013313607047C046D4130020014B186847
:100280007047C046D413002037B50190FFF7F6FF42
:10029000019C0500631C5A1E9341E418FFF7EEFF12
:1002A000401BA042FAD337BD70B58901002814DA8B
:1002B0000F23C0B20340083B114A9B089B009B18C8
:1002C000032210409040FC321500114085408140CF
:1002D000DC69AC432143D96170BD03258308284004
:1002E000A840FC352E00074A9B009B18C022864080
:1002F0002940814092009C58B44321439950EBE738
:1003000000ED00E000E100E01F2318401E3B8340A9
:10031000014A13607047C04600E100E0094A431EED
:10032000012093420DD8C021074A08485360036A50
:1003300009061B021B0A0B4303620020072390607F
:1003400013607047FFFFFF0010E000E000ED00E0E9
:10035000054B1A68042802D1104318607047042125
:100360008A431A60FAE7C04610E000E0F0B50B6877
:1003700087B0029300230191029ADA4001D107B0BD
:10038000F0BD01229A4003920399029A0A4000921A
:1003900000D18CE0019A1021526816008E43022E83
:1003A0000ED107251D40AD000139A940DC08A4008D
:1003B0000419276A8F4301990969A9400F432762ED
:1003C00003245F00BC40E4430568013E2540AC4681
:1003D00003251540BD4061460D430560012E0FD831
:1003E00001998668CD682640BD40354385604668E2
:1003F000039915098E4301210D409D403543456009
:10040000C56801992C408D688021BD4049052C4369
:10041000C4600A424BD00121264C0326A5691E4028
:100420000D43A561A4699D080C400594059C0F240B
:100430002149AD00B6006D18B4409021AF68C905E0
:10044000A743002488420CD01C490134884208D0BC
:100450001B490134884204D01A490334884200D130
:10046000023CB44000993C430E00AC60164CCD43B6
:1004700027683E43D10301D43E002E4026606768C2
:10048000009E3E43910301D43E002E406660A76863
:10049000009E3E43D10201D43E002E40A660E66895
:1004A000009F3743920201D42E403700E7600133AA
:1004B00062E7C0460010024000000140000400480E
:1004C00000080048000C0048000401400069084092
:1004D000411E8841C0B2704703689A69920701D5EE
:1004E00000229A6201229969114202D199690A4354
:1004F0009A61704730B504680648656889052840E8
:10050000039D890D2B43194312040A430243626081
:1005100030BDC046009800FCF8B504000E0017007E
:100520001D002268936933409B1B59424B41BB42DB
:1005300001D000200EE06B1CF4D0002D0BD1230065
:10054000202241331A70220000230320423240341B
:1005500013702370F8BDFFF791FE069BC01A854209
:10056000DFD2ECE7F8B503680400986910230E00A9
:10057000170018402025002815D1F8BD721C13D093
:10058000002E0BD12300202241331A7022000023B9
:1005900042324034137003202370EEE7FFF76EFE03
:1005A000C01B8642EED323689A692A42E6D0102205
:1005B0002000DA61DD61FFF78FFF22680849536888
:1005C00001200B4053600423636423002200413365
:1005D0001D7000234232403413702370CDE7C046B3
:1005E00000E800FEF8B504000D001600022723689D
:1005F0009B693B4201D0002018E032002900200016
:10060000FFF7B0FF002818D16B1CF0D0002D0ED1E1
:100610002022636C032013436364230041331A7068
:10062000220000234232403413702370F8BDFFF7DC
:1006300025FE801B8542DAD2EAE70120F6E773B592
:1006400015001E00DAB280239B0100938023040072
:100650005B04FFF74FFF079A06992000FFF7C2FFE0
:10066000002805D0636C0120042B00D0032076BD48
:100670002368012E0CD1EDB29D62079B00220093EE
:100680008021069B2000FFF747FF0028EED1EEE710
:100690002A0A9A620699079A2000FFF7A3FF00280A
:1006A000E0D12368E7E7F8B504000D001600202725
:1006B00023689B693B4201D0002016E032002900EC
:1006C0002000FFF74FFF002816D1002D0ED1202269
:1006D000636C032013436364230041331A702200C8
:1006E00000234232403413702370F8BDFFF7C6FD7B
:1006F000801B8542DCD2EAE70120F6E770B50400F2
:100700000120002C3FD0250041352B78DBB2002B97
:1007100005D1220040321370200002F0C1FB2423D7
:1007200001212B702368E0681A68A6688A431A6062
:1007300061681A4A0A401A619968194A1140996019
:10074000012821D180210902314399605868154957
:1007500001435960D96800200A40DA606169226962
:100760000A43A16909020A43DA60216AE2690A437D
:100770001A60012219680A431A60202360642B70F2
:1007800020634234207070BD842109023143996096
:100790000228DBD1802109015960D7E7FFFFFFF074
:1007A000FF7FFFFF00800002F0B589B007930EAB1A
:1007B000069204CB04001B88039204930300413388
:1007C00005931B780D000220202B02D1002A02D1B4
:1007D000012009B0F0BD049B002BF9D02700403761
:1007E0003B78012BF5D001233B70FFF747FD8021BB
:1007F000029000901923012209022000FFF78CFECD
:10080000061E1FD12123059A2900137023004233AD
:1008100005934023059A1370039B606463626B46E3
:100820001B8A60636385029B069A0193109B2000DC
:100830000093079BFFF703FF002805D0636C3E7011
:10084000042BC5D00320C4E7638DFF2B14D9FF22EE
:10085000802322855B040090290020008026FFF77A
:1008600049FEFF27B604029A10992000FFF7BAFE4E
:10087000002809D0636CE3E78023628D9B0492B269
:100880002285D2B20090E7E7636A2268591C616250
:100890001B789362638D228D013B013A9BB292B229
:1008A00063852285002A17D1638D002B14D0029B0B
:1008B000802100932000109BFFF72EFE0028C1D15D
:1008C000638DFF2B21D98023FF2227855B040090B5
:1008D00029002000FFF70EFE638D002BC3D1029A82
:1008E00010992000FFF7DFFE0028C3D120212368E4
:1008F000094DD9615A682A405A6023004133197062
:10090000059B40341870207063E7628D330092B20B
:100910002285D2B20090DBE700E800FEF0B50400CB
:10092000413422780300D2B20220202A18D11D00BF
:1009300040352E78012E13D01B68223020701E689F
:10094000233886431E601E68064F3E401E601E68A8
:10095000314319601968084318600020227028701C
:10096000F0BDC046FFEFFFFFF0B5050041352A7826
:100970000300D2B20220202A17D11C00403426786E
:10098000012E12D01B68223028701E68233886433F
:100990001E601E68054F09023E4031431960196808
:1009A0000843186000202A702070F0BDFFF0FFFFA0
:1009B000F0B5036885B00500DB072FD42B689B07D3
:1009C00000D581E02B681B0700D5BCE02B685B07D6
:1009D00000D5DFE02B68DB061AD56A69B54C042325
:1009E000012A00D04BE1616B02260B436363636B0A
:1009F0001A436263FFF742FC0700636B334200D186
:100A000036E1F821626BAB698A43DB001343636311
:100A1000296A002900D059E1002013E00C21A54CDF
:100A200062680A40042A06D063680B40082B0BD189
:100A30006368DB0308D523689B03BFD56B68002B75
:100A4000BCD1012005B0F0BD6B68012B13D1802310
:100A500022685B0213432360FFF710FC8026070027
:100A6000B60223683342A9D1FFF708FCC01B6428F3
:100A7000F7D90320E6E7002B16D123688E4A80269B
:100A80001340236023688D4AB60213402360FFF7AA
:100A9000F5FB07002368334200D18FE7FFF7EEFB39
:100AA000C01B6428F6D9E4E7052B05D18023226812
:100AB000DB0213432360CAE723687F4A13402360A5
:100AC00023687E4A1340C6E70C227A4C63681342BF
:100AD00006D063681340082B10D16368DB030DD484
:100AE00023689B0702D5EB68012BAAD1F821226865
:100AF0002B698A43DB001343236063E7EA68012321
:100B0000002A0FD02268022613432360FFF7B6FBAA
:100B1000070023683342E9D1FFF7B0FBC01B02286E
:100B2000F7D9A6E7226802269A432260FFF7A6FBC0
:100B300007002368334200D144E7FFF79FFBC01B47
:100B40000228F6D995E7EA6901235A4C002A10D009
:100B5000626A022613436362FFF790FB0700636A31
:100B6000334200D032E7FFF789FBC01B0228F6D9D9
:100B70007FE7626A02269A436262FFF77FFB070003
:100B8000636A334200D121E7FFF778FBC01B0228DC
:100B9000F6D96EE780220021464C5205E3690091A8
:100BA000134208D1E3691343E361E36913400393FC
:100BB000039B012300938027414E7F0033683B4213
:100BC00006D0AB68012B13D1226A1343236230E0B5
:100BD00033683B433360FFF751FB019033683B427E
:100BE000EFD1FFF74BFB019BC01A6428F6D940E711
:100BF0000122002B14D1236A022793432362236A24
:100C0000033293432362FFF739FB0600236A3B421A
:100C100025D0FFF733FB2B4B801B9842F6D928E7F2
:100C2000052B0BD1216A013B0B432362236A1A4334
:100C30002262FFF723FB022706000DE0236A93439D
:100C400004222362236A9343C0E7FFF717FB1D4B7F
:100C5000801B984200D90CE7236A3B42F5D0009BE9
:100C6000012B00D0B6E6E369174A1340E361B1E611
:100C7000FFF704FBC01B022800D8BEE6F9E60532E8
:100C800003D1626B9A436263BBE6626B0226134335
:100C900001226363636B93436363FFF7EFFA07001B
:100CA000636B334200D1B3E6FFF7E8FAC01B0228BA
:100CB000F6D9DEE600100240FFFFFEFFFFFFFBFF5C
:100CC0000070004088130000FFFFFFEF0C22264C4D
:100CD000012063681340082B00D1B3E62368234A40
:100CE0001340236002292FD1FFF7C8FA802607009E
:100CF000B6042368334221D10F22E36A9343EA6AA0
:100D00001343E362696AAB6A62680B431849802542
:100D10000A4013436360802322685B04134323600B
:100D2000FFF7ACFA0600AD0423682B4200D073E64F
:100D3000FFF7A4FA801B0228F6D99AE6FFF79EFA7D
:100D4000C01B0228D5D994E6FFF798FA8025060043
:100D5000AD0423682B4200D15EE6FFF78FFA801BBB
:100D60000228F6D985E6C04600100240FFFFFFFECC
:100D7000FFFFC2FF70B5144C88B0102221006846F6
:100D800002F02AFB210004AD10221031280002F0ED
:100D900023FB0C220D4E73681A40082A11D10F2034
:100DA0006A46990C0140545CF26A0240A95CDB037C
:100DB00005D50748FFF7BEF9604308B070BD054888
:100DC000FAE70348F9E7C0469C34000800100240E7
:100DD00000127A0000093D00F7B50122434C0600DD
:100DE00023680F0013408B421CD33268930723D42F
:100DF000D30729D4012322681A40974267D3336866
:100E00003B4C5B076AD4FFF7B5FF6368394A1B06A2
:100E10001B0FD35CD840384B1860002002F0AEF8AE
:100E2000002008E0236893430B43236023681340AA
:100E30009942DAD00120FEBDF0202D494B68834352
:100E4000B06803434B60D3E7294D72682B68012AD1
:100E50001AD19B03EED503216B688B4313436B6060
:100E6000FFF70CFA73680190012B15D10C226B6807
:100E70001340042BBED0FFF701FA019BC01A1F4B91
:100E80009842F3D90320D6E7022A02D19B01E2D48B
:100E9000D0E79B07DFD4CDE7022B12D00C226B6882
:100EA0001342A7D0FFF7EAF9019BC01A134B9842EF
:100EB000F4D9E7E7FFF7E2F9019BC01A0F4B98421C
:100EC000E0D80C226B681340082BF3D192E722681C
:100ED0009A43226022681A42ACD190E76368084ABC
:100EE0001340F268134363608DE7C0460020024060
:100EF00000100240005D0008200000208813000060
:100F0000FFF8FFFF014B18687047C0462000002023
:100F1000044B054A5B685B055B0FD35C034A1068B2
:100F2000D840704700100240105D000820000020EB
:100F3000072310B503240360094B5A68224042601E
:100F40005A68ED3422408260E0225B68D200134090
:100F50000122C360034B1B6813400B6010BDC046E9
:100F60000010024000200240F0B5036885B0050083
:100F7000DB0328D580220021374C5205E36900911C
:100F8000134208D1E3691343E361E3691340039318
:100F9000039B012300938027304E7F0033683B4240
:100FA00026D0C022236A920013402D4E32D1236AEC
:100FB0001E406B681E43009B2662012B03D1E36930
:100FC000284A1340E3612A68D30706D50320224943
:100FD0000B6B8343A86803430B630020930617D56C
:100FE00010211D4A136B8B43E9680B4313630FE019
:100FF00033683B433360FFF741F9019033683B426C
:10100000CFD1FFF73BF9019BC01A6428F6D9032022
:1010100005B0F0BD69680A409342C8D08023226AB7
:10102000206A11005B0203432362236A0E483140A9
:10103000034023622162D307B9D5FFF71FF90700E8
:101040000222236A1342B2D1FFF718F9074BC01BE3
:101050009842F5D9DBE7C04600100240007000401E
:10106000FFFCFFFFFFFFFFEFFFFFFEFF8813000005
:10107000F8B504000120002C4BD000232500A3620A
:101080005D352B78DBB2002B05D122005C3213706A
:10109000200001F02BFF0223402221682B700B68F7
:1010A000002093430B60E023E268DB009A4231D9D1
:1010B000F0263601B24233D10600206B002803D15E
:1010C0009A422FD902232363A7686368A0693B4330
:1010D00027693B4367693B43E7693B43276A3B43D7
:1010E000A76A3B438027BF0007403B430B60636A0E
:1010F000000C1A43636B1A43042318401043064341
:101100004E60CB69084A00201340CB610123206662
:101110002B70F8BD802676019A42CED0A062CCE733
:101120000600FBE70123CEE7FFF7FFFF012203687C
:10113000D96800201143D96019680A431A607047C2
:1011400070477047704770470222036810B51969ED
:10115000040011420ED0D96811420BD0053A1A6131
:101160009B69043202779B0700D179E0FFF7E9FF22
:1011700000232377042223681969114210D0D9680B
:1011800011420DD0093A1A61073222779A69C023B9
:101190009B0020001A4269D0FFF7D3FF002323777A
:1011A00008222368196911420ED0D96811420BD068
:1011B000113A1A61DB690D32227720009B075BD060
:1011C000FFF7BFFF0023237710222368196911421C
:1011D00010D0D96811420DD0213A1A611932227704
:1011E000DA69C0239B0020001A424BD0FFF7A9FF09
:1011F00000232377012223681969114207D0D96897
:10120000114204D0033A1A61200001F0EBFC802265
:1012100023681969114208D0D968114205D0023AF1
:10122000FF3A1A61200000F097F8402223681969FC
:10123000114207D0D968114204D0813A1A612000C6
:10124000FFF781FF202223681969114207D0D9686E
:10125000114204D0413A1A61200000F07CF810BD20
:10126000FFF76EFF2000FFF76DFF81E7FFF768FFD4
:101270002000FFF767FF91E7FFF762FF2000FFF70D
:1012800061FF9FE7FFF75CFF2000FFF75BFFAFE721
:101290001C4A10B50368904202D01B4CA04208D1F2
:1012A0007024A3434C68234390420ED0164CA042B6
:1012B0000BD0164CA04208D0154CA04205D0154CBE
:1012C000A04202D0144CA04203D1144C2340CC685D
:1012D00023438024A3434C69234303608B68C36288
:1012E0000B688362904208D0094B984205D0094BA5
:1012F000984202D0084B984201D10B690363012345
:10130000436110BD002C014000040040002000405B
:10131000004001400044014000480140FFFCFFFF45
:1013200070B504000120002C14D025003D352B7829
:10133000DBB2002B05D122003C321370200001F0FB
:10134000F9FD022320682B70211DFFF7A1FF012367
:1013500000202B7070BD7047704710B500F09CFAEC
:10136000002010BD10B5012000F097F910BD10B598
:1013700000F06AFC012801D000F034FD10BD03002C
:10138000012208334360C36003610023524282603C
:101390000360704700230361704743689A684B609D
:1013A0008A609A685160996003680861013303603C
:1013B000704703000A6830B50833541C0BD1036929
:1013C0005A684A6091608B60596003680861013314
:1013D000036030BD23005C682568AA42FAD2EFE7BB
:1013E0004168826803698A608268516059688842EE
:1013F00000D15A60002202611A68501E18607047BE
:1014000070B51600026C0400856B002A0AD10668CC
:101410001000002E03D1606800F022FC66600135E8
:10142000A56370BD002E0DD1806801F0D5FFA368C3
:10143000226C30009B186268A3609342EFD323684C
:10144000A360ECE7C06801F0C7FF236CE2685B4271
:101450002168D218E2608A4202D26268D318E3603F
:101460000020022EDBD12B005A1E9341ED1AD6E745
:1014700070B505002E00453600F06AFC347864B281
:10148000002C10DCFF2333702E00443600F06CFC7F
:1014900000F05EFC347864B2002C11DCFF23337062
:1014A00000F062FC70BD6B6A002BEBD0280024308A
:1014B00000F052FB002801D000F0C0FB013CDEE749
:1014C0002B69002BEAD02800103000F045FB0028E3
:1014D00001D000F0B3FB013CDDE770B504000D0066
:1014E000002801D172B6FEE700F032FC216CE36BFC
:1014F00022684B43D0185B1AD318E3602300606066
:10150000A2600020FF224433A0631A705A70854203
:101510000ED12369834207D02000103000F01CFB5D
:10152000002801D000F008FC00F01EFC012070BD76
:1015300020001030FFF723FF20002430FFF71FFFAB
:10154000F2E770B506000D00002801D172B6FEE783
:1015500008007043483000F0A7FC041E08D0002D9E
:1015600008D12060E663256401212000FFF7B5FF64
:10157000200070BD030048330360F3E7F0B585B089
:101580000400009101921D00002801D172B6FEE70F
:10159000009B002B00D06FE0036C002B00D16BE0B0
:1015A00072B6FEE7019E002E03D100F0DDFB0020A5
:1015B00054E0002F02D102A800F000FB00F0D4FBA1
:1015C00000F090F900F0C4FB2200443213785BB2C3
:1015D000013301D1002313702200453213785BB22E
:1015E000013301D10023137000F0BEFB01A902A852
:1015F00000F0F4FA002839D100F0AAFBA76BE66BE3
:1016000000F0B2FBB7422BD120000199103000F05E
:1016100091FA2000FFF72CFF00F0D4F9002801D147
:1016200000F08AFB012700F093FBA36BE26B93426F
:1016300001D3022DB6D12A0000992000FFF7E0FE69
:10164000636A002B03D02000243000F085FA0028C4
:1016500001D000F071FB00F087FB012005B0F0BD68
:101660002000FFF705FF00F0ADF9DBE72000FFF7F2
:10167000FFFE00F0A7F99AE7022D02D1E36B012BE0
:1016800009D100F0E1FA00270028CCD1019F002FFA
:10169000C9D072B6FEE772B6FEE710B502000021AF
:1016A0000120FFF74EFF041E07D0002141600160BA
:1016B000C1600B000A00FFF761FF200010BD0000B1
:1016C000064B9A6A1268002A02D1013ADA62704720
:1016D0009A6AD268D2685268F8E7C046A40000202F
:1016E000F8B50500124C0F00266B606B0430FFF755
:1016F00077FE6B1C07D1002F05D0616B20000431F1
:10170000FFF74BFEF8BD636B75195D60AE4205D9FE
:10171000A06B616B0431FFF74CFEF3E7A06A616BCD
:101720000431FFF746FEE36A9D42EBD2E562E9E74A
:10173000A4000020F0B5950085B0029028000F00AD
:10174000039300F0B1FB061E00D18FE0542000F09F
:10175000ABFB041E00D186E00723043D0663761927
:101760009E43002300961A00F95C3432A154FA5CBF
:10177000002A02D00133102BF5D1230000250A9E48
:1017800043331D70062E00D90626231D1800E6627D
:101790006664A5640193FFF7FDFD20001830FFF794
:1017A000F9FD07239E1B230050332461A661646268
:1017B000E564039A1D700299009800F0ABFA0B9B48
:1017C0002060002B00D01C6000F0C2FA2E4DEB6BA5
:1017D0000133EB636B6B002B4BD16C63EB6B012B19
:1017E00020D12E002F004036CC3730001436FFF7C2
:1017F000C6FDB742F9D1254E37004C373800FFF708
:10180000BEFD2348FFF7BBFD28001430FFF7B7FDEE
:1018100030007430FFF7B3FD2800FFF7B0FD1C4B1C
:10182000AF62AB631B4EE26AF3680133F360336966
:101830009A4200D932611423280053434030C01823
:101840000199FFF7AAFD00F08FFAB3680126002B7B
:1018500006D06B6BDA6AE36A9A4201D200F06CFA46
:10186000300005B0F0BD300000F096FB0126764256
:10187000F6E7084B9B68002BD4D16B6BE26ADB6AFE
:101880009342CFD86C63CDE7A40000202401002050
:1018900084010020A401002037B50E4D00242B0048
:1018A0001C3301930094230080220B490B48FFF75F
:1018B00041FF012809D172B60122094B5242DA6276
:1018C000A8601C6300F0B4FA37BD431CFCD172B6AB
:1018D000FEE7C046A4010020185D0008711A000848
:1018E000A4000020024A9369013393617047C04607
:1018F000A4010020F7B5314CA369002B32D1304D43
:101900002B6B013300932B63002B0ED1AB6A1B684A
:10191000002B01D072B6FEE7AB6AAA6BAA62AB637A
:10192000236A01332362FFF7CBFEEB6A009A00279C
:101930009A4207D3224DAB6A1B68002B17D10123B3
:101940005B42EB621E4B5A6BD16A14224A439B18CE
:101950001B6C012B00D90127A36A002B00D00127A3
:101960003800FEBD636A002701336362F4E7AB6AA7
:10197000009ADB68DE6873689A42E2D3331D180070
:101980000193FFF72DFDB36A002B03D03000183010
:10199000FFF726FDF36A2269934200D923611422DE
:1019A000280053434030C018311DFFF7F6FC6B6B25
:1019B000F26ADB6A9A42BDD30127BBE7A40100208B
:1019C000A4000020F8B5284CA369002B01D172B601
:1019D000FEE700F0BDF9A369013BA361A569002DF5
:1019E00004D0002400F0C0F92000F8BD1F4EF36BB6
:1019F000002BF6D07369002B17D1002D01D0FFF713
:101A00005FFE656A002D09D00126FFF773FF0028ED
:101A100000D0A662013D002DF7D16562A36A002BBC
:101A2000DFD000F089F90124DCE7336ADD682800A3
:101A30002F1D1830FFF7D4FC3800FFF7D1FCEB6AFC
:101A40002269934200D9236114223000534340306D
:101A5000C0183900FFF7A1FC736BEA6ADB6A9A428F
:101A6000C8D30123A362C5E7A4010020A40000207D
:101A700070B5154D6B69002B06D1144B1B6C012BF7
:101A8000F7D900F059F9F4E7FFF72CFF104C666F17
:101A9000FFF798FF002EECD0043400F059F9E36F03
:101AA000DC68201DFFF79CFC084AD36B013BD36325
:101AB0006B69013B6B6100F057F9206B00F06CFA29
:101AC000200000F069FAD4E7A4010020A40000205F
:101AD00024010020154A70B59369002B02D0012320
:101AE000936270BD12481425040093621369403458
:101AF000290059430E59002E11D045186E6C08313B
:101B0000766861186E648E4201D17168696414212F
:101B100059434118496CC96841631361E1E7002BDF
:101B200001D172B6FEE7013BE2E7C046A401002006
:101B3000A400002010B50C00002801D172B6FEE709
:101B4000044B596B1831FFF734FC01212000FFF7DB
:101B5000C7FD10BDA4000020F8B5C368DC68002CE8
:101B600001D172B6FEE7270018373800FFF738FCBE
:101B7000104D114EAB69002B19D1271D3800FFF70E
:101B80002FFCE26A2B699A4200D92A6114233000A3
:101B900053434030C0183900FFF7FFFB736BE26A14
:101BA000DB6A00209A4201D90130A862F8BD3000FA
:101BB0001430F0E7A4010020A4000020002801D187
:101BC00072B6FEE7034B1B6A0360034B1B6B43605B
:101BD0007047C046A4010020A400002070B5040096
:101BE0000D00002801D172B6FEE7002901D172B6BE
:101BF000FEE700F0ADF80F4B0026196B2B685A1C5E
:101C000013D00D4A2668106A6268864202D0012607
:101C100091420AD2881A0126834206D95B1A9B1880
:101C20002B602000FFF7CAFF002600F09DF830006F
:101C300070BDC046A4000020A40100200122014B79
:101C40009A627047A4010020044B01209A68002A80
:101C500003D098694342584140007047A4010020D6
:101C600070B5041E01D1002070BD154D6B6B9842FC
:101C700001D072B6FEE7836C002B01D172B6FEE78D
:101C8000C26A416C013B83648A42ECD0002BEAD1EA
:101C9000061D3000FFF7A4FB0722636CD21AA26175
:101CA000084AE36211698B4200D9136128001425A8
:101CB0006B434030C0183100FFF76FFB0120D3E7C2
:101CC000A4000020A4010020034B1B68013301D0B5
:101CD00072B6FEE772B6FEE70400002000000000C6
:101CE0000B4A13681868203080F30988022080F3BB
:101CF0001488BFF36F8F3FBCAE4608BC04BC62B60D
:101D00001847C046C046C046C046C046C046C0464A
:101D1000D800002010B58024031F64041C60043B1D
:101D200019600349043B1960143B40381A6010BD28
:101D3000C91C0008704700008022044B52051A603D
:101D4000BFF34F8FBFF36F8F7047C04604ED00E0C5
:101D500072B6044A136801331360BFF34F8FBFF3A9
:101D60006F8F704704000020054A1368002B01D1D3
:101D700072B6FEE7013B1360002B00D162B67047DC
:101D800004000020EFF3108072B67047002080F34B
:101D900010887047000000000000000000000000F4
:101DA000EFF309800E4B1A6820381060F0C04446EB
:101DB0004D4656465F46F0C008B572B6FFF78AFE3C
:101DC00062B60CBC116808681030F0C8A046A9467D
:101DD000B246BB4680F309882038F0C81847C04691
:101DE000D800002010B5FFF7CDFF0400FFF782FDFB
:101DF000002803D08022034B52051A602000FFF711
:101E0000C6FF10BD04ED00E0FA21064B10B51868BE
:101E10008900FEF78FF90722034B01381860034B46
:101E20001A6010BD2000002014E000E010E000E087
:101E3000FF220A4B1204196810B50A431A60FF22E8
:101E4000196812060A431A60FFF7DEFF0022044BEE
:101E50001A60FFF745FFFFF737FFC04620ED00E0AF
:101E6000040000200F4B30B51D001A68824217D3C2
:101E70005C681919884203D1416818000919596032
:101E800041684418A24206D1AC68A24203D054680B
:101E90001268611841600260984200D0186030BD3D
:101EA0001300E2E7D0010020F7B50400FFF71AFDA8
:101EB000364A374D9368002B1CD1110007330C3183
:101EC000194233D0110013319943324BD3185B1AA6
:101ED00007260020CB18083BB343506011605860C0
:101EE00018609360581A0B6080231B064860E860F6
:101EF00028616B616F693C4216D1002C14D023001D
:101F0000072108330B4201D08B430833002B0BD041
:101F10002E69B34208D810001468616800918B42A2
:101F200007D8926894420BD1002527E0C0231B01FB
:101F3000CEE721688C460029F3D020006446ECE708
:101F40000268019222680260009AD11A102908D909
:101F5000E018420701D072B6FEE741606360FFF708
:101F600081FF6368EA68F61A2E61964200D2EE603D
:101F70001F430023019D676008352360FFF722FDA2
:101F80006B0701D072B6FEE72800FEBDD00100202D
:101F9000D00D00200C0C000070B500281AD00E4D9A
:101FA000083843686A6904001A4201D172B6FEE734
:101FB0000168002901D072B6FEE793434360FFF742
:101FC00091FC2A69636820009B182B61FFF74AFF88
:101FD000FFF7F8FC70BDC046D00D002070B532256B
:101FE00008213048FEF772FA431E98412E4C10210A
:101FF00020702C48FEF76AFA431E98412021607039
:102000002848FEF763FA431E98416668A070012EC7
:10201000E6D10021280000F015FF2378002B06D020
:10202000224A330011682248526800F0F7FE2378F4
:10203000002B06D11D4A013311681E48526800F07A
:10204000EDFE0A21280000F0FDFE6378002B06D08B
:10205000164A012311681648526800F0DFFE6378C3
:10206000002B06D1114A013311681248526800F062
:10207000D5FE1421280000F0E5FEA378002B06D041
:102080000A4A012311680A48526800F0C7FEA37883
:10209000002BA5D1054A013311680648526800F0AB
:1020A000BDFE9DE700040048E80D00201800002058
:1020B0001D5D00081F5D0008F0B56A2087B014247C
:1020C00000F002FB8221C3B2502249000194009427
:1020D00002A800F061FCFE4D02A92E000836300077
:1020E00000F01CFC02A800F06CFC652000F0ECFA8B
:1020F0008C21C3B2502249000194009402A800F040
:102100004BFC02A9300000F009FC02A800F059FCC9
:10211000742000F0D9FA9621C3B2502249000194EC
:10212000009402A800F038FC02A9300000F0F6FB91
:1021300002A800F046FC702000F0C6FAA021C3B24D
:10214000502249000194009402A800F025FC02A945
:10215000300000F0E3FB02A800F033FC612000F047
:10216000B3FAAA21C3B2502249000194009402A8F4
:1021700000F012FC02A9300000F0D0FB02A800F031
:1021800020FC632000F0A0FAB421C3B25022490021
:102190000194009402A800F0FFFB02A9300000F0B7
:1021A000BDFB02A800F00DFC6B2000F08DFABE21F3
:1021B000C3B2502249000194009402A800F0ECFB45
:1021C00002A9300000F0AAFB02A800F0FAFB702080
:1021D00000F07AFA8C21C3B2B42249000194009431
:1021E00002A800F0D9FB02A9300000F097FB02A87A
:1021F00000F0E7FB6C2000F067FA9621C3B2B4222E
:1022000049000194009402A800F0C6FB02A9300026
:1022100000F084FB02A800F0D4FB612000F054FA27
:10222000A021C3B2B42249000194009402A800F096
:10223000B3FB02A9300000F071FB02A800F0C1FB63
:10224000792000F041FAAA21C3B2B42249000194D6
:10225000009402A800F0A0FB02A9300000F05EFB91
:1022600002A800F0AEFB682000F02EFA8C22C3B268
:102270005200DC210194009402A800F08DFB02A919
:10228000300000F04BFB02A800F09BFB692000F03F
:102290001BFA8C22C3B25200F0210194009402A8D0
:1022A00000F07AFB02A9300000F038FB02A800F031
:1022B00088FB672000F008FA8C228221C3B252000A
:1022C00049000194009402A800F066FB02A93000C6
:1022D00000F024FB02A800F074FB682000F0F4F981
:1022E0008C225200C3B211000194009402A800F0A5
:1022F00053FB02A9300000F011FB02A800F061FBC3
:10230000732000F0E1F98C229621C3B252004900FB
:102310000194009402A800F03FFB02A9300000F0F5
:10232000FDFA02A800F04DFB632000F0CDF98C22ED
:10233000A021C3B2520049000194009402A800F009
:102340002BFB02A9300000F0E9FA02A800F039FBEB
:102350006F2000F0B9F98C22AA21C3B252004900C3
:102360000194009402A800F017FB02A9300000F0CD
:10237000D5FA02A800F025FB722000F0A5F98C2206
:10238000B421C3B2520049000194009402A800F0A5
:1023900003FB02A9300000F0C1FA02A800F011FB13
:1023A000652000F091F98C22BE21C3B25200490091
:1023B0000194009402A800F0EFFA02A9300000F0A6
:1023C000ADFA02A800F0FDFA732000F07DF9BE22FC
:1023D000C3B25200F0210194009402A800F0DCFA8C
:1023E00002A9300000F09AFA02A800F0EAFA65208B
:1023F00000F06AF9BE228221C3B252004900019462
:10240000009402A800F0C8FA02A9300000F086FA91
:1024100002A800F0D6FA742000F056F9BE228C21F2
:10242000C3B2520049000194009402A800F0B4FA2B
:1024300002A9300000F072FA02A800F0C2FA74207B
:1024400000F042F9BE229621C3B252004900019425
:10245000009402A800F0A0FA02A9300000F05EFA91
:1024600002A800F0AEFA692000F02EF9BE22A021E9
:10247000C3B2520049000194009402A800F08CFA03
:1024800002A9300000F04AFA02A800F09AFA6E2081
:1024900000F01AF9BE22AA21C3B2520049000194E9
:1024A000009402A800F078FA02A9300000F036FA91
:1024B00002A800F086FA672000F006F9BE22B421D7
:1024C000C3B2520049000194009402A802E0C04641
:1024D000E80D002000F060FA02A9300000F01EFABA
:1024E00002A800F06EFA732000F0EEF8BE2252004F
:1024F000C3B211000194009402A800F04DFA02A9A1
:10250000300000F00BFA02A800F05BFAD22106239B
:10251000502249000194009402A800F03DFA3000D6
:10252000012602A900F0FAF902A800F04AFA3700E1
:10253000012F75D100F080FB002000F06FFB00211F
:10254000080000F07FFC374C0123626821683648A0
:1025500000F064FC0A21002000F074FC0123626892
:102560002168324800F05AFC1421002000F06AFC77
:102570000123216862682E4800F050FC022E28D00A
:10258000032E3BD0012ED5D10021502000F05AFC63
:1025900006CC3300274800F041FC2B783400002B98
:1025A00009D12B78002B05D100F000F9F9E73C00A8
:1025B0002600BDE702246B783700002BF8D16B783A
:1025C000002B02D100F0F2F8F9E7042300272B7367
:1025D000EEE70A21502000F035FC06CC0123154817
:1025E00000F01CFC2B780224002BE1D12B78002B6F
:1025F00001D00324DCE700F0D9F8F7E714215020DC
:1026000000F020FC06CC01230A4800F007FC2B78E0
:10261000002BEED12B78002BC9D100F0C7F8F9E7D9
:1026200007B0F0BD18000020215D0008265D0008FD
:10263000315D00083A5D000810B500F0FDFA002099
:1026400000F0ECFA0021080000F0FCFB034A012333
:1026500011680348526800F0E1FBEEE71800002023
:102660003D5D000870B500F00BFB002301250A4C0E
:102670002373207B0428FDD8FDF752FD03070B0AC6
:102680000C0000F092F82573F3E7FFF715FDF0E773
:10269000FEE7FEE7FFF7D0FFE80D0020D222A021E1
:1026A00010B5064C520008348900200000F0DAF81A
:1026B000034A0449200000F006FD10BDE80D00208B
:1026C00000000020F527000803000720312B6BD005
:1026D0000130322B68D00130332B65D00130342BE0
:1026E00062D00130352B5FD00130362B5CD0013009
:1026F000372B59D00130382B56D00130392B53D0DD
:102700000130302B50D00130612B4DD00130622B85
:102710004AD00130632B47D00130642B44D00130C4
:10272000652B41D00130662B3ED00130672B3BD06A
:102730000130682B38D00130692B35D001306A2B3D
:1027400032D001306B2B2FD001306C2B2CD00130CC
:102750006D2B29D001306E2B26D001306F2B23D06A
:102760000130702B20D00130712B1DD00130722B25
:102770001AD00130732B17D00130742B14D00130D4
:10278000752B11D00130762B0ED00130772B0BD06A
:102790000130782B08D00130792B05D07A3B581EB8
:1027A000834158422A2318437047704710B50D4C97
:1027B00008212000FDF78AFE431E98410A4B102194
:1027C00018702000FDF782FE431E9841074B202120
:1027D00018702000FDF77AFE431E9841044B1870D4
:1027E00010BDC04600040048E80D0020E90D00209F
:1027F000EA0D0020144B70B508330360C2230500B6
:102800009B00C6183033C418B44205D0083C236876
:1028100020001B689847F7E72E00C936FF36B44200
:1028200005D0203C236820001B689847F7E72C0060
:10283000AB34AE1DFF34B44204D00E3C200000F097
:10284000C0F8F8E7280070BDBC34000810B50400DB
:10285000FFF7D0FFCE212000890000F03BFC2000D4
:1028600010BD0000F7B5070004000E002A4BAB377F
:10287000083301920360851DFF3728000E3500F0F4
:1028800081F8BD42F9D1D52200235200A3541A3257
:10289000A3542500C223C9359B00FF35E718280043
:1028A000203500F063F8BD42F9D12800012312223F
:1028B000112100F08FF8C4239B00E0181E22022390
:1028C0001D2100F087F8C6239B00E0181322032384
:1028D000122100F07FF8C8239B00E0181322042384
:1028E000122100F077F8CA239B00E0180A22052382
:1028F000282100F06FF8CC2300229B00E018110083
:10290000062300F067F86A46E02392885B00E652EF
:1029100002332000E252FEBDBC34000870B5D5245D
:1029200001256400035DC218AC32FF3215705A19DC
:1029300002550E225343C018063000F04DFD70BD05
:1029400010B50400034B08330360083000F0CAFBE5
:10295000200010BDCC34000810B50400FFF7F0FFD4
:102960002000202100F0B6FB200010BD044B0833EE
:1029700003600300103383600023C3600374704757
:10298000CC34000800230370437083708380C380BD
:10299000037243818381704730B503AB1D7804AB6C
:1029A0001C78002381800370491943708370C280B2
:1029B000A3081219EB184910521003724181828149
:1029C00030BD7047704710B50400082100F082FB4D
:1029D000200010BD10B5034C4171083404608271B1
:1029E000037110BDDC340008022310B594B00893C5
:1029F000013B0B930F330C93002308A81093FDF7B2
:102A0000D7FF011E00D0FEE707230190029003903C
:102A100068460093FEF7E0F9002800D0FEE7202387
:102A2000079004A80493FEF79FFA041E00D0FEE767
:102A3000FEF768FAFA218900FDF77CFBFDF76EFCD2
:102A40000420FDF785FC0120220003214042FDF710
:102A50002BFC14B010BD000070B58AB0FDF7F6FB7A
:102A6000FFF7C2FF80204F4B8002596900240143C9
:102A700059615A690125024080200292029A5969DF
:102A800040030143596180215A69C90202400392FF
:102A9000039A5A6944480A435A615B6906940B4099
:102AA0000493049B042305A905930794FDF75EFC9A
:102AB00038233E4805A9059306940795FDF756FC73
:102AC0003B483C4B8460036082235B004360E0230F
:102AD000DB00C36080239B008361FA3BFF3BC36242
:102AE0005B1904614461C4610462446284620463EA
:102AF0004363FEF7BDFAA04200D0FEE72E4B2F4AFB
:102B000058609860D860986118001A60FEF708FC59
:102B1000002800D0FEE72A4B2A4A58609860D86007
:102B20001861986118001A60FEF7FAFB002800D0BF
:102B3000FEE7254C254BA0602360254B206160619A
:102B4000A061E061206220006360E560FDF7D6FDD2
:102B5000011E00D0FEE72000FDF7E0FE011E00D0C0
:102B6000FEE72000FDF700FF041E00D0FEE7059001
:102B700005A8FEF7F7FB0326164B174D18608022B9
:102B800023002900019400961448FEF7D3FD23008A
:102B900080222900019400961148FEF7CBFDFEF734
:102BA000DCFBFEE700100240000C00480004004877
:102BB000D813002000300140D01400200010004045
:102BC00090140020002000404014002000540040D9
:102BD0000E0900203C140020455D00086526000811
:102BE000DD1F0008034B026810B59A4201D1FDF7C2
:102BF0003DFB10BD002C01407FB517220A236A441B
:102C000010700293093B0092019300227821024840
:102C1000FDF7CAFD07B000BD40140020421E9041E0
:102C200080220023034940429200585401339342CA
:102C3000FBD17047281100207FB500246426802531
:102C400020005038C0B2FFF7D7FF0020FFF7D4FFB5
:102C50001020FFF7D1FF084BE2019B18009302966A
:102C6000019501234022782104480134FDF79CFDA1
:102C7000082CE5D17FBDC04628110020401400205B
:102C800010B56420FDF700FBAE20FFF7B5FF202054
:102C9000FFF7B2FF0020FFF7AFFF8120FFF7ACFF87
:102CA000F020FFF7A9FFA620FFF7A6FFA820FFF757
:102CB000A3FF1F20FFF7A0FFA420FFF79DFFD32055
:102CC000FFF79AFF0020FFF797FFD520FFF794FF4B
:102CD0008020FFF791FFD920FFF78EFF2220FFF71A
:102CE0008BFFDA20FFF788FF0220FFF785FFDB204C
:102CF000FFF782FF4020FFF77FFF8D20FFF77CFF6B
:102D00001420FFF779FFAF20FFF776FF0020FFF7D1
:102D100085FFFFF791FF00220120024B1A805A80A5
:102D2000587110BD2813002043B210B5002B14DBDE
:102D30001F2912D80C4B1B79002B02D053425A4149
:102D4000D2B2CB08DB0118180723084C1940012A1E
:102D500004D18A40235C1A43225410BD01228A40C8
:102D6000235C93432354F8E7281300202811002004
:102D7000F0B58BB00593CBB20393274B0891099222
:102D800003991A880600029252187F2A41DC08AA89
:102D9000527804925C88A3181F2B3ADC3300203B46
:102DA0005A4300230792E4B20193019B049A934291
:102DB00008D3039A029B9446174A63441380300059
:102DC0000BB0F0BD079A019B00279B18099A5B0086
:102DD0009B5A06936B461D7A039B9F4205D3019B2A
:102DE000013401330193E4B2DFE7069B8022BB404C
:102DF0001202134208D0059A280021000135FFF77E
:102E000093FF0137EDB2E7E7059A53425A41D2B238
:102E1000F2E70026D3E7C0462813002037B50400A8
:102E20001D00009101922078002800D13EBD2B00AA
:102E30000099019AFFF79CFF030020788342F5D1A7
:102E40000134F0E7014B18805980704728130020A7
:102E500007B50120114B99690143996180219A6955
:102E6000490502400092009ADA6906380A43DA619D
:102E70000022DB690B4001931100019BFDF714FA5E
:102E80000220002203214042FDF70EFA0120002219
:102E900003214042FDF708FA07BDC046001002407A
:102EA0007FB50F4B02689A4217D1C0239B00019354
:102EB00012230322029301A9113B0A4803930492AF
:102EC0000593FDF753FA8020074A8003D169014337
:102ED000D161D36903400093009B07B000BDC04699
:102EE0000054004000040048001002407FB50F4B22
:102EF00002689A4217D180200D4A4001916901432E
:102F000091619369032203400093009BE02390208A
:102F10000193DE3B0293002301A9C00503930492B1
:102F20000593FDF723FA07B000BDC046003001400D
:102F30000010024003680E4A82B093420AD110206A
:102F40000C4AD1690143D161D36903400093009BCE
:102F500002B07047084A9342FAD18020054A4000E7
:102F6000D1690143D161D36903400193019BEFE72C
:102F700000100040001002400020004010B5010089
:102F800086B000220D20FDF78FF90D20FDF7BCF96A
:102F90008020144A00019169014391619369694657
:102FA0000340019302A8019BFDF7C2FFFDF7B0FFAC
:102FB0000D4C0E4B0E4923600E4BE360FDF7BAF843
:102FC00000230138606020002361A360FEF7A8F9A8
:102FD00003000120002B02D12000FEF7A7F806B065
:102FE00010BDC0460010024014150020002C014006
:102FF00040420F00E70300007047FEE710B5FEF700
:10300000B6F910BD10B50248FEF79EF810BDC046D7
:10301000141500200121114B11481A680A431A6047
:103020005A6802405A601A680E4802401A601A68CC
:103030000D4802401A605A680C4802400F205A603E
:10304000DA6A8243DA621A6B094802401A635A6BE1
:103050008A435A6300229A607047C04600100240BB
:103060000CB8FF08FFFFF6FEFFFFFBFFFFFFC0FFEE
:10307000ECFEFFFF0D4885460D480E490E4A002321
:1030800002E0D458C4500433C4188C42F9D30B4A1C
:103090000B4C002301E013600432A242FBD3FFF784
:1030A000B9FF00F06BF9FFF7D7FCFEE70020002026
:1030B0000000002088000020CC5D0008880000206F
:1030C00054150020FEE70B0010B50100180000F0B9
:1030D00047F910BD10B500F001F810BD10B500F0B3
:1030E00071F910BD03000068083310B5984201D093
:1030F000FFF7F4FF10BD00000123214A11681942B7
:1031000000D113601F4A1168194200D113600123D6
:103110001D4A1168194200D113601C4A11681942F6
:1031200000D1136001231A4A1168194200D11360BB
:10313000184A1168194200D113600123164A116818
:10314000194200D11360154A1168194200D1136069
:103150000123134A1168194200D11360114A116802
:10316000194200D1136001230F4A1168194200D19E
:1031700013600E4A1168194200D113607047C046AF
:103180005C1300205813002054130020501300201B
:103190004C1300204813002044130020401300204B
:1031A0003C1300203813002034130020301300207B
:1031B0000123214A1168194200D113601F4A116886
:1031C000194200D1136001231D4A1168194200D130
:1031D00013601C4A1168194200D1136001231A4A76
:1031E0001168194200D11360184A1168194200D1C0
:1031F00013600123164A1168194200D11360154A61
:103200001168194200D113600123134A1168194251
:1032100000D11360114A1168194200D113600123D3
:103220000F4A1168194200D113600E4A1168194201
:1032300000D113607047C0468C1300208813002013
:1032400084130020801300207C13002078130020BA
:1032500074130020701300206C13002068130020EA
:1032600064130020601300200123164A11681942DC
:1032700000D11360144A1168194200D11360012370
:10328000124A1168194200D11360114A116819429B
:1032900000D1136001230F4A1168194200D1136055
:1032A0000D4A1168194200D1136001230B4A1168BD
:1032B000194200D113600A4A1168194200D1136003
:1032C0007047C046AC130020A8130020A4130020B0
:1032D000A01300209C1300209813002094130020BA
:1032E000901300200123164A1168194200D113607F
:1032F000144A1168194200D113600123124A11685F
:10330000194200D11360114A1168194200D11360AB
:1033100001230F4A1168194200D113600D4A116848
:10332000194200D1136001230B4A1168194200D1E0
:1033300013600A4A1168194200D113607047C046F1
:10334000CC130020C8130020C4130020C013002099
:10335000BC130020B8130020B4130020B0130020C9
:1033600070B5054C05001300201E04D00A00022091
:10337000290000E000BF70BD0000000070B500260D
:103380000C4D0D4C641BA410A64209D1002600F080
:1033900079F80A4D0A4C641BA410A64205D170BDF1
:1033A000B300EB5898470136EEE7B300EB58984767
:1033B0000136F2E7B05D0008B05D0008B05D0008BE
:1033C000C85D000810B5034B0100186800F00EF846
:1033D00010BDC04624000020002310B59A4200D141
:1033E00010BDCC5CC4540133F8E7000070B5050093
:1033F000002910D00C1F2368002B00DAE4182800E5
:1034000000F03EF81D4A1368002B05D1636014607C
:10341000280000F036F870BDA34209D92168601871
:103420008342F3D118685B6841182160EEE713000E
:103430005A68002A01D0A242F9D919685818A04246
:103440000BD120680918581819608242E0D1106821
:103450005268411819605A60DAE7A04202D90C2379
:103460002B60D5E721686018824203D1106852684A
:103470004118216062605C60CAE7C046D01300203A
:1034800070477047F8B5C046F8BC08BC9E46704708
:0C349000F8B5C046F8BC08BC9E4670476A
:10349C0002030405060708090A0B0C0D0E0F101089
:1034AC000102030405060708090A0B0C0D0E0F1088
:1034BC000000000000000000F52700084D2800085F
:1034CC0000000000000000004129000859290008F4
:1034DC000000000000000000C5290008C7290008F2
:1034EC0000000000000000000000000000000000D0
:1034FC0000000000000000000000000000000000C0
:10350C0000000000000000000000000000000000AF
:10351C0000000000E003E003E003E003E003E0034D
:10352C00E003E003C003C003C001C001C001C0013F
:10353C00C001000000000000E003E003E003000015
:10354C0000000000000000003C1E3C1E3C1E3C1E07
:10355C003C1E3C1E3C1E0000000000000000000051
:10356C00000000000000000000000000000000004F
:10357C00000000000000000000000000CE01CE039F
:10358C00DE039E039C039C07FF3FFF7F3807380F29
:10359C00780F780F780EFFFFFFFFF01EF01CE01C79
:1035AC00E03CE03DE03900000000000000000000BD
:1035BC00FC03FE0FEE1FE01EE01EE01EE01EE01FEF
:1035CC00E00FE007F003FC01FE01FE01FE01FE012D
:1035DC00FE01FE01FE3DFC3FF00FE001E0010000AA
:1035EC0000000000033E07F78FE78EE79EE3BCE385
:1035FC00B8E7F8E7F0F7E03FC001FF03FF07F30778
:10360C00F30FF31EF33CF338F3787FF03FE0000048
:10361C000000000000000000E007F80F780F781F92
:10362C00781F781F780FF00FE00F801FC37FC3FB4C
:10363C00E7F3F7F1F7F0FFF07FF03EF87F7CFF3F08
:10364C00EF1F00000000000000000000E003E0039A
:10365C00E003E003E003C003C00100000000000031
:10366C00000000000000000000000000000000004E
:10367C00000000000000000000000000000000003E
:10368C003F007C00F001E001C003C0078007800709
:10369C00800F000F000F000F000F000F000F800FA6
:1036AC0080078007C007C003E001F0017C003F00E9
:1036BC000F000000007E001FC007C003E001F001F6
:1036CC00F000F000F80078007800780078007800BE
:1036DC007800F800F000F000F001E001C003C00732
:1036EC00001F007E00780000E003C003C001CE394B
:1036FC00FF3F7F3F20037003F807780F3C1F38060D
:10370C0000000000000000000000000000000000AD
:10371C00000000000000000000000000000000009D
:10372C000000000000000000C001C001C001C00189
:10373C00C001C001C001FFFFFFFFC001C001C001FB
:10374C00C001C001C001000000000000000000002A
:10375C00000000000000000000000000000000005D
:10376C00000000000000000000000000000000004D
:10377C000000E003E003E003E003E001E001E0010E
:10378C00C0018003000000000000000000000000E9
:10379C0000000000000000000000FE3FFE3F0000A3
:1037AC00000000000000000000000000000000000D
:1037BC0000000000000000000000000000000000FD
:1037CC0000000000000000000000000000000000ED
:1037DC0000000000000000000000E003E003E00334
:1037EC00E003000000000000000000000F000F00CC
:1037FC001E001E003C003C0078007800F000F00039
:10380C00E001E001C003C00380078007000F000F38
:10381C00001E001E003C003C0078007800F0000008
:10382C00F007F80F7C1F3E3E1E3C1F7C1F7C0F7860
:10383C000F780F780F780F780F780F781F7C1F7C1C
:10384C001E3C3E3E7C1FF80FF007000000000000FD
:10385C0000000000F000F007F03FF03FF001F00135
:10386C00F001F001F001F001F001F001F001F001C4
:10387C00F001F001F001F001F001FF3FFF3F00000B
:10388C000000000000000000E00FF83F7C3C3C0012
:10389C003E003E003E003C003C007C00F800F00185
:1038AC00E003C0078007000F001E003E003CFE3FF7
:1038BC00FE3F00000000000000000000F00FF81FA9
:1038CC007C1C3E003E003E003C003C00F800F00F2B
:1038DC00F80F7C003E001E001E001E001E003E0065
:1038EC007C1CF81FE01F000000000000000000001E
:1038FC007800F800F800F801F803F807F807780FDB
:10390C00781E781E783C78787878FFFFFFFF780077
:10391C007800780078007800780000000000000043
:10392C0000000000FC1FFC1FFC1F001E001E001EE0
:10393C00001E001EE01FF81FFC007C003E003E0035
:10394C001E003E003E003C007C1CF81FE01F0000E7
:10395C000000000000000000FC01FE078E0F001F9D
:10396C00001E003E003C003CF83DFC3F3E7F1F7EAD
:10397C000F3C0F3C0F3C0F3C0F3E1F1E3E1FFC0F1D
:10398C00F00300000000000000000000FF3FFF3FBC
:10399C00FF3F0F001E001E003C0038007800F000B6
:1039AC00F000E001E001C003C0038007800F800F2E
:1039BC00000F001F001F00000000000000000000AE
:1039CC00F807FC0F3E1F1E1E1E3E1E3E1E1E3C1FF9
:1039DC00F80FF007F80FFC1E3E3E1F3C1F7C0F7CBF
:1039EC000F7C1F3C3E3FFC1FF00700000000000056
:1039FC0000000000F007F80F7C1E3E3C1E3C1F7CB4
:103A0C001F7C1F7C1F7C1F3C3F3EFF1FEF071F00CE
:103A1C001E001E003E003C00F838F03FE01F000086
:103A2C00000000000000000000000000000000008A
:103A3C0000000000E003E003E003E00300000000EE
:103A4C0000000000000000000000E003E003E003C1
:103A5C00E003000000000000000000000000000077
:103A6C000000000000000000E003E003E003E003BE
:103A7C000000000000000000000000000000E00357
:103A8C00E003E003E003E001E001E001C003800398
:103A9C0000000000000000000000000003000F0008
:103AAC003F00FC00F003C00F003F00FE003FC00FC2
:103ABC00F003FC003F000F000300000000000000BA
:103ACC0000000000000000000000000000000000EA
:103ADC000000000000000000FFFFFFFF00000000DE
:103AEC000000FFFFFFFF00000000000000000000CE
:103AFC0000000000000000000000000000000000BA
:103B0C000000000000E000F8007E801FE007F801D4
:103B1C007E001F007E00F801E007801F007E00F889
:103B2C0000E000000000000000000000F01FFC3F5F
:103B3C003E381F381F381E001E003C007800F00075
:103B4C00E001C003C003C007C00700000000000074
:103B5C00C007C007C0070000000000000000000004
:103B6C00F803FE0F1E1F0F3E7F3CFF78EF79C773E3
:103B7C00C7F38FF38FF38FF39FF39FF3FF73FF7BE9
:103B8C00F779003C1C1FFC0FF8030000000000003C
:103B9C0000000000000000000000E003E003F0075C
:103BAC00F007F007780F780F7C0E3C1E3C1E3E3C55
:103BBC00FE3FFF3F1F780F780FF007F007F0000073
:103BCC000000000000000000000000000000F83FB2
:103BDC00FC3F3E3C1E3C1E3C1E3C3E3C7C3CF03FB5
:103BEC00F83F7E3C1F3C1F3C0F3C0F3C1F3CFE3FF4
:103BFC00F83F000000000000000000000000000082
:103C0C000000FF01FF07871F003E003C007C00788E
:103C1C000078007800780078007C007C003E003F43
:103C2C00831FFF07FF0100000000000000000000E0
:103C3C00000000000000F07FFC7F7E781F781F786A
:103C4C000F780F780F780F780F780F780F780F7830
:103C5C001F781E787E78F87FE07F0000000000005F
:103C6C0000000000000000000000FF3FFF3F003E8E
:103C7C00003E003E003E003E003EFE3FFE3F003E4A
:103C8C00003E003E003E003E003EFF3FFF3F000076
:103C9C000000000000000000000000000000FF1FFA
:103CAC00FF1F001E001E001E001E001E001EFF1F18
:103CBC00FF1F001E001E001E001E001E001E001E08
:103CCC00001E0000000000000000000000000000CA
:103CDC000000FE03FF0F871F003E007C007C007875
:103CEC0000F800F87FF87FF80F780F7C0F7C0F3E00
:103CFC008F1FFF0FFE0300000000000000000000FB
:103D0C000000000000001F7C1F7C1F7C1F7C1F7CA0
:103D1C001F7C1F7C1F7CFF7FFF7F1F7C1F7C1F7CF9
:103D2C001F7C1F7C1F7C1F7C1F7C00000000000080
:103D3C0000000000000000000000FF3FFF3FE00318
:103D4C00E003E003E003E003E003E003E003E0034F
:103D5C00E003E003E003E003E003FF3FFF3F00006C
:103D6C000000000000000000000000000000FC1F2C
:103D7C00FC1F7C007C007C007C007C007C007C00B8
:103D8C007C007C007C007C0078007800F838F03FE8
:103D9C00C03F000000000000000000000000000018
:103DAC0000001F3C1E3C3C3C783CF03CE03DE03FBE
:103DBC00C03F803FC03FE03FF03DF03C783C7C3C56
:103DCC003E3C1F3C0F3C00000000000000000000C7
:103DDC00000000000000003E003E003E003E003EA1
:103DEC00003E003E003E003E003E003E003E003ED7
:103DFC00003E003E003EFF3FFF3F00000000000081
:103E0C00000000000000000000001FF81FFC1FFC59
:103E1C003FFE3FFE3FFE7FFF77FF77FFF7F7E7F7A9
:103E2C00E7F3E7F3C7F307F007F007F007F000003C
:103E3C0000000000000000000000000000000F7CEB
:103E4C000F7C0F7E0F7F0F7F8F7F8F7FCF7FEF7B5E
:103E5C00EF79FF79FF78FF787F783F783F781F788C
:103E6C001F780000000000000000000000000000AF
:103E7C000000F007FC1F3E3E1F7C0F780F780FF8F8
:103E8C000FF80FF80FF80FF80FF80F780F781F7C5A
:103E9C003E3EFC1FF0070000000000000000000088
:103EAC00000000000000FC3FFF3F1F3E0F3E0F3E96
:103EBC000F3E0F3E1F3E3F3EFC3FF03F003E003E9C
:103ECC00003E003E003E003E003E000000000000B0
:103EDC0000000000000000000000F007FC1F3E3E48
:103EEC001F7C0F780F780FF80FF80FF80FF80FF8FA
:103EFC000FF80F780F781F7C3E3EFC1FF8077C00F4
:103F0C003F000F0003000000000000000000F03F25
:103F1C00FC3F7E3C3E3C1E3C1E3C3E3C3C3CFC3C48
:103F2C00F03FE03FF03DF83C7C3C3E3C1E3C1F3CEF
:103F3C000F3C00000000000000000000000000002A
:103F4C000000FC07FE1F0E3E003C003C003C003E07
:103F5C00C01FF80FFE037F001F000F000F001F2073
:103F6C003E3CFC3FF01F0000000000000000000081
:103F7C00000000000000FFFFFFFFE003E003E00390
:103F8C00E003E003E003E003E003E003E003E0030D
:103F9C00E003E003E003E003E003000000000000A6
:103FAC00000000000000000000000F7C0F7C0F7C64
:103FBC000F7C0F7C0F7C0F7C0F7C0F7C0F7C0F7C9D
:103FCC000F7C0F7C1E3C1E3C3E3EFC1FF00700008D
:103FDC00000000000000000000000000000007F0DE
:103FEC0007F007F80F780F7C1E3C1E3C1E3E3C1E53
:103FFC003C1F781F780FF80FF007F007F007E0036D
:10400C00E0030000000000000000000000000000C1
:10401C00000003E003F003F007F0E7F3E7F3E7F346
:10402C00E773F77BF77FFF7F7F7F7F7F7E7F7E3F0E
:10403C003E3E3E3E3E3E0000000000000000000000
:10404C0000000000000007F80F7C1E3E3E3E3C1FA7
:10405C00F80FF007E007E003E003F007F80F7C0F20
:10406C007C1E3E3C1F780F780FF000000000000013
:10407C000000000000000000000007F807780F7C2B
:10408C001E3C1E3E3C1F780FF80FF007E003E003C8
:10409C00E003E003E003E003E003E003E0030000DF
:1040AC000000000000000000000000000000FF7F86
:1040BC00FF7F0F001F003E007C00F800F000E001C5
:1040CC00E003C007800F000F001E003E007CFF7F46
:1040DC00FF7F00000000000000000000FF078007C9
:1040EC00800780078007800780078007800780078C
:1040FC00800780078007800780078007800780077C
:10410C0080078007800780078007FF07FF070000F4
:10411C0000780078003C003C001E001E000F000FD1
:10412C0080078007C003C003E001E001F000F0004D
:10413C00780078003C003C001E001E000F000F00B1
:10414C0007000000F07FF000F000F000F000F0003D
:10415C00F000F000F000F000F000F000F000F000D3
:10416C00F000F000F000F000F000F000F000F000C3
:10417C00F000F07FF07F0000C000C001C001E00340
:10418C00E003F007F0077807780F380F3C1E3C1E51
:10419C001E3C1E3C0F380F78077800000000000012
:1041AC000000000000000000000000000000000003
:1041BC0000000000000000000000000000000000F3
:1041CC0000000000000000000000000000000000E3
:1041DC00000000000000FFFFFFFF000000000000D7
:1041EC00F0000000000000000000000000000000D3
:1041FC0000000000000000000000000000000000B3
:10420C0000000000000000000000000000000000A2
:10421C000000000000000000000000000000000092
:10422C00F80FFC3F7C3C3E003E003E00FE07FE1FAC
:10423C003E3E3E7C3E783E7C7E7CFF3FCF1F0000A6
:10424C000000000000000000003C003C003C003C72
:10425C00003C003CF83DFE3F3E3F1F3E0F3C0F3CF8
:10426C000F3C0F3C0F3C0F3C1F3C1E3C3E3FFC3FA9
:10427C00F03B000000000000000000000000000007
:10428C000000000000000000FE03FF0F871F003E2F
:10429C00003E003C007C007C007C003C003E003E6C
:1042AC00871FFF0FFE03000000000000000000004D
:1042BC001F001F001F001F001F001F00FF07FF1F14
:1042CC003F3E1F3C1F7C1F7C1F7C1F781F781F7C70
:1042DC001F7C3F3C7F3EFF1FDF0F000000000000F3
:1042EC0000000000000000000000000000000000C2
:1042FC00F803FC0F3E1F1E3E1F3C1F7CFF7FFF7F01
:10430C00007C007C003C003E071FFF0FFE030000FA
:10431C000000000000000000FF01E103C003C00723
:10432C00C007C007FF7FFF7FC007C007C007C007DB
:10433C00C007C007C007C007C007C007C007C00739
:10434C00C00700000000000000000000000000009A
:10435C000000000000000000EF07FF1F7F3E1F3C25
:10436C001F7C1F7C1F781F781F781F7C1F7C3F3C95
:10437C007F3EFF1FDF0F1E001E001E007C38F83F23
:10438C00003C003C003C003C003C003CFC3DFE3F43
:10439C009E3F1F3F1F3E1F3C1F3C1F3C1F3C1F3CB2
:1043AC001F3C1F3C1F3C1F3C1F3C0000000000003A
:1043BC0000000000F001F00100000000000000000F
:1043CC00E07FE07FE001E001E001E001E001E001DD
:1043DC00E001E001E001E001E001E001E0010000AA
:1043EC000000000000000000F800F80000000000D1
:1043FC0000000000F83FF83FF800F800F800F80063
:10440C00F800F800F800F800F800F800F800F800E0
:10441C00F800F800F800F000F071E07F003C003C80
:10442C00003C003C003C003C1F3C3E3C7C3CF83CCF
:10443C00F03DE03DC03FC03FE03FF03DF83C7C3CF0
:10444C003E3C1F3C1F3C0000000000000000000030
:10445C00F07FF001F001F001F001F001F001F0014A
:10446C00F001F001F001F001F001F001F001F001B8
:10447C00F001F001F001F001F0010000000000007B
:10448C000000000000000000000000000000000020
:10449C009EF7FFFFFFFFFFFFE7FBE7F9C7F1C7F14F
:1044AC00C7F1C7F1C7F1C7F1C7F1C7F1C7F10000F8
:1044BC0000000000000000000000000000000000F0
:1044CC0000000000FC3DFE3F9E3F1F3F1F3E1F3C77
:1044DC001F3C1F3C1F3C1F3C1F3C1F3C1F3C1F3CF8
:1044EC001F3C000000000000000000000000000065
:1044FC000000000000000000F007FC1F3E3E1F3CC7
:10450C001F7C0F780F780F780F780F781F7C1F3C6B
:10451C003E3EFC1FF0070000000000000000000001
:10452C00000000000000000000000000F83DFE3F0D
:10453C003E3F1F3E0F3C0F3C0F3C0F3C0F3C0F3CD3
:10454C001F3C1E3E3E3FFC3FF83F003C003C003C05
:10455C00003C003C000000000000000000000000D7
:10456C00EE07FE1F7E3E1E3C1E7C1E781E781E78BB
:10457C001E781E781E7C3E7C7E3EFE1FDE0F1E00CB
:10458C001E001E001E001E000000000000000000A7
:10459C00000000007F1FFF1FE71FC71F871F001FA2
:1045AC00001F001F001F001F001F001F001F001F07
:1045BC00001F0000000000000000000000000000D0
:1045CC000000000000000000FC07FE1F0E1E003E55
:1045DC00003E003FE01FFC07FE003E001E001E00D8
:1045EC003E3CFC3FF01F00000000000000000000FB
:1045FC00000000000000800780078007FF7FFF7F1E
:10460C008007800780078007800780078007800766
:10461C0080078007C007FF03FF01000000000000B7
:10462C00000000000000000000000000000000007E
:10463C001E3C1E3C1E3C1E3C1E3C1E3C1E3C1E3C9E
:10464C001E3C1E3C3E3C7E3CFE3EFE1FDE0F000030
:10465C00000000000000000000000000000000004E
:10466C000000000007F00F780F781E3C1E3C1E3E29
:10467C003C1E3C1E780F780FF00FF007F007E0039C
:10468C00E00300000000000000000000000000003B
:10469C00000000000000000003F0E3F1E3F3E7F397
:1046AC00F7F3F7F3F77F777F7F7F7F7F7F7F3E3E48
:1046BC003E3E3E3E3E3E000000000000000000007A
:1046CC000000000000000000000000000F7C1E3EF7
:1046DC003C3E3C1FF80FF007F007E003F007F8072B
:1046EC00F80F7C1E3E3E1F3C1F78000000000000AF
:1046FC0000000000000000000000000000000000AE
:10470C0007F80F780F7C1E3C1E3C3C1E3C1E3C1FC9
:10471C00780FF80FF007F007E003E003C003C003C5
:10472C00C0038007800F007F000000000000000025
:10473C0000000000FF3FFF3F1F003E007C00F80020
:10474C00F001E003C007800F001F001E003CFF7F3C
:10475C00FF7F00000000000000000000FE01E003ED
:10476C00C003C003C003C003E001E001E001C001CD
:10477C00C003803F803FC003C001E001E001E001C5
:10478C00C003C003C003C003E003FE017E000000B1
:10479C00C001C001C001C001C001C001C001C00105
:1047AC00C001C001C001C001C001C001C001C001F5
:1047BC00C001C001C001C001C001C001C001C001E5
:1047CC00C0010000C03FE003E001E001E001E001B6
:1047DC00C001C003C003C001E001FE00FE00E00107
:1047EC00C001C003C003C001E001E001E001E00131
:1047FC00E003C03F003F000000000000000000008C
:10480C000000000000000000000000000000073F56
:10481C00C77FE773FFF17EF000000000000000008E
:10482C00000000000000000000000000000000007C
:10483C00000000000000000000000000000000006C
:10484C00000000000000000000000000000000005C
:10485C000000000C000C000C000C000C000C000CF8
:10486C00000C000C000C000C0000000C000C0000F4
:10487C00000000000000001B001B001B001B001BA5
:10488C00000000000000000000000000000000001C
:10489C000000000000000000000080198019801941
:1048AC008019C07FC07F80190033C07FC07F003368
:1048BC000033003300330000000000000000001E35
:1048CC00003F807580650074003C001E0007800569
:1048DC00806580658075003F001E000400040000A8
:1048EC000000007000D840D8C0D880D900730006F2
:1048FC00000C801BC036C066C046C006800300009A
:10490C00000000000000001E003F003300330033A5
:10491C00001E000CC03CC066806380618063C03E9A
:10492C00801C0000000000000000000C000C000CBB
:10493C00000C000C00000000000000000000000053
:10494C0000000000000000000000000080000001DA
:10495C000003000600060004000C000C000C000C08
:10496C00000C000C0004000600060003000180008F
:10497C00002000100018000C000C000400060006BB
:10498C0000060006000600060004000C000C0018CF
:10499C00001000200000000C002D003F001E003312
:1049AC0000000000000000000000000000000000FB
:1049BC000000000000000000000000000000000CDF
:1049CC00000C000C000CC0FFC0FF000C000C000C15
:1049DC00000C0000000000000000000000000000BF
:1049EC0000000000000000000000000000000000BB
:1049FC00000000000000000C000C00040004000883
:104A0C00000000000000000000000000000000009A
:104A1C000000001E001E000000000000000000004E
:104A2C00000000000000000000000000000000007A
:104A3C000000000000000000000000000000000C5E
:104A4C00000C000000000000000000030003000345
:104A5C000006000600060006000C000C000C000C02
:104A6C000018001800180000000000000000001ED4
:104A7C00003F0033806180618061806D806D80615A
:104A8C00806180610033003F001E000000000000C8
:104A9C0000000006000E001E003600260006000670
:104AAC0000060006000600060006000600060000D0
:104ABC00000000000000001E003F807380618061D8
:104ACC00800100030006000C001800300060807F9D
:104ADC00807F0000000000000000001C003E00630E
:104AEC0000630003000E000E000380018001806152
:104AFC008073003F001E0000000000000000000654
:104B0C00000E000E001E001E001600360036006659
:104B1C00807F807F00060006000600000000000079
:104B2C000000007F007F006000600060006E007F6E
:104B3C0080638001800180618073003F001E000053
:104B4C00000000000000001E003F80338061006008
:104B5C00006E007F80738061806180618033003FD4
:104B6C00001E0000000000000000807F807F80019C
:104B7C000003000300060006000C000C000C0008EB
:104B8C000018001800180000000000000000001EB3
:104B9C00003F8063806180610021001E003F8061C6
:104BAC00806180618061003F001E000000000000F9
:104BBC000000001E003F0073806180618061807383
:104BCC00803F801D800180610073003F001E00004B
:104BDC000000000000000000000000000000000CBD
:104BEC00000C000000000000000000000000000CA1
:104BFC00000C00000000000000000000000000009D
:104C0C0000000000000C000C000000000000000080
:104C1C000000000C000C0004000400080000000060
:104C2C000000000080008003000E00380060003897
:104C3C00000E800380000000000000000000000057
:104C4C0000000000000000000000807F807F00005A
:104C5C000000807F807F000000000000000000004A
:104C6C000000000000000000000000000040007088
:104C7C00001C000780010007001C007000400000B1
:104C8C0000000000000000000000001F803FC07109
:104C9C00C060C000C00180030007000E000C000CB7
:104CAC000000000C000C0000000000000000001EC2
:104CBC00003F803180718063806F806D806D806F6C
:104CCC00806700600032003E001C00000000000005
:104CDC000000000E000E001B001B001B001B80318F
:104CEC008031803F803F8031C060C060C060000078
:104CFC00000000000000007C007E00630063006385
:104D0C000063007E007E0063806180618063007FB1
:104D1C00007E0000000000000000001E003F8031FB
:104D2C008061006000600060006000600060806175
:104D3C008031003F001E0000000000000000007CDD
:104D4C00007F00638063806180618061806180612D
:104D5C00806100630063007E007C000000000000A6
:104D6C000000807F807F0060006000600060007F3A
:104D7C00007F0060006000600060807F807F00002A
:104D8C00000000000000807F807F006000600060F9
:104D9C000060007F007F00600060006000600060C9
:104DAC0000600000000000000000001E003F803189
:104DBC00806100600060006080638063806180615E
:104DCC008031803F001E0000000000000000806168
:104DDC0080618061806180618061807F807F806183
:104DEC008061806180618061806100000000000052
:104DFC000000003F003F000C000C000C000C000CED
:104E0C00000C000C000C000C000C003F003F0000DC
:104E1C000000000000008001800180018001800101
:104E2C008001800180018001806180618073003F7E
:104E3C00001E0000000000000000C06080610063E4
:104E4C0000660066006C0078007C006600660063FB
:104E5C0080618061C0600000000000000000006004
:104E6C000060006000600060006000600060006036
:104E7C00006000600060807F807F00000000000008
:104E8C000000C071C071C07BC07AC06AC06AC06EBD
:104E9C00C064C060C060C060C060C060C060000022
:104EAC000000000000008071807180798079807929
:104EBC00806D806D806D80658067806780678063A2
:104ECC0080630000000000000000001E003F003363
:104EDC0080618061806180618061806180618061BE
:104EEC000033003F001E0000000000000000007EA8
:104EFC00007F80638061806180618063007F007EC1
:104F0C0000600060006000600060000000000000B5
:104F1C000000001E003F0033806180618061806171
:104F2C0080618061806580670033803F401E000097
:104F3C00000000000000007E007F806380618061C3
:104F4C008063007F007E0066006300638061806187
:104F5C00C0600000000000000000000E001F803147
:104F6C00803100300038001E0007800380618061B2
:104F7C008031003F001E0000000000000000C0FF58
:104F8C00C0FF000C000C000C000C000C000C000C02
:104F9C00000C000C000C000C000C000000000000C9
:104FAC0000008061806180618061806180618061CE
:104FBC0080618061806180618073003F001E000011
:104FCC00000000000000C060C060C0608031803113
:104FDC008031001B001B001B001B000E000E000E7E
:104FEC0000040000000000000000C0C0C0C0C0C031
:104FFC00C0C0C0C0C0CC804C804C805E80528052FF
:10500C008073806180610000000000000000C0C05F
:10501C00806080610033003B001E000C000C001E01
:10502C00001F003B80718061C0C0000000000000C8
:10503C000000C0C08061806100330033001E001E80
:10504C00000C000C000C000C000C000C000C000000
:10505C00000000000000803F803F8001000300033F
:10506C000006000C000C0018001800300060807F57
:10507C00807F000000000000000F000F000C000CEF
:10508C00000C000C000C000C000C000C000C000CB4
:10509C00000C000C000C000C000F000F000000189E
:1050AC0000180018000C000C000C000C0006000688
:1050BC0000060006000300030003000000000000CF
:1050CC00001E001E00060006000600060006000674
:1050DC000006000600060006000600060006000694
:1050EC00001E001E0000000C000C001E00120033FD
:1050FC0000338061806100000000000000000000AF
:10510C000000000000000000000000000000000093
:10511C000000000000000000000000000000000083
:10512C000000000000000000E0FF0000000000385C
:10513C000018000C0000000000000000000000003F
:10514C000000000000000000000000000000000053
:10515C0000000000000000000000001F803F806184
:10516C008001801F803F80618063807FC038000099
:10517C000000000000000060006000600060006E35
:10518C00007F807380618061806180618073007FAB
:10519C00006E000000000000000000000000000095
:1051AC000000001E003F8073806100600060806121
:1051BC008073003F001E0000000000000000800112
:1051CC00800180018001801D803F8073806180613F
:1051DC00806180618073803F801D000000000000B2
:1051EC0000000000000000000000001E003F0073E3
:1051FC008061807F807F00608071003F001E000016
:10520C00000000000000C007C00F000C000C807FE5
:10521C00807F000C000C000C000C000C000C000C2F
:10522C00000C000000000000000000000000000066
:10523C00801D803F8073806180618061806180739C
:10524C00803F801D80018063007F003E0000006075
:10525C00006000600060006F807F80718061806101
:10526C0080618061806180618061000000000000CD
:10527C0000000006000600000000003E003E000694
:10528C0000060006000600060006000600060000E8
:10529C00000000000006000600000000003E003E7A
:1052AC0000060006000600060006000600060006C2
:1052BC0000060046007E003C0000006000600060BC
:1052CC000060806100630066006C007C0076006307
:1052DC0000638061C0600000000000000000003E20
:1052EC00003E00060006000600060006000600064A
:1052FC000006000600060006000600000000000084
:10530C000000000000000000000080DDC0FFC0CEE7
:10531C00C0CCC0CCC0CCC0CCC0CCC0CCC0CC0000AD
:10532C000000000000000000000000000000006F02
:10533C00807F80718061806180618061806180612B
:10534C008061000000000000000000000000000070
:10535C000000001E003F807380618061806180616D
:10536C008073003F001E00000000000000000000E1
:10537C0000000000006E007F80738061806180619E
:10538C0080618073007F006E0060006000600060D0
:10539C000000000000000000801D803F80738061D1
:1053AC008061806180618073803F801D80018001FD
:1053BC008001800100000000000000000000006778
:1053CC00803F0039003000300030003000300030B9
:1053DC000030000000000000000000000000000091
:1053EC000000001E803F80610060007F803F8001D4
:1053FC008061007F001E0000000000000000000023
:10540C00000800180018007F007F00180018001812
:10541C00001800180018801F800F0000000000000A
:10542C0000000000000000000000806180618061CD
:10543C0080618061806180618063807F803D00003D
:10544C000000000000000000000000000000C06030
:10545C00803180318031001B001B001B000E000EC0
:10546C00000600000000000000000000000000002A
:10547C00000080DD80DD80DD005500550055007793
:10548C000077002200220000000000000000000055
:10549C00000000000000806100330033001E000C8F
:1054AC00000C001E0033003380610000000000007F
:1054BC00000000000000000080618061803100333A
:1054CC000033001B001B001B000E000E000E001C06
:1054DC00007C007000000000000000000000C07F95
:1054EC00C07F800100030006000C00180030C07F54
:1054FC00C07F00000000000080038007000600064B
:10550C00000600060006000E001C001C000E000623
:10551C000006000600060006800780030006000651
:10552C00000600060006000600060006000600063F
:10553C00000600060006000600060006000600062F
:10554C000038003C000C000C000C000C000C000E91
:10555C0000070007000E000C000C000C000C000CE7
:10556C00003C0038000000000000000000000000BB
:10557C0000008038807F0047000000000000000021
:10558C00000000000000000000000000000000000F
:10559C0000000000000000000000000000100010DF
:1055AC00001000100010001000000010000000009F
:1055BC000028002800280000000000000000000067
:1055CC000000000000240024007C00240048007C23
:1055DC00004800480000000000380054005000381B
:1055EC000014005400540038001000000020005437
:1055FC00005800300028005400140008000000007F
:10560C000010002800280010003400480048003426
:10561C00000000000010001000100000000000004E
:10562C000000000000000000000800100020002016
:10563C000020002000200020001000080020001096
:10564C0000080008000800080008000800100020EE
:10565C0000100038001000280000000000000000BE
:10566C00000000000000000000100010007C001082
:10567C00001000000000000000000000000000000E
:10568C0000000000000000100010001000000000DE
:10569C0000000000000000380000000000000000C6
:1056AC0000000000000000000000000000000010DE
:1056BC00000000000008000800100010001000108E
:1056CC00002000200000000000380044004400547A
:1056DC00004400440044003800000000001000307A
:1056EC00005000100010001000100010000000000E
:1056FC000038004400440004000800100020007C26
:10570C0000000000003800440004001800040004ED
:10571C000044003800000000000800180028002891
:10572C000048007C0008000800000000007C0040DD
:10573C000040007800040004004400380000000021
:10574C000038004400400078004400440044003815
:10575C0000000000007C0004000800100010002075
:10576C0000200020000000000038004400440038F5
:10577C00004400440044003800000000003800449D
:10578C0000440044003C00040044003800000000C9
:10579C0000000000001000000000000000000010DD
:1057AC0000000000000000000000001000000000DD
:1057BC00000000100010001000000000000C003071
:1057CC0000400030000C0000000000000000000051
:1057DC000000007C0000007C0000000000000000C5
:1057EC0000000000006000180004001800600000B9
:1057FC0000000000003800440004000800100010F5
:10580C00000000100000000000380044004C005460
:10581C00005C004000400038000000000010002830
:10582C00002800280028007C0044004400000000F0
:10583C0000780044004400780044004400440078A0
:10584C0000000000003800440040004000400040D0
:10585C000044003800000000007000480044004480
:10586C00004400440048007000000000007C004030
:10587C000040007C004000400040007C0000000024
:10588C00007C004000400078004000400040004098
:10589C00000000000038004400400040005C004460
:1058AC000044003800000000004400440044007C28
:1058BC000044004400440044000000000038001084
:1058CC000010001000100010001000380000000044
:1058DC000004000400040004000400040044003828
:1058EC0000000000004400480050006000500048D8
:1058FC000048004400000000004000400040004010
:10590C00004000400040007C000000000044006C9F
:10591C00006C0054004400440044004400000000AB
:10592C0000440064006400540054004C004C0044DB
:10593C0000000000003800440044004400440044CF
:10594C00004400380000000000780044004400448B
:10595C000078004000400040000000000038004487
:10596C00004400440044004400540038000400008B
:10597C00007800440044004400780048004800448B
:10598C000000000000380044004000300008000413
:10599C000044003800000000007C001000100010D3
:1059AC000010001000100010000000000044004423
:1059BC00004400440044004400440038000000004F
:1059CC000044004400440028002800280010001067
:1059DC000000000000440044005400540054006CCB
:1059EC0000280028000000000044002800280010B7
:1059FC00001000280028004400000000004400446F
:105A0C0000280028001000100010001000000000FA
:105A1C00007C000400080010001000200040007CF6
:105A2C000000000000180010001000100010001002
:105A3C0000100010001000180020002000100010B2
:105A4C0000100010000800080000000000300010DA
:105A5C00001000100010001000100010001000309A
:105A6C000010002800280044000000000000000086
:105A7C00000000000000000000000000000000001A
:105A8C0000000000000000FE0020001000000000DC
:105A9C0000000000000000000000000000000000FA
:105AAC0000380044003C0044004C0034000000006E
:105ABC00004000400058006400440044006400585A
:105ACC0000000000000000000038004400400040CE
