:020000040800F2
:10000000002000201D320008A1310008A3310008A3
:1000100000000000000000000000000000000000E0
:100020000000000000000000000000004521000862
:100030000000000000000000B1210008A531000808
:100040006D320008000000006D3200086D320008BB
:100050006D3200086D3200086D3200086D32000804
:10006000000000006D3200086D3200086D3200089B
:100070006D320008AD3100086D320008000000004C
:100080006D3200086D320008000000006D3200087B
:100090006D3200086D3200086D3200086D320008C4
:1000A0006D3200086D3200086D3200086D320008B4
:1000B0006D32000800000000000000000000000099
:1000C00010B5064C2378002B07D1054B002B02D02E
:1000D000044800E000BF0123237010BD8800002009
:1000E0000000000018360008084B10B5002B03D0A4
:1000F0000749084800E000BF07480368002B00D10B
:1001000010BD064B002BFBD09847F9E7000000001C
:100110008C00002018360008880000200000000035
:10012000002243088B4274D303098B425FD3030A36
:100130008B4244D3030B8B4228D3030C8B420DD349
:10014000FF22090212BA030C8B4202D312120902D7
:1001500065D0030B8B4219D300E0090AC30B8B4215
:1001600001D3CB03C01A5241830B8B4201D38B03C3
:10017000C01A5241430B8B4201D34B03C01A524168
:10018000030B8B4201D30B03C01A5241C30A8B42AB
:1001900001D3CB02C01A5241830A8B4201D38B0296
:1001A000C01A5241430A8B4201D34B02C01A52413A
:1001B000030A8B4201D30B02C01A5241CDD2C309AC
:1001C0008B4201D3CB01C01A524183098B4201D328
:1001D0008B01C01A524143098B4201D34B01C01A13
:1001E000524103098B4201D30B01C01A5241C3088B
:1001F0008B4201D3CB00C01A524183088B4201D3FA
:100200008B00C01A524143088B4201D34B00C01AE5
:100210005241411A00D20146524110467047FFE751
:1002200001B5002000F006F802BDC0460029F7D055
:1002300076E770477047C04610B5064A136810212C
:100240000B431360002002F06FFF02F0CFFE00208E
:1002500010BDC04600200240024A136801331360FB
:100260007047C046C8170020014B18687047C04649
:10027000C817002030B583B00190FFF7F5FF0500E7
:10028000019C631C00D00134FFF7EEFF401BA0422D
:10029000FAD303B030BD000070B5002811DB83082D
:1002A000144DC0339B005C5903221040C000FC3247
:1002B00016008640B44389010A40824022435A51C5
:1002C00070BDC0B20F230340083B9B0806339B0060
:1002D000094A944663445D6803221040C000FF242D
:1002E00022008240954389010C4084402C435C608D
:1002F000E6E7C04600E100E000ED00E01F23184003
:100300001E3B8340014A13607047C04600E100E095
:1003100001380A4B98420FD8094A50600948036ACD
:100320001B021B0AC02109060B43036200239360D2
:1003300007331360002070470120FCE7FFFFFF0038
:1003400010E000E000ED00E0042805D0054A136845
:1003500004218B4313607047024A136804210B4346
:100360001360F8E710E000E0F0B5C64600B582B0D3
:1003700000237EE0DF080837BF003E5807251D40F8
:10038000AD000F24AC40A6430C69AC4025003543BA
:100390003D507EE0856864462540CE68BE403543CA
:1003A000856045682C004546AC434D682E09012503
:1003B00035409D402C434460C46865462C408D68A0
:1003C000BD402C43C4604C68E40051D5434DAE6938
:1003D00001242643AE61AD692C400194019C9C0828
:1003E000A51CAD003E4EAE5903251D40AD000F27A4
:1003F000AF40BE439027FF05B84265D0394FB842A1
:1004000064D0394FB84263D0384FB8425AD005272C
:10041000AF403D0035430234A400314EA551344C69
:100420002568D44326002E404F68FF0301D51543AD
:100430002E002F4D2E606D682E0026404F68BF03A2
:1004400001D515432E002A4D6E60AD682E00264062
:100450004F68FF0201D515432E00254DAE60ED68B3
:100460002C404E68B60201D52A431400204AD460BD
:1004700001330A681400DC402CD001249C40A046C3
:100480002240F5D04D68022D00D173E7122D00D126
:1004900070E706685F0003252C00BC40E443A446D7
:1004A00026404C682540BD40354305604D686E1EB2
:1004B000012E00D86EE7112D00D16BE7122D00D070
:1004C0007AE767E70327A3E70027A1E701279FE76C
:1004D00002279DE702B004BC9046F0BD0010024028
:1004E000000001400004004800080048000C0048DB
:1004F0000004014003690B4201D100207047012034
:10050000FCE703689A69920701D500229A620368A2
:100510009A69D20703D49A6901210A439A61704704
:1005200030B504686068064D28408905890D1204BD
:1005300011430B43039A13430343636030BDC0462A
:10054000009800FC70B504000E00150003689B695C
:10055000DB0616D523689A69920614D4731CF9D069
:10056000002E04D0FFF780FE401B8642F2D22022EC
:100570004123E25400232232A354023AA35403201D
:1005800018E0002016E01022DA6123682025DD61E2
:100590002000FFF7B6FF2268536807490B405360FD
:1005A000042363643D33E55400234222A354023AFA
:1005B000A354012070BDC04600E800FE70B50400E1
:1005C0000D00160023689B699B071CD4320029008C
:1005D0002000FFF7B7FF002817D16B1CF2D0002DC9
:1005E00004D0FFF741FE801B8542EBD2636C2022D2
:1005F000134363644123E25400232232A354023A9A
:10060000A354032000E0002070BD0120FCE7F8B5F2
:1006100005000F0016001C002B689B693A009A43E6
:1006200013005A425341B34213D1631CF4D0002C3F
:1006300005D0FFF719FE069BC01A8442ECD2202297
:100640004123EA5400232232AB54023AAB54032034
:1006500000E00020F8BD70B582B0040016001D0057
:10066000DAB280239B01009380235B04FFF758FFDD
:10067000079A06992000FFF7A1FF002807D0636CB6
:10068000042B02D0032002B070BD0120FBE7012D36
:100690000ED02368320A9A62079A06992000FFF763
:1006A0008DFF002815D0636C042B10D00320EAE7DF
:1006B0002368F6B29E62079B0093069B002280216E
:1006C0002000FFF7A4FF0028DDD00320DBE7012096
:1006D000D9E72368F6B29E62EDE770B505000C001D
:1006E00016002B689B699B061AD432002100280053
:1006F000FFF728FF002815D1002C04D0FFF7B4FD28
:10070000801B8442EDD26B6C202213436B64412327
:10071000EA5400232232AB54023AAB54032070BD9A
:100720000020FCE70120FAE710B5041E59D0412350
:10073000C35C002B43D024224123E2542268136877
:1007400001218B4313602268274B61680B401361C2
:100750002268936825490B409360E368012B34D0ED
:10076000226884231B02A1680B439360E368022B79
:1007700032D0226851681E4B0B4353602268D36805
:100780001A490B40D3602168236962691343A26947
:1007900012021343CB602268E369216A0B431360A2
:1007A0002268136801210B431360002363641F3127
:1007B0004122A15423630132A354002010BD002222
:1007C0004033C25402F03CFCB5E7226880231B0290
:1007D000A1680B439360C9E72368802212015A6025
:1007E000C7E70120EAE7C046FFFFFFF0FF7FFFFFFA
:1007F00000800002F0B587B007000C00039204935C
:100800000CAB40CB1D884123C35C202B02D00220BF
:1008100007B0F0BD002E00D1C5E0002D00D1C4E02E
:100820002033C35C012B01D10220F1E701224023D8
:10083000C254FFF719FD0590009019230122802171
:1008400009023800FFF7E3FE002801D00320DFE7AC
:1008500021224123FA541F320133FA5400237B64CE
:100860007E627D857B63059B01930E9B0093049BB9
:10087000039A21003800FFF7EEFE00280CD07B6CB5
:10088000042B04D000224023FA540320C0E70022A6
:100890003C33FA540120BBE77B8D9BB2FF2B0BD975
:1008A000FF233B850023009380235B04FF2221006C
:1008B0003800FFF735FE23E07A8D92B23A85D2B246
:1008C0000023009380239B0421003800FFF728FEBB
:1008D00016E07B6C042B01D0032099E7012097E7F9
:1008E0007A8D92B23A85D2B20023009380239B0482
:1008F00021003800FFF714FE7B8D9BB2002B34D013
:10090000059A0E993800FFF759FE0028E1D13A68A0
:100910007B6A591C79621B7893627B8D013B9BB289
:100920007B853B8D013B9BB23B85002BE4D17B8DCE
:100930009BB2002BE0D0059B00930E9B00228021F0
:100940003800FFF764FE002831D17B8D9BB2FF2B6E
:10095000C6D9FF233B850023009380235B04FF223D
:1009600021003800FFF7DCFDC6E7059A0E99380034
:10097000FFF7B3FE002806D07B6C042B01D00320C8
:1009800046E7012044E73B682022DA6139684B687A
:10099000084C23404B604123FA5400232232BB54BD
:1009A000023ABB5434E7012032E7012030E703204C
:1009B0002EE7C04600E800FEF0B54123C35C202BC3
:1009C00001D00220F0BD2033C35C012B1CD0402499
:1009D0000122025541252423435506683368934379
:1009E000336006683368094F3B40336006683368FC
:1009F0001943316001680B6813430B602023435592
:100A0000002303550020DDE70220DBE7FFEFFFFFB7
:100A1000F0B54123C35C202B01D00220F0BD203370
:100A2000C35C012B1AD04024012202554125242306
:100A30004355066833689343336006683368084F4C
:100A40003B4009021943316001680B6813430B6096
:100A500020234355002303550020DFE70220DDE774
:100A6000FFF0FFFF70B582B004000368DB0736D5E6
:100A7000C14B5A680C231340042B28D0BE4B5A6834
:100A80000C231340082B1ED06368012B4BD0002B86
:100A900050D1B94B1A68B9490A401A601A68B84966
:100AA0000A401A606368002B5CD0FFF7DDFB05008D
:100AB000B14B1B689B0312D4FFF7D6FB401B642885
:100AC000F6D90320EAE1AC4B5B68DB03DCD5AA4B2B
:100AD0001B689B0303D56368002B00D1DBE123680F
:100AE0009B0762D5A44B5B680C221A424CD0A24BE8
:100AF0005A680C231340082B42D0E368002B76D0B1
:100B00009D4A136801210B431360FFF7ADFB0500FD
:100B1000994B1B689B0761D4FFF7A6FB401B02287B
:100B2000F6D90320BAE1944A116880235B020B4393
:100B30001360B7E7052B09D08F4B1A688F490A401D
:100B40001A601A688E490A401A60ABE78A4B196826
:100B50008022D2020A431A601968802252020A4394
:100B60001A609FE7FFF780FB0500834B1B689B0320
:100B7000B5D5FFF779FB401B6428F6D903208DE13A
:100B80007D4B5B68DB03B8D47B4B1B689B0704D5AC
:100B9000E368012B01D0012080E177490B68F8223E
:100BA00093432269D20013430B6023681B0744D58B
:100BB000E369002B2ED0704A536A01210B43536224
:100BC000FFF752FB05006C4B5B6A9B0735D4FFF7C0
:100BD0004BFB401B0228F6D903205FE166490B68F6
:100BE000F82293432269D20013430B60DDE7624A87
:100BF000136801218B431360FFF736FB05005E4B42
:100C00001B689B07D1D5FFF72FFB401B0228F6D9A5
:100C1000032043E1584A536A01218B435362FFF793
:100C200023FB0500544B5B6A9B0706D5FFF71CFBB3
:100C3000401B0228F6D9032030E123685B0775D5F5
:100C40004D4BDB69DB002ED44B4AD1698020400537
:100C50000143D161D36903400193019B0125494BB5
:100C60001B68DB0521D5A368012B32D0002B36D1C0
:100C7000414B1A6A01218A431A621A6A03318A4374
:100C80001A62A368002B40D0FFF7EEFA06003A4B39
:100C90001B6A9B0748D4FFF7E7FA801B3A4B984240
:100CA000F5D90320FAE00025D9E7364A11688023F8
:100CB0005B000B431360FFF7D7FA0600314B1B684C
:100CC000DB05D0D4FFF7D0FA801B6428F6D90320C7
:100CD000E4E0294A136A01210B431362D1E7052B93
:100CE00009D0254B1A6A01218A431A621A6A033114
:100CF0008A431A62C5E7204B1A6A04210A431A6222
:100D00001A6A03390A431A62BBE7FFF7ADFA060015
:100D1000194B1B6A9B0707D5FFF7A6FA801B1A4BD6
:100D20009842F5D90320B9E0012D1ED02368DB06D7
:100D30005AD56369012B2BD0053349D00E4B5A6B22
:100D400004210A435A635A6B03398A435A63FFF7F3
:100D50008BFA0500084B5B6B9B0745D5FFF784FAC0
:100D6000401B0228F6D9032098E0034AD3690749BB
:100D70000B40D361DAE7C04600100240FFFFFEFFE0
:100D8000FFFFFBFF0070004088130000FFFFFFEF34
:100D9000444B5A6B04210A435A635A6B03390A4382
:100DA0005A63FFF761FA05003E4B5B6B9B0706D465
:100DB000FFF75AFA401B0228F6D903206EE03949A2
:100DC0004B6BF8229343A269D20013434B630BE0B1
:100DD000344A536B04218B435363536BF4318B437D
:100DE000A169C9000B435363236A002B55D02D4AD8
:100DF00051680C220A40082A52D0022B12D0294AEC
:100E0000136829490B401360FFF72EFA0400254BA5
:100E10001B689B013DD5FFF727FA001B0228F6D976
:100E200003203BE01F4A13681F490B401360FFF784
:100E30001BFA05001B4B1B689B0106D5FFF714FA34
:100E4000401B0228F6D9032028E0164BDA6A0F214E
:100E50008A43E16A0A43DA625A6814490A40A16A7D
:100E6000606A01430A435A601968802252040A43A7
:100E70001A60FFF7F9F904000A4B1B689B0106D4BE
:100E8000FFF7F2F9001B0228F6D9032006E0002044
:100E900004E0002002E0012000E0002002B070BD6C
:100EA0000120FBE700100240FFFFFFFEFFFFC2FF33
:100EB00030B589B004AA154B180032C832C21100EF
:100EC00002680A606A46103313CB13C21B681360B2
:100ED0000F4B5A680C231340082B13D1910C073386
:100EE000194004A8445C0A49C96A0B406946C95CB8
:100EF000D30302D40748604305E00748FFF710F921
:100F0000604300E0044809B030BDC04630360008F8
:100F10000010024000093D0000127A0070B5050083
:100F20000C004D4B1A68012313408B420BD24A49E7
:100F30000B680122934323430B600B681A409442D1
:100F400001D0012085E02B689B0706D5434A5368F2
:100F5000F0218B43A9680B4353602B68DB074CD50A
:100F60006B68012B21D0022B25D03C4A12689207D6
:100F700000D46FE039494A680320824313434B6031
:100F8000FFF772F906006B68012B1AD0022B26D0EE
:100F9000324B5B680C221A422FD0FFF765F9801B99
:100FA0002F4B9842F4D9032053E02C4A1268920345
:100FB000E0D401204DE0294A12689201DAD40120E0
:100FC00047E0264B5A680C231340042B15D0FFF73B
:100FD0004BF9801B224B9842F3D9032039E01F4B79
:100FE0005A680C231340082B07D0FFF73DF9801BEC
:100FF0001B4B9842F3D903202BE0174B1A680123AF
:1010000013409C420BD214490B68012293432343A3
:101010000B600B681A40944201D0012019E02B6844
:101020005B0706D50D4A53680E490B40E9680B4330
:101030005360FFF73DFF094B5A6812090F23134015
:10104000094AD35CD840094B1860002002F06CF8C4
:10105000002070BD0120FCE700200240001002408B
:1010600088130000FFF8FFFFA85E000820000020A2
:10107000014B18687047C0462000002010B5FFF7EC
:10108000F7FF044B5A68120A07231340024AD35C45
:10109000D84010BD00100240B85E000810B507230C
:1010A00003600A4B5C680322224042605C68F022C5
:1010B000224082605B68E022D2001340C360044B90
:1010C0001A68012313400B6010BDC0460010024097
:1010D0000020024070B582B004000368DB0335D500
:1010E0003C4BDB69DB0048D43A4AD169802040059B
:1010F0000143D161D36903400193019B0125364B24
:101100001B68DB053BD5334B1B6AC02292001340A2
:1011100013D061680A4093420FD02E4B186A2F4AB1
:1011200002401E6A8021490231431962196A2C4E1D
:10113000314019621A62C30735D4264A136A274917
:101140000B4061680B431362012D3BD02368DB0722
:1011500006D5204A136B03218B43A1680B4313630D
:1011600023689B0633D51B4A136B10218B43E16820
:101170000B431363002002B070BD0025BFE7164A81
:10118000116880235B000B431360FFF76DF80600C6
:10119000114B1B68DB05B6D4FFF766F8801B64288B
:1011A000F6D90320E7E7FFF75FF80600094B1B6A53
:1011B0009B07C2D4FFF758F8801B0A4B9842F5D919
:1011C0000320D8E7D36908490B40D361BEE700206C
:1011D000D1E7C0460010024000700040FFFCFFFF56
:1011E000FFFFFEFF88130000FFFFFFEF70B5041E36
:1011F0005ED0002383625D33C35C002B4CD002229F
:101200005D23E2542268136840218B431360E36836
:10121000E022D200934245D90021F02212019342EC
:1012200005D0E022D200934201D00022A262226BBC
:10123000002A05D1E022D200934236D9022323634B
:1012400022686368A068034320690343606903431D
:1012500080208000A56928400343E0690343206A99
:101260000343A06A034313602268608B0423034096
:10127000606A0343606B0343E06803430B435360BE
:101280002268D3690B490B40D361002323660122F6
:101290005D33E254002070BD00225C33C25401F083
:1012A000F7FEACE780214901B7E701232363C7E7D5
:1012B0000120F0E7FFF7FFFF0368DA6801210A4326
:1012C000DA60026813680B431360002070477047B0
:1012D00070477047704710B5040003681A69920799
:1012E0000FD5DA6892070CD5032252421A61012306
:1012F000037703689B699B0763D0FFF7E9FF00232F
:10130000237723681A69520712D5DA6852070FD576
:10131000052252421A610223237723689A69C02367
:101320009B001A4253D02000FFF7D2FF00232377FF
:1013300023681A69120710D5DA6812070DD5092239
:1013400052421A61042323772368DB699B0745D047
:101350002000FFF7BDFF0023237723681A69D20618
:1013600012D5DA68D2060FD5112252421A6108232B
:1013700023772368DA69C0239B001A4235D0200006
:10138000FFF7A6FF0023237723681A69D20702D547
:10139000DA68D20730D423681A69120602D5DA68EF
:1013A000120630D423681A69520602D5DA6852064A
:1013B00030D423681A69920602D5DA68920630D4CE
:1013C00010BDFFF784FF2000FFF783FF97E72000A1
:1013D000FFF77DFF2000FFF77CFFA7E72000FFF766
:1013E00076FF2000FFF775FFB5E72000FFF76FFFDE
:1013F0002000FFF76EFFC5E7022252421A6120006B
:1014000001F080FBC7E7812252421A61200000F000
:1014100074F8C7E7412252421A612000FFF75AFFD1
:10142000C7E7212252421A61200000F065F8C7E7A1
:1014300003681D4A904232D01C4A90422FD01A4A6B
:1014400090420ED0194A90420BD0194A904208D0CF
:10145000184A904205D0184A904202D0174A90424A
:1014600003D1174A1340CA681343802293434A6941
:10147000134303608B68C3620B6883620A4B984214
:1014800008D00C4B984205D00B4B984202D00B4B26
:10149000984201D10B6903630123436170477022B5
:1014A00093434A681343CAE7002C014000040040FC
:1014B000002000400040014000440140004801403D
:1014C000FFFCFFFF70B5041E14D03D23C35C002B4E
:1014D0000AD03D2502236355211D2068FFF7A8FF90
:1014E00001236355002070BD00223C33C25401F03B
:1014F000F5FDEEE70120F6E770477047842801D03C
:10150000033070470020FCE710B500F05DFB0020C1
:1015100010BDF0B585B00D00466807680469082362
:10152000C05EFFF7EBFFA2B203AB019300902B006C
:101530003900300000F018FB012802D1039805B0F3
:10154000F0BD0020FBE710B5002800D1013000F00D
:1015500059FC002010BD10B5012000F0E7F910BDC6
:1015600010B500F06FFD012801D000F043FE10BD62
:10157000030008334360012252428260C36003616A
:1015800000230360704700230361704743684B608A
:101590009A688A609A6851609960086103680133AB
:1015A0000360704730B50C68631C02D0020008323B
:1015B00002E0026904E01A0053681D68AC42FAD2E6
:1015C00053684B6099608A60516008610368013319
:1015D000036030BD03694268816891608268416838
:1015E00051605A68904205D0002202611A68501E6C
:1015F0001860704782685A60F6E710B5040000F082
:10160000AFFDA26BE36B9A4204D0002400F0B4FD5E
:10161000200010BD0124F9E770B504001600856BA9
:10162000026C002A0AD10368002B2ED1406800F01A
:1016300019FD002363600135A56370BD002E0ED136
:10164000806801F093FFA368226C94466344A36012
:10165000626893421BD32368A3600020EBE7C06855
:1016600001F084FF236C5B42E268D218E2602168DB
:101670008A4203D2626894466344E360022E08D132
:10168000002D08D0013D0020D5E70020D3E7002041
:10169000D1E70020CFE70020CDE770B5050000F0CE
:1016A0005FFD4523EC5C64B201E0013C64B2002CB8
:1016B0000BDD6B6A002B08D02800243000F042FCC0
:1016C0000028F2D000F0B8FCEFE7FF224523EA54EF
:1016D00000F052FD00F044FD4423EC5C64B201E0F4
:1016E000013C64B2002C0BDD2B69002B08D02800D4
:1016F000103000F027FC0028F2D000F09DFCEFE74E
:10170000FF224423EA5400F037FD70BD70B5040099
:101710000D00002823D000F023FD2268E36B206C2D
:1017200001005943511861600021A163A260013B8F
:101730004343D318E360FF234422A3540132A3544C
:10174000002D11D12369002B05D02000103000F0AE
:10175000F9FB002805D100F00FFD012070BD72B625
:10176000FEE700F0F1FCF6E720001030FFF700FF85
:1017700020002430FFF7FCFEEDE710B5029B0029A6
:1017800007D01A60D863196401211800FFF7BEFF63
:1017900010BD1B60F6E7F0B583B006000F00150022
:1017A000002801D172B6FEE7002902D0080070437C
:1017B00000E00020483000F0ADFD041E07D002001C
:1017C000483200902B0039003000FFF7D6FF200090
:1017D00003B0F0BDF0B585B004000F0001921E000B
:1017E000002806D0002906D00125002D0AD172B6A6
:1017F000FEE772B6FEE7036C002B01D10125F4E78A
:101800000025F2E7022E03D0002D06D172B6FEE7C6
:10181000E36B012BF8D00025F6E700F013FC00285D
:1018200003D1019B002B00D00025002D01D172B601
:10183000FEE7002536E0320039002000FFF7ECFE1D
:10184000636A002B0CD02000243000F07BFB0028C2
:1018500001D000F079FC00F08FFC012005B0F0BD54
:101860000028F8D000F070FCF5E700F085FC0020BF
:10187000F4E700F081FC01A902A800F0ABFB00280E
:1018800041D12000FFF7B9FE002836D020001030EB
:10189000019900F045FB2000FFF7FFFE00F046FA3B
:1018A000002827D000F05CFCA36BE26B9342C2D30C
:1018B000022EC0D0019B002BD7D0002D03D102A84F
:1018C00000F07CFB013500F057FC00F0A7F900F0B8
:1018D00047FC4423E35C5BB2013302D10022442382
:1018E000E2544523E35C5BB20133C2D100224523BD
:1018F000E254BEE700F028FCD4E72000FFF7CDFE5D
:1019000000F014FACEE72000FFF7C7FE00F00EFA51
:101910000020A3E710B5002807D000234360036030
:10192000C36000220021FFF755FF10BD10B5020073
:1019300000210120FFF72FFF0400FFF7EBFF20003D
:1019400010BD00000A4B9B6A1B68002B09D10133B4
:10195000002B08D1064B9A6AD268D2685268DA62C4
:1019600070470023F4E701225242014BDA62F7E7A5
:10197000A400002010B50400006B00F02FFD200033
:1019800000F02CFD10BD0000F0B583B00090019375
:10199000089C0A9E1D4B9C4662449200336B9C46F9
:1019A000624407239A43170000230F2B09D8C81855
:1019B0000578F218343215700278002A01D001330C
:1019C000F3E700224323F254062C00D90624F462E4
:1019D00074640025B564301DFFF7D5FD3000183064
:1019E000FFF7D1FD366107231C1BB4617662F564F5
:1019F0004933F554019A0099380000F093FB3060A8
:101A0000099B002B00D01E6003B0F0BDFFFFFF3F1D
:101A1000F8B5002408E0A3001B199A0010483030E4
:101A20008018FFF7A5FD0134062CF4D90D4C2700D2
:101A30003C373800FFF79CFD260050363000FFF79A
:101A400097FD074D28001430FFF792FD2000643009
:101A5000FFF78EFD2800FFF78BFDAF62A667F8BD8C
:101A6000A40000202401002010B5040000F078FB41
:101A70001F4AD36F0133D3671E4B1B68002B2BD03B
:101A80001C4B5B68002B07D11A4B1B68DB6AE26AB0
:101A9000934201D8174B1C60164B9A6801329A602A
:101AA000E26ADB689A4201D9124BDA60211D930089
:101AB0009B189A00104830308018FFF767FD00F03F
:101AC0005BFB0C4B5B68002B05D00A4B1B68DA6A8A
:101AD000E36A9A4208D310BD064B1C60D36F012BFA
:101AE000DAD1FFF795FFD7E700F02EFBF3E7C0460A
:101AF00024010020A4010020A400002070B50400EF
:101B00000D00164B1E6918680430FFF763FD631C57
:101B100012D03419114B1B685C60A64215D8104DC9
:101B2000A86A0E4B19680431FFF73CFDEB6A9C4232
:101B300012D20B4BDC620FE0002DEAD0074B196884
:101B400004310748FFF722FD06E0064B986F034B70
:101B500019680431FFF726FD70BDC046A4010020BE
:101B6000A400002024010020F0B587B00490059166
:101B700014001F00900000F0CDFB061E1ED0542064
:101B800000F0C8FB051E15D00663002D18D00023F9
:101B9000039302950D9B01930C9B00933B00220045
:101BA00005990498FFF7F0FE2800FFF75DFF01207C
:101BB00007B0F0BD300000F011FCE6E70025E4E7D7
:101BC00001204042F4E7000000B583B00F4B1C3306
:101BD00001930023009380220D490E48FFF7C4FFB4
:101BE000012803D0431C0ED003B000BD72B6012201
:101BF0005242094BDA62054B02325A6000221A61E6
:101C000000F01EFBF0E772B6FEE7C046A40100201C
:101C1000C05E0008891E0008A4000020024A9369E3
:101C2000013393617047C046A4010020F8B53C4BD6
:101C30009B69002B68D13A4B1D6901351D61002D50
:101C400012D1384B9B6A1B68002B01D072B6FEE79D
:101C5000344A916A344B986F90629967304A136A9C
:101C600001331362FFF76EFE2E4BDB6A9D423FD2BB
:101C700000242B4B1B68DA6A93009B189A00294BAF
:101C80009B181B6B012B44D9012442E00124254BF6
:101C90009B6A1B68002B2DD00023002B2CD1214BDD
:101CA0009B6ADB68DE6873689D422AD3371D380063
:101CB000FFF790FCB36A002B03D030001830FFF719
:101CC00089FCF26A164BDB689A4201D9144BDA6040
:101CD00093009B189A001348303080183900FFF7A2
:101CE00055FCF26A0E4B1B68DB6A9A42CED2CEE7F5
:101CF0000024CCE70133D0E701225242094BDA62DB
:101D0000B7E7084AD362B4E7054A536A013353621E
:101D10000024034B9B6A002B00D001242000F8BD57
:101D2000A4010020A40000202401002070B5324B43
:101D30009B69002B01D172B6FEE700F011FA2E4B21
:101D40009A69013A9A619B69002B51D12B4BDB6F49
:101D5000002B04D1002400F00FFA200070BD0024F5
:101D6000274B5B69002B24D0254B1B6ADC682000C5
:101D70001830FFF72FFC251D2800FFF72BFCE26A27
:101D80001D4BDB689A4201D91B4BDA6093009B180C
:101D90009A001B48303080182900FFF7F7FB164BDC
:101DA0001B68DB6AE26A9A42DAD30122124B9A621A
:101DB000D6E7002C01D0FFF7C5FD0F4B5C6A002C65
:101DC0000AD10D4B9B6A002B14D000F0BDF9012401
:101DD000C1E7013C002C07D0FFF728FF0028F8D00E
:101DE0000122054B9A62F4E70022034B5A62E8E7AE
:101DF0000024B0E70024AEE7A40100202401002065
:101E0000A400002010B5041E0ED00A4B9B69002BC5
:101E100001D072B6FEE7FFF701FF00212000FFF7B7
:101E20006DFEFFF783FF00E00020002801D100F0E5
:101E30008BF910BDA401002070B5114B5B69002B1C
:101E40001CD0FFF7EBFE0F4B5C6EFFF76FFF002C13
:101E5000F3D000F085F90B4C236FDD68281DFFF7E8
:101E6000B9FBE36F013BE367054A5369013B5361EB
:101E700000F082F92800FFF77DFDDEE770BDC04667
:101E8000A40100202401002010B5FFF7D5FF034B6B
:101E90001B6B012BF9D900F057F9F6E7A4000020DD
:101EA00010B51D4B9B69002B0FD11B4B00229A6272
:101EB000DB689A00D2189100184A5218126B002A57
:101EC00009D1002B05D0013BF3E70122124B9A62A6
:101ED00010BD72B6FEE7114A9900CC18A000101888
:101EE000446B646844633032C918880008301218A3
:101EF00094420AD09A00D2189100084A5218526BA4
:101F0000D168054A1160D360E2E760688900034A3E
:101F100052185063EEE7C046A4010020A400002040
:101F200010B50C00002801D172B6FEE7044B196809
:101F30001831FFF737FB01212000FFF7DFFD10BD4F
:101F4000A401002070B5C368DC68002C27D02500F0
:101F500018352800FFF73EFB164B9B69002B20D15C
:101F6000251D2800FFF736FBE26A124BDB689A4218
:101F700001D9104BDA6093009B189A000E4830305C
:101F800080182900FFF702FBE26A0A4B1B68DB6A34
:101F90009A420CD90122074B9A62012070BD72B699
:101FA000FEE7290004481430FFF7F0FAECE70020C0
:101FB000F4E7C046A4010020A4000020002805D0BA
:101FC000034B1A6A02601B694360704772B6FEE7F2
:101FD000A401002070B504000D00002816D00029CF
:101FE00016D000F0BDF8134B19692B685A1C1CD091
:101FF000104A126A2068904202D06268914216D25A
:102000006268881A834205D801240AE072B6FEE7A6
:1020100072B6FEE7521A9B182B602000FFF7CEFF26
:10202000002400F0A9F8200070BD0024F9E7012485
:10203000F7E7C046A40100200122014B9A627047D5
:10204000A4010020064B5B68002B05D0044B9B6964
:10205000002B03D1022070470120FCE70020FAE7A3
:10206000A401002070B5041E2CD0194B1B689842A7
:1020700001D072B6FEE7836C002B01D172B6FEE789
:10208000013B8364C26A416C8A421DD0002B1DD182
:10209000051D2800FFF79EFA636CE3620722D21A3F
:1020A000A2610B4AD268934201D9094AD3609A00CF
:1020B000D3189A000748303080182900FFF766FAD5
:1020C000012070BD0020FCE70020FAE70020F8E7BF
:1020D000A4010020A4000020034B1B68013301D0A1
:1020E00072B6FEE772B6FEE70400002000000000B2
:1020F0000B4A13681868203080F30988022080F3A7
:102100001488BFF36F8F3FBCAE4608BC04BC62B6F8
:102110001847C046C046C046C046C046C046C04636
:10212000A401002010B5031F802464041C60043B3C
:102130001960043B02491960143B1A60403810BD15
:10214000D92000087047000080225205034B1A6016
:10215000BFF34F8FBFF36F8F7047C04604ED00E0B1
:1021600072B6044A136801331360BFF34F8FBFF395
:102170006F8F704704000020064B1B68002B01D1B5
:1021800072B6FEE7013B034A1360002B00D162B632
:102190007047C04604000020EFF3108072B670470D
:1021A000002080F31088704700000000000000004D
:1021B000EFF309800E4B1A6820381060F0C04446D7
:1021C0004D4656465F46F0C008B572B6FFF768FE4A
:1021D00062B60CBC116808681030F0C8A046A94669
:1021E000B246BB4680F309882038F0C81847C0467D
:1021F000A401002010B5FFF7CFFF0400FFF716FD84
:10220000002803D080225205024B1A602000FFF7FD
:10221000C8FF10BD04ED00E010B5064B1868FA21A8
:102220008900FDF77DFF0138034B18600722034B3F
:102230001A6010BD2000002014E000E010E000E073
:1022400010B50A4B1968FF2212040A431A60196874
:10225000FF2212060A431A60FFF7DEFF0022044B3A
:102260001A60FFF745FFFFF737FFC04620ED00E09B
:102270000400002010B5114A53071BD0D11D0723BD
:102280009943C0231B015B1A9B180A000C490A6082
:1022900000204860D318083B0724A3438B60586094
:1022A0001860981A50601360C860086180231B068C
:1022B0004B6110BDC0231B01E8E7C046D0010020E0
:1022C000D00D002010B5124B1A68824219D35968FC
:1022D0005C18A04203D14068091859601800416891
:1022E0004418A24211D10A4CA468A2420BD05268F1
:1022F000891841601A6812680260984200D018601C
:1023000010BD1300E0E70460F7E70260F5E7C046A0
:10231000D00D002070B50400FFF780FC2E4B9B68A9
:10232000002B0FD02C4B5B6923424AD1002C0CD0E0
:102330000834630709D007239C430834234204D0A0
:1023400072B6FEE7FFF796FFECE7002C3BD0224B7E
:102350001B699C4239D8204B1D6801E02B001500F9
:102360006A68944202D92A68002AF7D11A4A926808
:1023700095422CD01E6808362A681A606B681B1BB1
:10238000102B08D92819420701D072B6FEE7436026
:102390006C60FFF797FF69680F4A13695B1A136156
:1023A000D268934201D20C4AD3600B4B5B690B435A
:1023B0006B6000232B60FFF7B9FC730709D072B67E
:1023C000FEE70026F7E70026F5E70026F3E70026FC
:1023D000F1E7300070BDC046D00D002070B5002878
:1023E00020D00500083D6B680F4A52691A4201D19E
:1023F00072B6FEE7010008390968002901D072B6FB
:10240000FEE70838040093434360FFF707FC636866
:10241000054A11698C46634413612800FFF752FF97
:10242000FFF784FC70BDC046D00D002010B5074CEE
:1024300096239B009C466444044B9C4204D0283C59
:10244000200000F0F6FAF7E710BDC046E80D0020C6
:10245000F8B5012800D0F8BD194B9942FBD1194CB1
:102460005834200000F02AFA174A1849200000F0DA
:10247000FEFE0E24164D002C05DB280000F090FA1D
:102480002835013CF7E7104D2A001249002000F0E2
:10249000EEFE114C27005037380000F081FA0F4E45
:1024A0002A003100380000F0E2FE7834200000F00D
:1024B00077FA2A003100200000F0D9FECBE7C046B1
:1024C000FFFF0000E80F002000000020592800084E
:1024D000E80D00202D24000868140020332A00088D
:1024E00070B5094D08212800FEF704F8074C20625A
:1024F00010212800FDF7FEFF606220212800FDF773
:10250000F9FFA062EDE7C04600040048E81400208F
:1025100030B593B001230122012106A800F0A6FAEC
:1025200002230122012102A800F0A0FA144D0A950D
:10253000079B0B93089B0C93099B01930D93114CE4
:1025400058340AA9200000F0F3F90AA800F080FA34
:102550000E95039B0F93049B1093059B019311937E
:102560000EA9200000F0E4F90EA800F071FA02A80C
:1025700000F06EFA06A800F06BFA13B030BDC0464A
:1025800078360008E80F002010B51422782103489F
:10259000583000F0B7F9FFF7BBFF10BDE80F00207F
:1025A00070B5050000F052FAC4B2280000F04CFAF1
:1025B000C1B2200000F014FD034A012311685268E3
:1025C000024800F0F7FC70BD18000020D85E00083B
:1025D000F8B50500002400E00134144BDB6A9C428E
:1025E00020DC280000F032FA0700A3001B19DA00F3
:1025F0000F4EB618300000F029FA8742ECD12800BF
:1026000000F022FA0700300000F01EFA8742E3D102
:10261000A3001B19DA00064BD3582A689A42DBD074
:10262000012001E001204042F8BDC046E81400202E
:10263000E80D0020F0B5CE46474680B5A9B0704CF5
:1026400058340122210020A800F060F920AB0022BC
:10265000002116A800F0B1F920A800F0F9F9022233
:10266000210024A800F052F924AB0A222E210CA844
:1026700000F0A3F924A800F0EBF9624B189A9A60D5
:10268000199ADA601A9A1A611B9A5A611C9A9A610D
:102690001D9ADA611E9A1A621F9A5A620E9A1A637A
:1026A0000F9A5A63109A9A63119ADA63129A1A640B
:1026B000139A5A64149A01929A64159ADA64002261
:1026C0001A6001329A62504BDA6200239946002761
:1026D000984600262BE04B46012B08D0002B09D052
:1026E0004346012B08D0002B7DD1A0467BE0002380
:1026F0009946F5E7A146F3E70023984673E00023E7
:1027000099464B46002B07D1013F732E09DC002E62
:1027100009DA0123984606E04B46012BF5D1013733
:10272000F3E7002398464346002B63D1013E00F0B7
:102730003FFB344C23680293344D0395A368049304
:10274000E36805932369069363690793A369089374
:10275000E3690993236A0A93636A0B9302A8FFF75C
:102760001FFF02A800F065F9A36A02930395236B8B
:102770000493636B0593A36B0693E36B0793236C3E
:102780000893636C0993A36C0A93E36C0B9302A800
:10279000FFF706FF02A800F04CF93100200000F01E
:1027A0004FF93900200000F04DF92368029303959A
:1027B000A3680493E3680593236906936369079309
:1027C000A3690893E3690993236A0A93636A0193EF
:1027D0000B9302A8FFF7FCFE040002A800F029F901
:1027E000012C00D177E7142F89DC002F89DA01232F
:1027F000994686E74346012B99D1013697E7C046B3
:10280000E80F0020E80D0020E814002078360008CA
:1028100010B500F0F5FAFFF7B7FE0022094B583368
:102820001A71084B58331B79002B03D0012BF8D1B8
:10283000FFF700FFFFF7A8FE0122024B58331A7181
:10284000EFE7C046E80F002010B502490120FFF76E
:10285000FFFD10BDFFFF000070B50600104B0833F0
:10286000036004005934FF34002C0AD08F23DB00AE
:10287000C518A54205D0103D2B681B682800984755
:10288000F7E735001835002D07D0AC4205D0203CC5
:1028900023681B6820009847F7E7300070BDC046EA
:1028A0005036000810B50400FFF7D6FF8F21C9008D
:1028B000200000F0E3FC200010BD000070B5060011
:1028C0000F4B083303600023036143610500183593
:1028D0000924002C05DB280000F056F82035013CC7
:1028E000F7E735005935FF353124002C05DB28008A
:1028F00000F0B6F81035013CF7E7300070BDC04677
:10290000503600088160C26070470000074B0360CA
:102910001301CB185D33FF331B684360163212017D
:10292000535883608A185368C3607047783600082C
:1029300010B503695A1C02611A0182185D32FF3218
:102940004C68146016331B018A681A50CA68C31891
:102950005A6010BD10B50400054B08330360806851
:1029600023001033984201D000F08CFC200010BDF1
:102970006036000810B50400FFF7ECFF20212000AE
:1029800000F07CFC200010BD044B08330360030002
:10299000103383600023C3600374704760360008FF
:1029A00070B50400002520C000F05AF86561A561EB
:1029B000E56125626562200070BDF8B5CE464746E8
:1029C00080B504000F0091461D00002640C000F0B5
:1029D00047F8E6612662666267614B46A3616B68F1
:1029E000A360AB68E360EB682361280000F048F85F
:1029F0008046280000F046F803004344DA1703201D
:102A00001040C0188010E061280000F039F8C30FB2
:102A1000181840103F182762280000F033F8C30F41
:102A2000181840104844606220000CBC904699463B
:102A3000F8BD10B50400043000F00AF8200010BD05
:102A40004161704781617047806970474069704794
:102A5000704710B50400102100F010FC200010BDDC
:102A6000014B0833036070477036000810B5034C03
:102A7000083404608160C260436010BD7036000895
:102A800080687047C068704710B588B0174B5969A7
:102A900080208002014359615A6902400092009AE5
:102AA000596980204003014359615A6902400192EB
:102AB000019A5A698021C9020A435A615B690B4035
:102AC0000293029B0423039300240494059403A916
:102AD0000748FDF749FC382303930494373B0593DB
:102AE00003A90448FDF740FC08B010BD00100240E7
:102AF000000C00480004004810B50120FEF723FD3B
:102B0000FBE7000010B50268034B9A4200D010BDED
:102B1000FDF7A2FBFBE7C046002C0140FEE70000EA
:102B200010B51248124B036082235B004360002300
:102B30008360E022D200C260036143618022920080
:102B40008261C361036243628362FA3AFF3AC262FE
:102B5000036308334363FEF749FB002800D110BD2F
:102B6000922149000348FFF7D9FFC046CC17002047
:102B700000300140DC5E000810B50948094B0360D5
:102B8000002343608360C3608361FEF79BFC0028E1
:102B900000D110BD9A2149000348FFF7BFFFC0468E
:102BA000C418002000100040DC5E000810B5094881
:102BB000094B0360002343608360C360036183614A
:102BC000FEF780FC002800D110BD4621FF310348EC
:102BD000FFF7A4FF8418002000200040DC5E0008FE
:102BE00010B51648164B0360164B436000238360F4
:102BF0000122C260036143618361C3610362FDF727
:102C000093FD00280CD100210C48FDF7D5FE0028CB
:102C10000AD100210948FDF7FBFE002809D110BDAB
:102C2000FC210948FFF77AFF0421FF310648FFF72E
:102C300075FF852149000448FFF770FF3418002014
:102C4000005400400E090020DC5E000800B595B07D
:102C500002230893013B0B930F330C930023109333
:102C600008A8FDF7FFFE002827D1072304930023BF
:102C7000059306930793002104A8FEF74FF9002857
:102C80001FD120230093002303936846FEF722FA06
:102C900000281AD1FEF7ECF9FA218900FDF740FA75
:102CA000FDF736FB0420FDF74FFB00220321012036
:102CB0004042FDF7F1FA15B000BDCA210548FFF703
:102CC0002DFFD7210348FFF729FFDE210148FFF739
:102CD00025FFC046DC5E000870B588B0FDF7ACFA91
:102CE000FFF7B4FFFFF7D0FEFFF71AFFFFF744FF2F
:102CF000FFF75CFFFFF774FF0024079407A8FEF7B7
:102D00002AFC124B186002A8114903000A0062CA8B
:102D100062C322CA22C30021FEF7FBFB0D4B1860E1
:102D20000D4D0194032600960023802229000B48B4
:102D3000FEF71AFF0194009600238022290008481C
:102D4000FEF712FFFEF7E0FBFEE7C046301800205A
:102D5000945E000804190020EC5E000811280008A9
:102D6000E124000800B587B017236B4418700A22CD
:102D70000292093A0192009301230022782102482D
:102D8000FDF738FD07B000BD34180020002303E034
:102D9000FF21054AD1540133044A934203D8002845
:102DA000F6D10021F5E770471C150020FF01000057
:102DB00010B584B000241AE020005038C0B2FFF7EC
:102DC000D1FF0020FFF7CEFF1020FFF7CBFFE2017D
:102DD000642302931C330193074B9B180093012338
:102DE000402278210548FDF705FD0134E4B2072CA7
:102DF000E2D904B010BDC0461C15002034180020D4
:102E000010B56420FDF736FAAE20FFF7ABFF2020A7
:102E1000FFF7A8FF0020FFF7A5FF8120FFF7A2FF23
:102E2000F020FFF79FFFA620FFF79CFFA820FFF7E9
:102E300099FF1F20FFF796FFA420FFF793FFD320F1
:102E4000FFF790FF0020FFF78DFFD520FFF78AFFE7
:102E50008020FFF787FFD920FFF784FF2220FFF7AC
:102E600081FFDA20FFF77EFF0220FFF77BFFDB20E8
:102E7000FFF778FF4020FFF775FF8D20FFF772FF07
:102E80001420FFF76FFFAF20FFF76CFF0020FFF764
:102E90007DFFFFF78DFF044B00221A805A8001321C
:102EA0005A71012010BDC0461C17002043B2002BF0
:102EB00015DB1F2913D8104B1B79002B02D053426E
:102EC0005A41D2B2012A0BD0CB08DB0118180723D4
:102ED000194001228A4009490B5C93430B54704707
:102EE000CB08DB011818072319408A4003490B5C03
:102EF00013430B54F3E7C0461C1700201C15002099
:102F0000F0B5DE4657464E464546E0B583B08146AD
:102F1000009101929846264B1B88CEB29B197F2BBD
:102F20003CDC234B5B886A46527892469346534476
:102F30001F2B3BDC00251FE01D4B1888598842469B
:102F400053425A41D2B24919C9B20019C0B2FFF76F
:102F5000ADFF0134B4420ED23B00A3401B04EBD5BD
:102F6000134B188859884919C9B20019C0B2424692
:102F7000FFF79CFFEDE70135554509D24B46203B55
:102F80005A465343EB185B00019A9F5A0024E1E72D
:102F9000074B1A88B6181E80484600E0002003B090
:102FA0003CBC90469946A246AB46F0BD0020F6E7F1
:102FB0001C17002030B583B00400009101921D0061
:102FC000207800280AD02B000099019AFFF798FF7B
:102FD00003002078834201D10134F1E703B030BD12
:102FE000014B1880598070471C17002000B583B032
:102FF000124B996901221143996199690A40009223
:10300000009ADA69802149050A43DA61DB690B40DD
:103010000193019B0022002105204042FDF73CF96D
:103020000022032102204042FDF736F9002203214D
:1030300001204042FDF730F903B000BD001002400E
:1030400000B587B002680F4B9A4201D007B000BDAF
:10305000C0239B00019312230293113B039303228D
:103060000492059301A90848FDF77EF9074AD16942
:10307000802080030143D161D36903400093009B0A
:10308000E4E7C0460054004000040048001002403D
:1030900000B587B002680F4B9A4201D007B000BD5F
:1030A0000D4A916980204001014391619369034079
:1030B0000093009BE0230193DE3B029300230393E4
:1030C00003220492059301A99020C005FDF74CF955
:1030D000E4E7C046003001400010024082B00368BF
:1030E0000E4A934204D00E4A93420BD002B070476E
:1030F0000C4AD16910231943D161D269134000935E
:10310000009BF3E7074AD169802040000143D16169
:10311000D36903400193019BE8E7C04600100040DB
:10312000002000400010024000B587B001000022DE
:103130000D20FDF7B1F80D20FDF7E0F8134A916975
:103140008020000101439161936903400093009B3B
:1031500001A902A8FDF7A2FFFDF790FF0C49FCF7BB
:10316000DFFF431E0B480C4A02600C4AC2604360FA
:10317000002303618360FEF7A5F9002802D0012037
:1031800007B000BD0348FEF797F8F9E700100240CA
:1031900040420F0008190020002C0140E703000006
:1031A0007047FEE710B5FEF7DBF910BD10B5024819
:1031B000FEF791F810BDC04608190020114B1A689F
:1031C00001210A431A605A680F4802405A601A687F
:1031D0000E4802401A601A680D4802401A605A6888
:1031E0000C4802405A60DA6A0F208243DA621A6B96
:1031F000094802401A635A6B8A435A6300229A6054
:103200007047C046001002400CB8FF08FFFFF6FEF2
:10321000FFFFFBFFFFFFC0FFECFEFFFF0D488546F1
:103220000D480E490E4A002302E0D458C45004331E
:10323000C4188C42F9D30B4A0B4C002301E01360F5
:103240000432A242FBD3FFF7B9FF00F061F9FFF7A8
:1032500043FDFEE700200020000000208800002041
:103260007C5F00088800002048190020FEE70B0062
:1032700010B50100180000F03DF910BD10B500F0C8
:1032800001F810BD10B500F067F910BD0123214A07
:103290001168194200D113601F4A1168194200D108
:1032A000136001231D4A1168194200D113601C4AA2
:1032B0001168194200D1136001231A4A116819429A
:1032C00000D11360184A1168194200D1136001231C
:1032D000164A1168194200D11360154A1168194243
:1032E00000D113600123134A1168194200D1136001
:1032F000114A1168194200D1136001230F4A116865
:10330000194200D113600E4A1168194200D11360AE
:103310007047C046501700204C1700204817002067
:1033200044170020401700203C17002038170020C9
:1033300034170020301700202C17002028170020F9
:10334000241700200123214A1168194200D113607B
:103350001F4A1168194200D1136001231D4A1168E8
:10336000194200D113601C4A1168194200D1136040
:1033700001231A4A1168194200D11360184A1168D2
:10338000194200D113600123164A1168194200D175
:103390001360154A1168194200D113600123134AC2
:1033A0001168194200D11360114A1168194200D105
:1033B000136001230F4A1168194200D113600E4AAD
:1033C0001168194200D113607047C0468017002071
:1033D0007C17002078170020741700207017002039
:1033E0006C17002068170020641700206017002069
:1033F0005C17002058170020541700200123164A9C
:103400001168194200D11360144A1168194200D1A1
:1034100013600123124A1168194200D11360114A46
:103420001168194200D1136001230F4A1168194233
:1034300000D113600D4A1168194200D113600123B5
:103440000B4A1168194200D113600A4A11681942E7
:1034500000D113607047C046A01700209C170020C1
:103460009817002094170020901700208C17002038
:1034700088170020841700200123164A116819427A
:1034800000D11360144A1168194200D1136001235E
:10349000124A1168194200D11360114A1168194289
:1034A00000D1136001230F4A1168194200D1136043
:1034B0000D4A1168194200D1136001230B4A1168AB
:1034C000194200D113600A4A1168194200D11360F1
:1034D0007047C046C0170020BC170020B817002056
:1034E000B4170020B0170020AC170020A817002048
:1034F000A417002070B5054C05001300201E04D051
:103500000A000220290000E000BF70BD000000009A
:1035100070B500260C4D0D4C641BA410A64209D1B9
:10352000002600F079F80A4D0A4C641BA410A6424C
:1035300005D170BDB300EB5898470136EEE7B300F4
:10354000EB5898470136F2E7605F0008605F0008BB
:10355000605F0008785F000810B5034B0100186831
:1035600000F00EF810BDC04624000020002310B566
:103570009A4200D110BDCC5CC4540133F8E700007E
:1035800070B50500002910D00C1F2368002B00DA4D
:10359000E418280000F03EF81D4A1368002B05D1FE
:1035A00063601460280000F036F870BDA34209D9AA
:1035B000216860188342F3D118685B684118216064
:1035C000EEE713005A68002A01D0A242F9D919681F
:1035D0005818A0420BD12068091858181960824267
:1035E000E0D110685268411819605A60DAE7A042C9
:1035F00002D90C232B60D5E721686018824203D1E1
:10360000106852684118216062605C60CAE7C04679
:10361000C417002070477047F8B5C046F8BC08BC16
:103620009E467047F8B5C046F8BC08BC9E46704739
:1036300002030405060708090A0B0C0D0E0F1010F3
:103640000102030405060708090A0B0C0D0E0F10F2
:10365000000000000000000059280008A52800080C
:10366000000000000000000055290008752900082E
:103670000000000000000000512A0008532A000842
:10368000000000000000000000000000000000003A
:10369000000000000000000000000000000000002A
:1036A000000000000000000000000000000000001A
:1036B00000000000E003E003E003E003E003E003B8
:1036C000E003E003C003C003C001C001C001C001AA
:1036D000C001000000000000E003E003E003000080
:1036E00000000000000000003C1E3C1E3C1E3C1E72
:1036F0003C1E3C1E3C1E00000000000000000000BC
:1037000000000000000000000000000000000000B9
:10371000000000000000000000000000CE01CE0309
:10372000DE039E039C039C07FF3FFF7F3807380F93
:10373000780F780F780EFFFFFFFFF01EF01CE01CE3
:10374000E03CE03DE0390000000000000000000027
:10375000FC03FE0FEE1FE01EE01EE01EE01EE01F59
:10376000E00FE007F003FC01FE01FE01FE01FE0197
:10377000FE01FE01FE3DFC3FF00FE001E001000014
:1037800000000000033E07F78FE78EE79EE3BCE3EF
:10379000B8E7F8E7F0F7E03FC001FF03FF07F307E2
:1037A000F30FF31EF33CF338F3787FF03FE00000B3
:1037B0000000000000000000E007F80F780F781FFD
:1037C000781F781F780FF00FE00F801FC37FC3FBB7
:1037D000E7F3F7F1F7F0FFF07FF03EF87F7CFF3F73
:1037E000EF1F00000000000000000000E003E00305
:1037F000E003E003E003C003C0010000000000009C
:1038000000000000000000000000000000000000B8
:1038100000000000000000000000000000000000A8
:103820003F007C00F001E001C003C0078007800773
:10383000800F000F000F000F000F000F000F800F10
:1038400080078007C007C003E001F0017C003F0053
:103850000F000000007E001FC007C003E001F00160
:10386000F000F000F8007800780078007800780028
:103870007800F800F000F000F001E001C003C0079C
:10388000001F007E00780000E003C003C001CE39B5
:10389000FF3F7F3F20037003F807780F3C1F380677
:1038A0000000000000000000000000000000000018
:1038B0000000000000000000000000000000000008
:1038C0000000000000000000C001C001C001C001F4
:1038D000C001C001C001FFFFFFFFC001C001C00166
:1038E000C001C001C0010000000000000000000095
:1038F00000000000000000000000000000000000C8
:1039000000000000000000000000000000000000B7
:103910000000E003E003E003E003E001E001E00178
:10392000C001800300000000000000000000000053
:1039300000000000000000000000FE3FFE3F00000D
:103940000000000000000000000000000000000077
:103950000000000000000000000000000000000067
:103960000000000000000000000000000000000057
:1039700000000000000000000000E003E003E0039E
:10398000E003000000000000000000000F000F0036
:103990001E001E003C003C0078007800F000F000A3
:1039A000E001E001C003C00380078007000F000FA3
:1039B000001E001E003C003C0078007800F0000073
:1039C000F007F80F7C1F3E3E1E3C1F7C1F7C0F78CB
:1039D0000F780F780F780F780F780F781F7C1F7C87
:1039E0001E3C3E3E7C1FF80FF00700000000000068
:1039F00000000000F000F007F03FF03FF001F001A0
:103A0000F001F001F001F001F001F001F001F0012E
:103A1000F001F001F001F001F001FF3FFF3F000075
:103A20000000000000000000E00FF83F7C3C3C007C
:103A30003E003E003E003C003C007C00F800F001EF
:103A4000E003C0078007000F001E003E003CFE3F61
:103A5000FE3F00000000000000000000F00FF81F13
:103A60007C1C3E003E003E003C003C00F800F00F95
:103A7000F80F7C003E001E001E001E001E003E00CF
:103A80007C1CF81FE01F0000000000000000000088
:103A90007800F800F800F801F803F807F807780F45
:103AA000781E781E783C78787878FFFFFFFF7800E2
:103AB00078007800780078007800000000000000AE
:103AC00000000000FC1FFC1FFC1F001E001E001E4B
:103AD000001E001EE01FF81FFC007C003E003E00A0
:103AE0001E003E003E003C007C1CF81FE01F000052
:103AF0000000000000000000FC01FE078E0F001F08
:103B0000001E003E003C003CF83DFC3F3E7F1F7E17
:103B10000F3C0F3C0F3C0F3C0F3E1F1E3E1FFC0F87
:103B2000F00300000000000000000000FF3FFF3F26
:103B3000FF3F0F001E001E003C0038007800F00020
:103B4000F000E001E001C003C0038007800F800F98
:103B5000000F001F001F0000000000000000000018
:103B6000F807FC0F3E1F1E1E1E3E1E3E1E1E3C1F63
:103B7000F80FF007F80FFC1E3E3E1F3C1F7C0F7C29
:103B80000F7C1F3C3E3FFC1FF007000000000000C0
:103B900000000000F007F80F7C1E3E3C1E3C1F7C1E
:103BA0001F7C1F7C1F7C1F3C3F3EFF1FEF071F0039
:103BB0001E001E003E003C00F838F03FE01F0000F1
:103BC00000000000000000000000000000000000F5
:103BD00000000000E003E003E003E0030000000059
:103BE00000000000000000000000E003E003E0032C
:103BF000E0030000000000000000000000000000E2
:103C00000000000000000000E003E003E003E00328
:103C10000000000000000000000000000000E003C1
:103C2000E003E003E003E001E001E001C003800302
:103C300000000000000000000000000003000F0072
:103C40003F00FC00F003C00F003F00FE003FC00F2C
:103C5000F003FC003F000F00030000000000000024
:103C60000000000000000000000000000000000054
:103C70000000000000000000FFFFFFFF0000000048
:103C80000000FFFFFFFF0000000000000000000038
:103C90000000000000000000000000000000000024
:103CA0000000000000E000F8007E801FE007F8013F
:103CB0007E001F007E00F801E007801F007E00F8F4
:103CC00000E000000000000000000000F01FFC3FCA
:103CD0003E381F381F381E001E003C007800F000E0
:103CE000E001C003C003C007C007000000000000DF
:103CF000C007C007C007000000000000000000006F
:103D0000F803FE0F1E1F0F3E7F3CFF78EF79C7734D
:103D1000C7F38FF38FF38FF39FF39FF3FF73FF7B53
:103D2000F779003C1C1FFC0FF803000000000000A6
:103D300000000000000000000000E003E003F007C6
:103D4000F007F007780F780F7C0E3C1E3C1E3E3CBF
:103D5000FE3FFF3F1F780F780FF007F007F00000DD
:103D60000000000000000000000000000000F83F1C
:103D7000FC3F3E3C1E3C1E3C1E3C3E3C7C3CF03F1F
:103D8000F83F7E3C1F3C1F3C0F3C0F3C1F3CFE3F5E
:103D9000F83F0000000000000000000000000000EC
:103DA0000000FF01FF07871F003E003C007C0078F9
:103DB0000078007800780078007C007C003E003FAE
:103DC000831FFF07FF01000000000000000000004B
:103DD000000000000000F07FFC7F7E781F781F78D5
:103DE0000F780F780F780F780F780F780F780F789B
:103DF0001F781E787E78F87FE07F000000000000CA
:103E000000000000000000000000FF3FFF3F003EF8
:103E1000003E003E003E003E003EFE3FFE3F003EB4
:103E2000003E003E003E003E003EFF3FFF3F0000E0
:103E30000000000000000000000000000000FF1F64
:103E4000FF1F001E001E001E001E001E001EFF1F82
:103E5000FF1F001E001E001E001E001E001E001E72
:103E6000001E000000000000000000000000000034
:103E70000000FE03FF0F871F003E007C007C0078DF
:103E800000F800F87FF87FF80F780F7C0F7C0F3E6A
:103E90008F1FFF0FFE030000000000000000000065
:103EA0000000000000001F7C1F7C1F7C1F7C1F7C0B
:103EB0001F7C1F7C1F7CFF7FFF7F1F7C1F7C1F7C64
:103EC0001F7C1F7C1F7C1F7C1F7C000000000000EB
:103ED00000000000000000000000FF3FFF3FE00383
:103EE000E003E003E003E003E003E003E003E003BA
:103EF000E003E003E003E003E003FF3FFF3F0000D7
:103F00000000000000000000000000000000FC1F96
:103F1000FC1F7C007C007C007C007C007C007C0022
:103F20007C007C007C007C0078007800F838F03F52
:103F3000C03F000000000000000000000000000082
:103F400000001F3C1E3C3C3C783CF03CE03DE03F28
:103F5000C03F803FC03FE03FF03DF03C783C7C3CC0
:103F60003E3C1F3C0F3C0000000000000000000031
:103F7000000000000000003E003E003E003E003E0B
:103F8000003E003E003E003E003E003E003E003E41
:103F9000003E003E003EFF3FFF3F000000000000EB
:103FA000000000000000000000001FF81FFC1FFCC4
:103FB0003FFE3FFE3FFE7FFF77FF77FFF7F7E7F714
:103FC000E7F3E7F3C7F307F007F007F007F00000A7
:103FD00000000000000000000000000000000F7C56
:103FE0000F7C0F7E0F7F0F7F8F7F8F7FCF7FEF7BC9
:103FF000EF79FF79FF78FF787F783F783F781F78F7
:104000001F78000000000000000000000000000019
:104010000000F007FC1F3E3E1F7C0F780F780FF862
:104020000FF80FF80FF80FF80FF80F780F781F7CC4
:104030003E3EFC1FF00700000000000000000000F2
:10404000000000000000FC3FFF3F1F3E0F3E0F3E00
:104050000F3E0F3E1F3E3F3EFC3FF03F003E003E06
:10406000003E003E003E003E003E0000000000001A
:1040700000000000000000000000F007FC1F3E3EB2
:104080001F7C0F780F780FF80FF80FF80FF80FF864
:104090000FF80F780F781F7C3E3EFC1FF8077C005E
:1040A0003F000F0003000000000000000000F03F90
:1040B000FC3F7E3C3E3C1E3C1E3C3E3C3C3CFC3CB3
:1040C000F03FE03FF03DF83C7C3C3E3C1E3C1F3C5A
:1040D0000F3C000000000000000000000000000095
:1040E0000000FC07FE1F0E3E003C003C003C003E72
:1040F000C01FF80FFE037F001F000F000F001F20DE
:104100003E3CFC3FF01F00000000000000000000EB
:10411000000000000000FFFFFFFFE003E003E003FA
:10412000E003E003E003E003E003E003E003E00377
:10413000E003E003E003E003E00300000000000010
:10414000000000000000000000000F7C0F7C0F7CCE
:104150000F7C0F7C0F7C0F7C0F7C0F7C0F7C0F7C07
:104160000F7C0F7C1E3C1E3C3E3EFC1FF0070000F7
:10417000000000000000000000000000000007F048
:1041800007F007F80F780F7C1E3C1E3C1E3E3C1EBD
:104190003C1F781F780FF80FF007F007F007E003D7
:1041A000E00300000000000000000000000000002C
:1041B000000003E003F003F007F0E7F3E7F3E7F3B1
:1041C000E773F77BF77FFF7F7F7F7F7F7E7F7E3F79
:1041D0003E3E3E3E3E3E000000000000000000006B
:1041E00000000000000007F80F7C1E3E3E3E3C1F12
:1041F000F80FF007E007E003E003F007F80F7C0F8B
:104200007C1E3E3C1F780F780FF00000000000007D
:104210000000000000000000000007F807780F7C95
:104220001E3C1E3E3C1F780FF80FF007E003E00332
:10423000E003E003E003E003E003E003E003000049
:104240000000000000000000000000000000FF7FF0
:10425000FF7F0F001F003E007C00F800F000E0012F
:10426000E003C007800F000F001E003E007CFF7FB0
:10427000FF7F00000000000000000000FF07800733
:1042800080078007800780078007800780078007F6
:1042900080078007800780078007800780078007E6
:1042A00080078007800780078007FF07FF0700005F
:1042B00000780078003C003C001E001E000F000F3C
:1042C00080078007C003C003E001E001F000F000B8
:1042D000780078003C003C001E001E000F000F001C
:1042E00007000000F07FF000F000F000F000F000A8
:1042F000F000F000F000F000F000F000F000F0003E
:10430000F000F000F000F000F000F000F000F0002D
:10431000F000F07FF07F0000C000C001C001E003AA
:10432000E003F007F0077807780F380F3C1E3C1EBB
:104330001E3C1E3C0F380F7807780000000000007C
:10434000000000000000000000000000000000006D
:10435000000000000000000000000000000000005D
:10436000000000000000000000000000000000004D
:10437000000000000000FFFFFFFF00000000000041
:10438000F00000000000000000000000000000003D
:10439000000000000000000000000000000000001D
:1043A000000000000000000000000000000000000D
:1043B00000000000000000000000000000000000FD
:1043C000F80FFC3F7C3C3E003E003E00FE07FE1F17
:1043D0003E3E3E7C3E783E7C7E7CFF3FCF1F000011
:1043E0000000000000000000003C003C003C003CDD
:1043F000003C003CF83DFE3F3E3F1F3E0F3C0F3C63
:104400000F3C0F3C0F3C0F3C1F3C1E3C3E3FFC3F13
:10441000F03B000000000000000000000000000071
:104420000000000000000000FE03FF0F871F003E99
:10443000003E003C007C007C007C003C003E003ED6
:10444000871FFF0FFE0300000000000000000000B7
:104450001F001F001F001F001F001F00FF07FF1F7E
:104460003F3E1F3C1F7C1F7C1F7C1F781F781F7CDA
:104470001F7C3F3C7F3EFF1FDF0F0000000000005D
:10448000000000000000000000000000000000002C
:10449000F803FC0F3E1F1E3E1F3C1F7CFF7FFF7F6B
:1044A000007C007C003C003E071FFF0FFE03000065
:1044B0000000000000000000FF01E103C003C0078E
:1044C000C007C007FF7FFF7FC007C007C007C00746
:1044D000C007C007C007C007C007C007C007C007A4
:1044E000C007000000000000000000000000000005
:1044F0000000000000000000EF07FF1F7F3E1F3C90
:104500001F7C1F7C1F781F781F781F7C1F7C3F3CFF
:104510007F3EFF1FDF0F1E001E001E007C38F83F8D
:10452000003C003C003C003C003C003CFC3DFE3FAD
:104530009E3F1F3F1F3E1F3C1F3C1F3C1F3C1F3C1C
:104540001F3C1F3C1F3C1F3C1F3C000000000000A4
:1045500000000000F001F001000000000000000079
:10456000E07FE07FE001E001E001E001E001E00147
:10457000E001E001E001E001E001E001E001000014
:104580000000000000000000F800F800000000003B
:1045900000000000F83FF83FF800F800F800F800CD
:1045A000F800F800F800F800F800F800F800F8004B
:1045B000F800F800F800F000F071E07F003C003CEB
:1045C000003C003C003C003C1F3C3E3C7C3CF83C3A
:1045D000F03DE03DC03FC03FE03FF03DF83C7C3C5B
:1045E0003E3C1F3C1F3C000000000000000000009B
:1045F000F07FF001F001F001F001F001F001F001B5
:10460000F001F001F001F001F001F001F001F00122
:10461000F001F001F001F001F001000000000000E5
:10462000000000000000000000000000000000008A
:104630009EF7FFFFFFFFFFFFE7FBE7F9C7F1C7F1B9
:10464000C7F1C7F1C7F1C7F1C7F1C7F1C7F1000062
:10465000000000000000000000000000000000005A
:1046600000000000FC3DFE3F9E3F1F3F1F3E1F3CE1
:104670001F3C1F3C1F3C1F3C1F3C1F3C1F3C1F3C62
:104680001F3C0000000000000000000000000000CF
:104690000000000000000000F007FC1F3E3E1F3C31
:1046A0001F7C0F780F780F780F780F781F7C1F3CD6
:1046B0003E3EFC1FF007000000000000000000006C
:1046C000000000000000000000000000F83DFE3F78
:1046D0003E3F1F3E0F3C0F3C0F3C0F3C0F3C0F3C3E
:1046E0001F3C1E3E3E3FFC3FF83F003C003C003C70
:1046F000003C003C00000000000000000000000042
:10470000EE07FE1F7E3E1E3C1E7C1E781E781E7825
:104710001E781E781E7C3E7C7E3EFE1FDE0F1E0035
:104720001E001E001E001E00000000000000000011
:10473000000000007F1FFF1FE71FC71F871F001F0C
:10474000001F001F001F001F001F001F001F001F71
:10475000001F00000000000000000000000000003A
:104760000000000000000000FC07FE1F0E1E003EBF
:10477000003E003FE01FFC07FE003E001E001E0042
:104780003E3CFC3FF01F0000000000000000000065
:10479000000000000000800780078007FF7FFF7F88
:1047A00080078007800780078007800780078007D1
:1047B00080078007C007FF03FF0100000000000022
:1047C00000000000000000000000000000000000E9
:1047D0001E3C1E3C1E3C1E3C1E3C1E3C1E3C1E3C09
:1047E0001E3C1E3C3E3C7E3CFE3EFE1FDE0F00009B
:1047F00000000000000000000000000000000000B9
:104800000000000007F00F780F781E3C1E3C1E3E93
:104810003C1E3C1E780F780FF00FF007F007E00306
:10482000E0030000000000000000000000000000A5
:10483000000000000000000003F0E3F1E3F3E7F301
:10484000F7F3F7F3F77F777F7F7F7F7F7F7F3E3EB2
:104850003E3E3E3E3E3E00000000000000000000E4
:104860000000000000000000000000000F7C1E3E61
:104870003C3E3C1FF80FF007F007E003F007F80795
:10488000F80F7C1E3E3E1F3C1F7800000000000019
:104890000000000000000000000000000000000018
:1048A00007F80F780F7C1E3C1E3C3C1E3C1E3C1F34
:1048B000780FF80FF007F007E003E003C003C00330
:1048C000C0038007800F007F000000000000000090
:1048D00000000000FF3FFF3F1F003E007C00F8008B
:1048E000F001E003C007800F001F001E003CFF7FA7
:1048F000FF7F00000000000000000000FE01E00358
:10490000C003C003C003C003E001E001E001C00137
:10491000C003803F803FC003C001E001E001E0012F
:10492000C003C003C003C003E003FE017E0000001B
:10493000C001C001C001C001C001C001C001C0016F
:10494000C001C001C001C001C001C001C001C0015F
:10495000C001C001C001C001C001C001C001C0014F
:10496000C0010000C03FE003E001E001E001E00120
:10497000C001C003C003C001E001FE00FE00E00171
:10498000C001C003C003C001E001E001E001E0019B
:10499000E003C03F003F00000000000000000000F6
:1049A0000000000000000000000000000000073FC1
:1049B000C77FE773FFF17EF00000000000000000F9
:1049C00000000000000000000000000000000000E7
:1049D00000000000000000000000000000000000D7
:1049E00000000000000000000000000000000000C7
:1049F0000000000C000C000C000C000C000C000C63
:104A0000000C000C000C000C0000000C000C00005E
:104A1000000000000000001B001B001B001B001B0F
:104A20000000000000000000000000000000000086
:104A300000000000000000000000801980198019AB
:104A40008019C07FC07F80190033C07FC07F0033D2
:104A50000033003300330000000000000000001E9F
:104A6000003F807580650074003C001E00078005D3
:104A7000806580658075003F001E00040004000012
:104A80000000007000D840D8C0D880D9007300065C
:104A9000000C801BC036C066C046C0068003000004
:104AA000000000000000001E003F00330033003310
:104AB000001E000CC03CC066806380618063C03E05
:104AC000801C0000000000000000000C000C000C26
:104AD000000C000C000000000000000000000000BE
:104AE0000000000000000000000000008000000145
:104AF0000003000600060004000C000C000C000C73
:104B0000000C000C000400060006000300018000F9
:104B1000002000100018000C000C00040006000625
:104B200000060006000600060004000C000C001839
:104B3000001000200000000C002D003F001E00337C
:104B40000000000000000000000000000000000065
:104B50000000000000000000000000000000000C49
:104B6000000C000C000CC0FFC0FF000C000C000C7F
:104B7000000C000000000000000000000000000029
:104B80000000000000000000000000000000000025
:104B9000000000000000000C000C000400040008ED
:104BA0000000000000000000000000000000000005
:104BB0000000001E001E00000000000000000000B9
:104BC00000000000000000000000000000000000E5
:104BD0000000000000000000000000000000000CC9
:104BE000000C0000000000000000000300030003B0
:104BF0000006000600060006000C000C000C000C6D
:104C00000018001800180000000000000000001E3E
:104C1000003F0033806180618061806D806D8061C4
:104C2000806180610033003F001E00000000000032
:104C300000000006000E001E0036002600060006DA
:104C4000000600060006000600060006000600003A
:104C5000000000000000001E003F80738061806142
:104C6000800100030006000C001800300060807F07
:104C7000807F0000000000000000001C003E006378
:104C800000630003000E000E0003800180018061BC
:104C90008073003F001E00000000000000000006BE
:104CA000000E000E001E001E0016003600360066C4
:104CB000807F807F000600060006000000000000E4
:104CC0000000007F007F006000600060006E007FD9
:104CD00080638001800180618073003F001E0000BE
:104CE000000000000000001E003F80338061006073
:104CF000006E007F80738061806180618033003F3F
:104D0000001E0000000000000000807F807F800106
:104D10000003000300060006000C000C000C000855
:104D20000018001800180000000000000000001E1D
:104D3000003F8063806180610021001E003F806130
:104D4000806180618061003F001E00000000000063
:104D50000000001E003F00738061806180618073ED
:104D6000803F801D800180610073003F001E0000B5
:104D70000000000000000000000000000000000C27
:104D8000000C000000000000000000000000000C0B
:104D9000000C000000000000000000000000000007
:104DA00000000000000C000C0000000000000000EB
:104DB0000000000C000C00040004000800000000CB
:104DC0000000000080008003000E00380060003802
:104DD000000E8003800000000000000000000000C2
:104DE00000000000000000000000807F807F0000C5
:104DF0000000807F807F00000000000000000000B5
:104E000000000000000000000000000000400070F2
:104E1000001C000780010007001C0070004000001B
:104E200000000000000000000000001F803FC07173
:104E3000C060C000C00180030007000E000C000C21
:104E40000000000C000C0000000000000000001E2C
:104E5000003F803180718063806F806D806D806FD6
:104E6000806700600032003E001C0000000000006F
:104E70000000000E000E001B001B001B001B8031F9
:104E80008031803F803F8031C060C060C0600000E2
:104E9000000000000000007C007E006300630063EF
:104EA0000063007E007E0063806180618063007F1C
:104EB000007E0000000000000000001E003F803166
:104EC00080610060006000600060006000608061E0
:104ED0008031003F001E0000000000000000007C48
:104EE000007F006380638061806180618061806198
:104EF000806100630063007E007C00000000000011
:104F00000000807F807F0060006000600060007FA4
:104F1000007F0060006000600060807F807F000094
:104F2000000000000000807F807F00600060006063
:104F30000060007F007F0060006000600060006033
:104F400000600000000000000000001E003F8031F3
:104F500080610060006000608063806380618061C8
:104F60008031803F001E00000000000000008061D2
:104F700080618061806180618061807F807F8061ED
:104F800080618061806180618061000000000000BC
:104F90000000003F003F000C000C000C000C000C57
:104FA000000C000C000C000C000C003F003F000047
:104FB000000000000000800180018001800180016C
:104FC0008001800180018001806180618073003FE9
:104FD000001E0000000000000000C060806100634F
:104FE00000660066006C0078007C00660066006366
:104FF00080618061C060000000000000000000606F
:1050000000600060006000600060006000600060A0
:10501000006000600060807F807F00000000000072
:105020000000C071C071C07BC07AC06AC06AC06E27
:10503000C064C060C060C060C060C060C06000008C
:105040000000000000008071807180798079807993
:10505000806D806D806D806580678067806780630C
:1050600080630000000000000000001E003F0033CD
:105070008061806180618061806180618061806128
:105080000033003F001E0000000000000000007E12
:10509000007F80638061806180618063007F007E2B
:1050A0000060006000600060006000000000000020
:1050B0000000001E003F00338061806180618061DC
:1050C00080618061806580670033803F401E000002
:1050D000000000000000007E007F8063806180612E
:1050E0008063007F007E00660063006380618061F2
:1050F000C0600000000000000000000E001F8031B2
:10510000803100300038001E00078003806180611C
:105110008031003F001E0000000000000000C0FFC2
:10512000C0FF000C000C000C000C000C000C000C6C
:10513000000C000C000C000C000C00000000000033
:105140000000806180618061806180618061806138
:1051500080618061806180618073003F001E00007B
:10516000000000000000C060C060C060803180317D
:105170008031001B001B001B001B000E000E000EE8
:1051800000040000000000000000C0C0C0C0C0C09B
:10519000C0C0C0C0C0CC804C804C805E8052805269
:1051A0008073806180610000000000000000C0C0CA
:1051B000806080610033003B001E000C000C001E6C
:1051C000001F003B80718061C0C000000000000033
:1051D0000000C0C08061806100330033001E001EEB
:1051E000000C000C000C000C000C000C000C00006B
:1051F000000000000000803F803F800100030003AA
:105200000006000C000C0018001800300060807FC1
:10521000807F000000000000000F000F000C000C59
:10522000000C000C000C000C000C000C000C000C1E
:10523000000C000C000C000C000F000F0000001808
:1052400000180018000C000C000C000C00060006F2
:105250000006000600030003000300000000000039
:10526000001E001E000600060006000600060006DE
:1052700000060006000600060006000600060006FE
:10528000001E001E0000000C000C001E0012003367
:105290000033806180610000000000000000000019
:1052A00000000000000000000000000000000000FE
:1052B00000000000000000000000000000000000EE
:1052C0000000000000000000E0FF000000000038C7
:1052D0000018000C000000000000000000000000AA
:1052E00000000000000000000000000000000000BE
:1052F00000000000000000000000001F803F8061EF
:105300008001801F803F80618063807FC038000003
:105310000000000000000060006000600060006E9F
:10532000007F807380618061806180618073007F15
:10533000006E0000000000000000000000000000FF
:105340000000001E003F807380610060006080618B
:105350008073003F001E000000000000000080017C
:10536000800180018001801D803F807380618061A9
:10537000806180618073803F801D0000000000001C
:1053800000000000000000000000001E003F00734D
:105390008061807F807F00608071003F001E000080
:1053A000000000000000C007C00F000C000C807F50
:1053B000807F000C000C000C000C000C000C000C9A
:1053C000000C0000000000000000000000000000D1
:1053D000801D803F80738061806180618061807307
:1053E000803F801D80018063007F003E00000060E0
:1053F000006000600060006F807F8071806180616C
:105400008061806180618061806100000000000037
:1054100000000006000600000000003E003E0006FE
:105420000006000600060006000600060006000052
:10543000000000000006000600000000003E003EE4
:10544000000600060006000600060006000600062C
:1054500000060046007E003C000000600060006026
:105460000060806100630066006C007C0076006371
:1054700000638061C0600000000000000000003E8A
:10548000003E0006000600060006000600060006B4
:1054900000060006000600060006000000000000EE
:1054A0000000000000000000000080DDC0FFC0CE52
:1054B000C0CCC0CCC0CCC0CCC0CCC0CCC0CC000018
:1054C0000000000000000000000000000000006F6D
:1054D000807F807180618061806180618061806196
:1054E00080610000000000000000000000000000DB
:1054F0000000001E003F80738061806180618061D8
:105500008073003F001E000000000000000000004B
:1055100000000000006E007F807380618061806108
:1055200080618073007F006E00600060006000603A
:105530000000000000000000801D803F807380613B
:105540008061806180618073803F801D8001800167
:1055500080018001000000000000000000000067E2
:10556000803F003900300030003000300030003023
:1055700000300000000000000000000000000000FB
:105580000000001E803F80610060007F803F80013E
:105590008061007F001E000000000000000000008D
:1055A000000800180018007F007F0018001800187D
:1055B000001800180018801F800F00000000000075
:1055C0000000000000000000000080618061806138
:1055D00080618061806180618063807F803D0000A8
:1055E0000000000000000000000000000000C0609B
:1055F000803180318031001B001B001B000E000E2B
:105600000006000000000000000000000000000094
:10561000000080DD80DD80DD0055005500550077FD
:1056200000770022002200000000000000000000BF
:10563000000000000000806100330033001E000CF9
:10564000000C001E003300338061000000000000E9
:1056500000000000000000008061806180310033A4
:105660000033001B001B001B000E000E000E001C70
:10567000007C007000000000000000000000C07FFF
:10568000C07F800100030006000C00180030C07FBE
:10569000C07F0000000000008003800700060006B5
:1056A000000600060006000E001C001C000E00068E
:1056B00000060006000600068007800300060006BC
:1056C00000060006000600060006000600060006AA
:1056D000000600060006000600060006000600069A
:1056E0000038003C000C000C000C000C000C000EFC
:1056F00000070007000E000C000C000C000C000C52
:10570000003C003800000000000000000000000025
:1057100000008038807F004700000000000000008B
:105720000000000000000000000000000000000079
:105730000000000000000000000000000010001049
:105740000010001000100010000000100000000009
:1057500000280028002800000000000000000000D1
:105760000000000000240024007C00240048007C8D
:105770000048004800000000003800540050003885
:1057800000140054005400380010000000200054A1
:1057900000580030002800540014000800000000E9
:1057A0000010002800280010003400480048003491
:1057B00000000000001000100010000000000000B9
:1057C0000000000000000000000800100020002081
:1057D0000020002000200020001000080020001001
:1057E0000008000800080008000800080010002059
:1057F0000010003800100028000000000000000029
:10580000000000000000000000100010007C0010EC
:105810000010000000000000000000000000000078
:105820000000000000000010001000100000000048
:105830000000000000000038000000000000000030
:105840000000000000000000000000000000001048
:1058500000000000000800080010001000100010F8
:1058600000200020000000000038004400440054E4
:1058700000440044004400380000000000100030E4
:105880000050001000100010001000100000000078
:105890000038004400440004000800100020007C90
:1058A0000000000000380044000400180004000458
:1058B00000440038000000000008001800280028FC
:1058C0000048007C0008000800000000007C004048
:1058D000004000780004000400440038000000008C
:1058E0000038004400400078004400440044003880
:1058F00000000000007C00040008001000100020E0
:10590000002000200000000000380044004400385F
:105910000044004400440038000000000038004407
:1059200000440044003C0004004400380000000033
:105930000000000000100000000000000000001047
:105940000000000000000000000000100000000047
:10595000000000100010001000000000000C0030DB
:1059600000400030000C00000000000000000000BB
:105970000000007C0000007C00000000000000002F
:105980000000000000600018000400180060000023
:10599000000000000038004400040008001000105F
:1059A000000000100000000000380044004C0054CB
:1059B000005C00400040003800000000001000289B
:1059C000002800280028007C00440044000000005B
:1059D000007800440044007800440044004400780B
:1059E000000000000038004400400040004000403B
:1059F00000440038000000000070004800440044EB
:105A0000004400440048007000000000007C00409A
:105A10000040007C004000400040007C000000008E
:105A2000007C004000400078004000400040004002
:105A3000000000000038004400400040005C0044CA
:105A40000044003800000000004400440044007C92
:105A500000440044004400440000000000380010EE
:105A600000100010001000100010003800000000AE
:105A70000004000400040004000400040044003892
:105A80000000000000440048005000600050004842
:105A9000004800440000000000400040004000407A
:105AA000004000400040007C000000000044006C0A
:105AB000006C005400440044004400440000000016
:105AC00000440064006400540054004C004C004446
:105AD000000000000038004400440044004400443A
