:020000040800F2
:1000000000200020993600081D3600081F36000821
:1000100000000000000000000000000000000000E0
:10002000000000000000000000000000351D000876
:100030000000000000000000A11D0008213600089B
:10004000E936000800000000E9360008E93600083B
:10005000E9360008E9360008E9360008E936000804
:1000600000000000E9360008E9360008E93600081B
:10007000E936000829360008E936000800000000CB
:10008000E9360008E936000800000000E9360008FB
:10009000E9360008E9360008E9360008E9360008C4
:1000A000E9360008E9360008E9360008E9360008B4
:1000B000E936000800000000000000000000000019
:1000C00010B5064C2378002B07D1054B002B02D02E
:1000D000044800E000BF0123237010BD8C00002005
:1000E00000000000A83A0008084B10B5002B03D010
:1000F0000749084800E000BF07480368002B00D10B
:1001000010BD064B002BFBD09847F9E7000000001C
:1001100090000020A83A00088C0000200000000099
:1001200002B4714649084900095C49008E4402BC8A
:100130007047C046002243088B4274D303098B42A8
:100140005FD3030A8B4244D3030B8B4228D3030CA7
:100150008B420DD3FF22090212BA030C8B4202D349
:100160001212090265D0030B8B4219D300E0090A71
:10017000C30B8B4201D3CB03C01A5241830B8B427A
:1001800001D38B03C01A5241430B8B4201D34B0363
:10019000C01A5241030B8B4201D30B03C01A5241C8
:1001A000C30A8B4201D3CB02C01A5241830A8B424D
:1001B00001D38B02C01A5241430A8B4201D34B0236
:1001C000C01A5241030A8B4201D30B02C01A52419A
:1001D000CDD2C3098B4201D3CB01C01A524183094E
:1001E0008B4201D38B01C01A524143098B4201D388
:1001F0004B01C01A524103098B4201D30B01C01AB3
:100200005241C3088B4201D3CB00C01A524183082C
:100210008B4201D38B00C01A524143088B4201D359
:100220004B00C01A5241411A00D2014652411046B9
:100230007047FFE701B5002000F006F802BDC04698
:100240000029F7D076E770477047C0461023064A6A
:1002500010B5116800200B43136003F0A1F903F0FF
:1002600009F9002010BDC04600200240024A136870
:10027000013313607047C0462C120020014B1868F0
:100280007047C0462C12002037B50190FFF7F6FFEB
:10029000019C0500631C5A1E9341E418FFF7EEFF12
:1002A000401BA042FAD337BD70B58901002814DA8B
:1002B0000F23C0B20340083B114A9B089B009B18C8
:1002C000032210409040FC321500114085408140CF
:1002D000DC69AC432143D96170BD03258308284004
:1002E000A840FC352E00074A9B009B18C022864080
:1002F0002940814092009C58B44321439950EBE738
:1003000000ED00E000E100E01F2318401E3B8340A9
:10031000014A13607047C04600E100E0094A431EED
:10032000012093420DD8C021074A08485360036A50
:1003300009061B021B0A0B4303620020072390607F
:1003400013607047FFFFFF0010E000E000ED00E0E9
:10035000054B1A68042802D1104318607047042125
:100360008A431A60FAE7C04610E000E0F0B50B6877
:1003700087B0029300230191029ADA4001D107B0BD
:10038000F0BD01229A4003920399029A0A4000921A
:1003900000D18CE0019A1021526816008E43022E83
:1003A0000ED107251D40AD000139A940DC08A4008D
:1003B0000419276A8F4301990969A9400F432762ED
:1003C00003245F00BC40E4430568013E2540AC4681
:1003D00003251540BD4061460D430560012E0FD831
:1003E00001998668CD682640BD40354385604668E2
:1003F000039915098E4301210D409D403543456009
:10040000C56801992C408D688021BD4049052C4369
:10041000C4600A424BD00121264C0326A5691E4028
:100420000D43A561A4699D080C400594059C0F240B
:100430002149AD00B6006D18B4409021AF68C905E0
:10044000A743002488420CD01C490134884208D0BC
:100450001B490134884204D01A490334884200D130
:10046000023CB44000993C430E00AC60164CCD43B6
:1004700027683E43D10301D43E002E4026606768C2
:10048000009E3E43910301D43E002E406660A76863
:10049000009E3E43D10201D43E002E40A660E66895
:1004A000009F3743920201D42E403700E7600133AA
:1004B00062E7C0460010024000000140000400480E
:1004C00000080048000C0048000401400069084092
:1004D000411E8841C0B2704703689A69920701D5EE
:1004E00000229A6201229969114202D199690A4354
:1004F0009A61704730B504680648656889052840E8
:10050000039D890D2B43194312040A430243626081
:1005100030BDC046009800FCF8B504000E0017007E
:100520001D002268936933409B1B59424B41BB42DB
:1005300001D000200EE06B1CF4D0002D0BD1230065
:10054000202241331A70220000230320423240341B
:1005500013702370F8BDFFF791FE069BC01A854209
:10056000DFD2ECE7F8B503680400986910230E00A9
:10057000170018402025002815D1F8BD721C13D093
:10058000002E0BD12300202241331A7022000023B9
:1005900042324034137003202370EEE7FFF76EFE03
:1005A000C01B8642EED323689A692A42E6D0102205
:1005B0002000DA61DD61FFF78FFF22680849536888
:1005C00001200B4053600423636423002200413365
:1005D0001D7000234232403413702370CDE7C046B3
:1005E00000E800FEF8B504000D001600022723689D
:1005F0009B693B4201D0002018E032002900200016
:10060000FFF7B0FF002818D16B1CF0D0002D0ED1E1
:100610002022636C032013436364230041331A7068
:10062000220000234232403413702370F8BDFFF7DC
:1006300025FE801B8542DAD2EAE70120F6E773B592
:1006400015001E00DAB280239B0100938023040072
:100650005B04FFF74FFF079A06992000FFF7C2FFE0
:10066000002805D0636C0120042B00D0032076BD48
:100670002368012E0CD1EDB29D62079B00220093EE
:100680008021069B2000FFF747FF0028EED1EEE710
:100690002A0A9A620699079A2000FFF7A3FF00280A
:1006A000E0D12368E7E7F8B504000D001600202725
:1006B00023689B693B4201D0002016E032002900EC
:1006C0002000FFF74FFF002816D1002D0ED1202269
:1006D000636C032013436364230041331A702200C8
:1006E00000234232403413702370F8BDFFF7C6FD7B
:1006F000801B8542DCD2EAE70120F6E770B50400F2
:100700000120002C3FD0250041352B78DBB2002B97
:1007100005D1220040321370200002F0D3FE2423C2
:1007200001212B702368E0681A68A6688A431A6062
:1007300061681A4A0A401A619968194A1140996019
:10074000012821D180210902314399605868154957
:1007500001435960D96800200A40DA606169226962
:100760000A43A16909020A43DA60216AE2690A437D
:100770001A60012219680A431A60202360642B70F2
:1007800020634234207070BD842109023143996096
:100790000228DBD1802109015960D7E7FFFFFFF074
:1007A000FF7FFFFF00800002F0B589B007930EAB1A
:1007B000069204CB04001B88039204930300413388
:1007C00005931B780D000220202B02D1002A02D1B4
:1007D000012009B0F0BD049B002BF9D02700403761
:1007E0003B78012BF5D001233B70FFF747FD8021BB
:1007F000029000901923012209022000FFF78CFECD
:10080000061E1FD12123059A2900137023004233AD
:1008100005934023059A1370039B606463626B46E3
:100820001B8A60636385029B069A0193109B2000DC
:100830000093079BFFF703FF002805D0636C3E7011
:10084000042BC5D00320C4E7638DFF2B14D9FF22EE
:10085000802322855B040090290020008026FFF77A
:1008600049FEFF27B604029A10992000FFF7BAFE4E
:10087000002809D0636CE3E78023628D9B0492B269
:100880002285D2B20090E7E7636A2268591C616250
:100890001B789362638D228D013B013A9BB292B229
:1008A00063852285002A17D1638D002B14D0029B0B
:1008B000802100932000109BFFF72EFE0028C1D15D
:1008C000638DFF2B21D98023FF2227855B040090B5
:1008D00029002000FFF70EFE638D002BC3D1029A82
:1008E00010992000FFF7DFFE0028C3D120212368E4
:1008F000094DD9615A682A405A6023004133197062
:10090000059B40341870207063E7628D330092B20B
:100910002285D2B20090DBE700E800FEF0B50400CB
:10092000413422780300D2B20220202A18D11D00BF
:1009300040352E78012E13D01B68223020701E689F
:10094000233886431E601E68064F3E401E601E68A8
:10095000314319601968084318600020227028701C
:10096000F0BDC046FFEFFFFFF0B5050041352A7826
:100970000300D2B20220202A17D11C00403426786E
:10098000012E12D01B68223028701E68233886433F
:100990001E601E68054F09023E4031431960196808
:1009A0000843186000202A702070F0BDFFF0FFFFA0
:1009B000F0B5036885B00500DB072FD42B689B07D3
:1009C00000D581E02B681B0700D5BCE02B685B07D6
:1009D00000D5DFE02B68DB061AD56A69B54C042325
:1009E000012A00D04BE1616B02260B436363636B0A
:1009F0001A436263FFF742FC0700636B334200D186
:100A000036E1F821626BAB698A43DB001343636311
:100A1000296A002900D059E1002013E00C21A54CDF
:100A200062680A40042A06D063680B40082B0BD189
:100A30006368DB0308D523689B03BFD56B68002B75
:100A4000BCD1012005B0F0BD6B68012B13D1802310
:100A500022685B0213432360FFF710FC8026070027
:100A6000B60223683342A9D1FFF708FCC01B6428F3
:100A7000F7D90320E6E7002B16D123688E4A80269B
:100A80001340236023688D4AB60213402360FFF7AA
:100A9000F5FB07002368334200D18FE7FFF7EEFB39
:100AA000C01B6428F6D9E4E7052B05D18023226812
:100AB000DB0213432360CAE723687F4A13402360A5
:100AC00023687E4A1340C6E70C227A4C63681342BF
:100AD00006D063681340082B10D16368DB030DD484
:100AE00023689B0702D5EB68012BAAD1F821226865
:100AF0002B698A43DB001343236063E7EA68012321
:100B0000002A0FD02268022613432360FFF7B6FBAA
:100B1000070023683342E9D1FFF7B0FBC01B02286E
:100B2000F7D9A6E7226802269A432260FFF7A6FBC0
:100B300007002368334200D144E7FFF79FFBC01B47
:100B40000228F6D995E7EA6901235A4C002A10D009
:100B5000626A022613436362FFF790FB0700636A31
:100B6000334200D032E7FFF789FBC01B0228F6D9D9
:100B70007FE7626A02269A436262FFF77FFB070003
:100B8000636A334200D121E7FFF778FBC01B0228DC
:100B9000F6D96EE780220021464C5205E3690091A8
:100BA000134208D1E3691343E361E36913400393FC
:100BB000039B012300938027414E7F0033683B4213
:100BC00006D0AB68012B13D1226A1343236230E0B5
:100BD00033683B433360FFF751FB019033683B427E
:100BE000EFD1FFF74BFB019BC01A6428F6D940E711
:100BF0000122002B14D1236A022793432362236A24
:100C0000033293432362FFF739FB0600236A3B421A
:100C100025D0FFF733FB2B4B801B9842F6D928E7F2
:100C2000052B0BD1216A013B0B432362236A1A4334
:100C30002262FFF723FB022706000DE0236A93439D
:100C400004222362236A9343C0E7FFF717FB1D4B7F
:100C5000801B984200D90CE7236A3B42F5D0009BE9
:100C6000012B00D0B6E6E369174A1340E361B1E611
:100C7000FFF704FBC01B022800D8BEE6F9E60532E8
:100C800003D1626B9A436263BBE6626B0226134335
:100C900001226363636B93436363FFF7EFFA07001B
:100CA000636B334200D1B3E6FFF7E8FAC01B0228BA
:100CB000F6D9DEE600100240FFFFFEFFFFFFFBFF5C
:100CC0000070004088130000FFFFFFEF0C22264C4D
:100CD000012063681340082B00D1B3E62368234A40
:100CE0001340236002292FD1FFF7C8FA802607009E
:100CF000B6042368334221D10F22E36A9343EA6AA0
:100D00001343E362696AAB6A62680B431849802542
:100D10000A4013436360802322685B04134323600B
:100D2000FFF7ACFA0600AD0423682B4200D073E64F
:100D3000FFF7A4FA801B0228F6D99AE6FFF79EFA7D
:100D4000C01B0228D5D994E6FFF798FA8025060043
:100D5000AD0423682B4200D15EE6FFF78FFA801BBB
:100D60000228F6D985E6C04600100240FFFFFFFECC
:100D7000FFFFC2FF70B5144C88B0102221006846F6
:100D800002F03CFE210004AD10221031280002F0D8
:100D900035FE0C220D4E73681A40082A11D10F201F
:100DA0006A46990C0140545CF26A0240A95CDB037C
:100DB00005D50748FFF7BEF9604308B070BD054888
:100DC000FAE70348F9E7C046C03A000800100240BD
:100DD00000127A0000093D00F7B50122434C0600DD
:100DE00023680F0013408B421CD33268930723D42F
:100DF000D30729D4012322681A40974267D3336866
:100E00003B4C5B076AD4FFF7B5FF6368394A1B06A2
:100E10001B0FD35CD840384B1860002002F0C0FB99
:100E2000002008E0236893430B43236023681340AA
:100E30009942DAD00120FEBDF0202D494B68834352
:100E4000B06803434B60D3E7294D72682B68012AD1
:100E50001AD19B03EED503216B688B4313436B6060
:100E6000FFF70CFA73680190012B15D10C226B6807
:100E70001340042BBED0FFF701FA019BC01A1F4B91
:100E80009842F3D90320D6E7022A02D19B01E2D48B
:100E9000D0E79B07DFD4CDE7022B12D00C226B6882
:100EA0001342A7D0FFF7EAF9019BC01A134B9842EF
:100EB000F4D9E7E7FFF7E2F9019BC01A0F4B98421C
:100EC000E0D80C226B681340082BF3D192E722681C
:100ED0009A43226022681A42ACD190E76368084ABC
:100EE0001340F268134363608DE7C0460020024060
:100EF0000010024034630008240000208813000022
:100F0000FFF8FFFF014B18687047C046240000201F
:100F1000044B054A5B685B055B0FD35C034A1068B2
:100F2000D8407047001002404463000824000020AD
:100F3000072310B503240360094B5A68224042601E
:100F40005A68ED3422408260E0225B68D200134090
:100F50000122C360034B1B6813400B6010BDC046E9
:100F60000010024000200240F0B5036885B0050083
:100F7000DB0328D580220021374C5205E36900911C
:100F8000134208D1E3691343E361E3691340039318
:100F9000039B012300938027304E7F0033683B4240
:100FA00026D0C022236A920013402D4E32D1236AEC
:100FB0001E406B681E43009B2662012B03D1E36930
:100FC000284A1340E3612A68D30706D50320224943
:100FD0000B6B8343A86803430B630020930617D56C
:100FE00010211D4A136B8B43E9680B4313630FE019
:100FF00033683B433360FFF741F9019033683B426C
:10100000CFD1FFF73BF9019BC01A6428F6D9032022
:1010100005B0F0BD69680A409342C8D08023226AB7
:10102000206A11005B0203432362236A0E483140A9
:10103000034023622162D307B9D5FFF71FF90700E8
:101040000222236A1342B2D1FFF718F9074BC01BE3
:101050009842F5D9DBE7C04600100240007000401E
:10106000FFFCFFFFFFFFFFEFFFFFFEFF8813000005
:10107000F8B504000120002C4BD000232500A3620A
:101080005D352B78DBB2002B05D122005C3213706A
:10109000200002F03DFA0223402221682B700B68E9
:1010A000002093430B60E023E268DB009A4231D9D1
:1010B000F0263601B24233D10600206B002803D15E
:1010C0009A422FD902232363A7686368A0693B4330
:1010D00027693B4367693B43E7693B43276A3B43D7
:1010E000A76A3B438027BF0007403B430B60636A0E
:1010F000000C1A43636B1A43042318401043064341
:101100004E60CB69084A00201340CB610123206662
:101110002B70F8BD802676019A42CED0A062CCE733
:101120000600FBE70123CEE7FFF7FFFF012203687C
:10113000D96800201143D96019680A431A607047C2
:1011400070477047704770470222036810B51969ED
:10115000040011420ED0D96811420BD0053A1A6131
:101160009B69043202779B0700D179E0FFF7E9FF22
:1011700000232377042223681969114210D0D9680B
:1011800011420DD0093A1A61073222779A69C023B9
:101190009B0020001A4269D0FFF7D3FF002323777A
:1011A00008222368196911420ED0D96811420BD068
:1011B000113A1A61DB690D32227720009B075BD060
:1011C000FFF7BFFF0023237710222368196911421C
:1011D00010D0D96811420DD0213A1A611932227704
:1011E000DA69C0239B0020001A424BD0FFF7A9FF09
:1011F00000232377012223681969114207D0D96897
:10120000114204D0033A1A61200001F0FDFF802250
:1012100023681969114208D0D968114205D0023AF1
:10122000FF3A1A61200000F097F8402223681969FC
:10123000114207D0D968114204D0813A1A612000C6
:10124000FFF781FF202223681969114207D0D9686E
:10125000114204D0413A1A61200000F07CF810BD20
:10126000FFF76EFF2000FFF76DFF81E7FFF768FFD4
:101270002000FFF767FF91E7FFF762FF2000FFF70D
:1012800061FF9FE7FFF75CFF2000FFF75BFFAFE721
:101290001C4A10B50368904202D01B4CA04208D1F2
:1012A0007024A3434C68234390420ED0164CA042B6
:1012B0000BD0164CA04208D0154CA04205D0154CBE
:1012C000A04202D0144CA04203D1144C2340CC685D
:1012D00023438024A3434C69234303608B68C36288
:1012E0000B688362904208D0094B984205D0094BA5
:1012F000984202D0084B984201D10B690363012345
:10130000436110BD002C014000040040002000405B
:10131000004001400044014000480140FFFCFFFF45
:1013200070B504000120002C14D025003D352B7829
:10133000DBB2002B05D122003C321370200002F0FA
:101340000BF9022320682B70211DFFF7A1FF012359
:1013500000202B7070BD7047704710B500F09CFAEC
:10136000002010BD10B5012000F097F910BD10B598
:1013700000F06AFC012801D000F034FD10BD03002C
:10138000012208334360C36003610023524282603C
:101390000360704700230361704743689A684B609D
:1013A0008A609A685160996003680861013303603C
:1013B000704703000A6830B50833541C0BD1036929
:1013C0005A684A6091608B60596003680861013314
:1013D000036030BD23005C682568AA42FAD2EFE7BB
:1013E0004168826803698A608268516059688842EE
:1013F00000D15A60002202611A68501E18607047BE
:1014000070B51600026C0400856B002A0AD10668CC
:101410001000002E03D1606800F022FC66600135E8
:10142000A56370BD002E0DD1806802F0E7FAA368B5
:10143000226C30009B186268A3609342EFD323684C
:10144000A360ECE7C06802F0D9FA236CE2685B4263
:101450002168D218E2608A4202D26268D318E3603F
:101460000020022EDBD12B005A1E9341ED1AD6E745
:1014700070B505002E00453600F06AFC347864B281
:10148000002C10DCFF2333702E00443600F06CFC7F
:1014900000F05EFC347864B2002C11DCFF23337062
:1014A00000F062FC70BD6B6A002BEBD0280024308A
:1014B00000F052FB002801D000F0C0FB013CDEE749
:1014C0002B69002BEAD02800103000F045FB0028E3
:1014D00001D000F0B3FB013CDDE770B504000D0066
:1014E000002801D172B6FEE700F032FC216CE36BFC
:1014F00022684B43D0185B1AD318E3602300606066
:10150000A2600020FF224433A0631A705A70854203
:101510000ED12369834207D02000103000F01CFB5D
:10152000002801D000F008FC00F01EFC012070BD76
:1015300020001030FFF723FF20002430FFF71FFFAB
:10154000F2E770B506000D00002801D172B6FEE783
:1015500008007043483000F0A7FC041E08D0002D9E
:1015600008D12060E663256401212000FFF7B5FF64
:10157000200070BD030048330360F3E7F0B585B089
:101580000400009101921D00002801D172B6FEE70F
:10159000009B002B00D06FE0036C002B00D16BE0B0
:1015A00072B6FEE7019E002E03D100F0DDFB0020A5
:1015B00054E0002F02D102A800F000FB00F0D4FBA1
:1015C00000F090F900F0C4FB2200443213785BB2C3
:1015D000013301D1002313702200453213785BB22E
:1015E000013301D10023137000F0BEFB01A902A852
:1015F00000F0F4FA002839D100F0AAFBA76BE66BE3
:1016000000F0B2FBB7422BD120000199103000F05E
:1016100091FA2000FFF72CFF00F0D4F9002801D147
:1016200000F08AFB012700F093FBA36BE26B93426F
:1016300001D3022DB6D12A0000992000FFF7E0FE69
:10164000636A002B03D02000243000F085FA0028C4
:1016500001D000F071FB00F087FB012005B0F0BD68
:101660002000FFF705FF00F0ADF9DBE72000FFF7F2
:10167000FFFE00F0A7F99AE7022D02D1E36B012BE0
:1016800009D100F0E1FA00270028CCD1019F002FFA
:10169000C9D072B6FEE772B6FEE710B502000021AF
:1016A0000120FFF74EFF041E07D0002141600160BA
:1016B000C1600B000A00FFF761FF200010BD0000B1
:1016C000064B9A6A1268002A02D1013ADA62704720
:1016D0009A6AD268D2685268F8E7C046A80000202B
:1016E000F8B50500124C0F00266B606B0430FFF755
:1016F00077FE6B1C07D1002F05D0616B20000431F1
:10170000FFF74BFEF8BD636B75195D60AE4205D9FE
:10171000A06B616B0431FFF74CFEF3E7A06A616BCD
:101720000431FFF746FEE36A9D42EBD2E562E9E74A
:10173000A8000020F0B5950085B0029028000F00A9
:10174000039300F0B1FB061E00D18FE0542000F09F
:10175000ABFB041E00D186E00723043D0663761927
:101760009E43002300961A00F95C3432A154FA5CBF
:10177000002A02D00133102BF5D1230000250A9E48
:1017800043331D70062E00D90626231D1800E6627D
:101790006664A5640193FFF7FDFD20001830FFF794
:1017A000F9FD07239E1B230050332461A661646268
:1017B000E564039A1D700299009800F0ABFA0B9B48
:1017C0002060002B00D01C6000F0C2FA2E4DEB6BA5
:1017D0000133EB636B6B002B4BD16C63EB6B012B19
:1017E00020D12E002F004036CC3730001436FFF7C2
:1017F000C6FDB742F9D1254E37004C373800FFF708
:10180000BEFD2348FFF7BBFD28001430FFF7B7FDEE
:1018100030007430FFF7B3FD2800FFF7B0FD1C4B1C
:10182000AF62AB631B4EE26AF3680133F360336966
:101830009A4200D932611423280053434030C01823
:101840000199FFF7AAFD00F08FFAB3680126002B7B
:1018500006D06B6BDA6AE36A9A4201D200F06CFA46
:10186000300005B0F0BD300000F096FB0126764256
:10187000F6E7084B9B68002BD4D16B6BE26ADB6AFE
:101880009342CFD86C63CDE7A80000202801002048
:1018900088010020A801002037B50E4D00242B0040
:1018A0001C3301930094230080220B490B48FFF75F
:1018B00041FF012809D172B60122094B5242DA6276
:1018C000A8601C6300F0B4FA37BD431CFCD172B6AB
:1018D000FEE7C046A80100204C630008711A00080A
:1018E000A8000020024A9369013393617047C04603
:1018F000A8010020F7B5314CA369002B32D1304D3F
:101900002B6B013300932B63002B0ED1AB6A1B684A
:10191000002B01D072B6FEE7AB6AAA6BAA62AB637A
:10192000236A01332362FFF7CBFEEB6A009A00279C
:101930009A4207D3224DAB6A1B68002B17D10123B3
:101940005B42EB621E4B5A6BD16A14224A439B18CE
:101950001B6C012B00D90127A36A002B00D00127A3
:101960003800FEBD636A002701336362F4E7AB6AA7
:10197000009ADB68DE6873689A42E2D3331D180070
:101980000193FFF72DFDB36A002B03D03000183010
:10199000FFF726FDF36A2269934200D923611422DE
:1019A000280053434030C018311DFFF7F6FC6B6B25
:1019B000F26ADB6A9A42BDD30127BBE7A801002087
:1019C000A8000020F8B5284CA369002B01D172B6FD
:1019D000FEE700F0BDF9A369013BA361A569002DF5
:1019E00004D0002400F0C0F92000F8BD1F4EF36BB6
:1019F000002BF6D07369002B17D1002D01D0FFF713
:101A00005FFE656A002D09D00126FFF773FF0028ED
:101A100000D0A662013D002DF7D16562A36A002BBC
:101A2000DFD000F089F90124DCE7336ADD682800A3
:101A30002F1D1830FFF7D4FC3800FFF7D1FCEB6AFC
:101A40002269934200D9236114223000534340306D
:101A5000C0183900FFF7A1FC736BEA6ADB6A9A428F
:101A6000C8D30123A362C5E7A8010020A800002075
:101A700070B5154D6B69002B06D1144B1B6C012BF7
:101A8000F7D900F059F9F4E7FFF72CFF104C666F17
:101A9000FFF798FF002EECD0043400F059F9E36F03
:101AA000DC68201DFFF79CFC084AD36B013BD36325
:101AB0006B69013B6B6100F057F9206B00F06CFA29
:101AC000200000F069FAD4E7A8010020A800002057
:101AD00028010020154A70B59369002B02D001231C
:101AE000936270BD12481425040093621369403458
:101AF000290059430E59002E11D045186E6C08313B
:101B0000766861186E648E4201D17168696414212F
:101B100059434118496CC96841631361E1E7002BDF
:101B200001D172B6FEE7013BE2E7C046A801002002
:101B3000A800002010B50C00002801D172B6FEE705
:101B4000044B596B1831FFF734FC01212000FFF7DB
:101B5000C7FD10BDA8000020F8B5C368DC68002CE4
:101B600001D172B6FEE7270018373800FFF738FCBE
:101B7000104D114EAB69002B19D1271D3800FFF70E
:101B80002FFCE26A2B699A4200D92A6114233000A3
:101B900053434030C0183900FFF7FFFB736BE26A14
:101BA000DB6A00209A4201D90130A862F8BD3000FA
:101BB0001430F0E7A8010020A8000020002801D17F
:101BC00072B6FEE7034B1B6A0360034B1B6B43605B
:101BD0007047C046A8010020A800002070B504008E
:101BE0000D00002801D172B6FEE7002901D172B6BE
:101BF000FEE700F0ADF80F4B0026196B2B685A1C5E
:101C000013D00D4A2668106A6268864202D0012607
:101C100091420AD2881A0126834206D95B1A9B1880
:101C20002B602000FFF7CAFF002600F09DF830006F
:101C300070BDC046A8000020A80100200122014B71
:101C40009A627047A8010020044B01209A68002A7C
:101C500003D098694342584140007047A8010020D2
:101C600070B5041E01D1002070BD154D6B6B9842FC
:101C700001D072B6FEE7836C002B01D172B6FEE78D
:101C8000C26A416C013B83648A42ECD0002BEAD1EA
:101C9000061D3000FFF7A4FB0722636CD21AA26175
:101CA000084AE36211698B4200D9136128001425A8
:101CB0006B434030C0183100FFF76FFB0120D3E7C2
:101CC000A8000020A8010020034B1B68013301D0AD
:101CD00072B6FEE772B6FEE70400002000000000C6
:101CE0000B4A13681868203080F30988022080F3BB
:101CF0001488BFF36F8F3FBCAE4608BC04BC62B60D
:101D00001847C046C046C046C046C046C046C0464A
:101D1000DC00002010B58024031F64041C60043B19
:101D200019600349043B1960143B40381A6010BD28
:101D3000C91C0008704700008022044B52051A603D
:101D4000BFF34F8FBFF36F8F7047C04604ED00E0C5
:101D500072B6044A136801331360BFF34F8FBFF3A9
:101D60006F8F704704000020054A1368002B01D1D3
:101D700072B6FEE7013B1360002B00D162B67047DC
:101D800004000020EFF3108072B67047002080F34B
:101D900010887047000000000000000000000000F4
:101DA000EFF309800E4B1A6820381060F0C04446EB
:101DB0004D4656465F46F0C008B572B6FFF78AFE3C
:101DC00062B60CBC116808681030F0C8A046A9467D
:101DD000B246BB4680F309882038F0C81847C04691
:101DE000DC00002010B5FFF7CDFF0400FFF782FDF7
:101DF000002803D08022034B52051A602000FFF711
:101E0000C6FF10BD04ED00E0FA21064B10B51868BE
:101E10008900FEF78FF90722034B01381860034B46
:101E20001A6010BD2400002014E000E010E000E083
:101E3000FF220A4B1204196810B50A431A60FF22E8
:101E4000196812060A431A60FFF7DEFF0022044BEE
:101E50001A60FFF745FFFFF737FFC04620ED00E0AF
:101E6000040000200F4B30B51D001A68824217D3C2
:101E70005C681919884203D1416818000919596032
:101E800041684418A24206D1AC68A24203D054680B
:101E90001268611841600260984200D0186030BD3D
:101EA0001300E2E7D4010020F7B50400FFF71AFDA4
:101EB000364A374D9368002B1CD1110007330C3183
:101EC000194233D0110013319943324BD3185B1AA6
:101ED00007260020CB18083BB343506011605860C0
:101EE00018609360581A0B6080231B064860E860F6
:101EF00028616B616F693C4216D1002C14D023001D
:101F0000072108330B4201D08B430833002B0BD041
:101F10002E69B34208D810001468616800918B42A2
:101F200007D8926894420BD1002527E0C0231B01FB
:101F3000CEE721688C460029F3D020006446ECE708
:101F40000268019222680260009AD11A102908D909
:101F5000E018420701D072B6FEE741606360FFF708
:101F600081FF6368EA68F61A2E61964200D2EE603D
:101F70001F430023019D676008352360FFF722FDA2
:101F80006B0701D072B6FEE72800FEBDD401002029
:101F9000D40D00200C0C000070B500281AD00E4D96
:101FA000083843686A6904001A4201D172B6FEE734
:101FB0000168002901D072B6FEE793434360FFF742
:101FC00091FC2A69636820009B182B61FFF74AFF88
:101FD000FFF7F8FC70BDC046D40D002010B53F24BB
:101FE0000B799B069A0E0379A343134303718B6805
:101FF00040348360CB68C3600B7C5B065A0E037C65
:10200000A3431343F82203740B8A12011A40144CA1
:10201000038A23401343F82203820B6952020469A6
:102020001A40104B2340134303614B8A428A0E4CE3
:102030005B059B0D22405B00134343828B8ADB05CB
:10204000DA0D838A5B0A5B0213433E2283824B7D57
:102050003E211A40437D8B431343437510BDC04658
:102060007FF0FFFFFF0FFEFF01F8FFFFD222A0214C
:1020700010B5064C520004348900200000F092FD97
:10208000034A0449200001F030FB10BDEC0D002094
:1020900000000020492B0008F0B5FE4C91B0261D31
:1020A000300000F05CFE6A20142500F0B7FC8221AD
:1020B0000300502201950095490004A800F032FF6A
:1020C00004A9300000F0C4FD652000F0A7FC8C21BD
:1020D000030050220195009549000AA800F022FF54
:1020E0000AA904A8FFF77AFF0AA800F013FF04A9C1
:1020F000300000F0ADFD742000F090FC962103004C
:1021000050220195009549000AA800F00BFF0AA98A
:1021100004A8FFF763FF0AA800F0FCFE04A9300042
:1021200000F096FD702000F079FCA0210300502201
:102130000195009549000AA800F0F4FE0AA904A838
:10214000FFF74CFF0AA800F0E5FE04A9300000F0FC
:102150007FFD612000F062FCAA210300502201955E
:10216000009549000AA800F0DDFE0AA904A8FFF7BF
:1021700035FF0AA800F0CEFE04A9300000F068FD8B
:10218000632000F04BFCB421030050220195009520
:1021900049000AA800F0C6FE0AA904A8FFF71EFF1E
:1021A0000AA800F0B7FE04A9300000F051FD6B2032
:1021B00000F034FCBE210300502201950095490037
:1021C0000AA800F0AFFE0AA904A8FFF707FF0AA8B3
:1021D00000F0A0FE04A9300000F03AFD702000F0ED
:1021E0001DFC8C210300B4220195009549000AA82A
:1021F00000F098FE0AA904A8FFF7F0FE0AA800F074
:1022000089FE04A9300000F023FD6C2000F006FCDC
:1022100096210300B4220195009549000AA800F018
:1022200081FE0AA904A8FFF7D9FE0AA800F072FEF1
:1022300004A9300000F00CFD612000F0EFFBA021AC
:102240000300B4220195009549000AA800F06AFE37
:102250000AA904A8FFF7C2FE0AA800F05BFE04A9C1
:10226000300000F0F5FC792000F0D8FBAA21030033
:10227000B4220195009549000AA800F053FE0AA96E
:1022800004A8FFF7ABFE0AA800F044FE04A9300042
:1022900000F0DEFC682000F0C1FB8C22030052003D
:1022A00001950095DC210AA800F03CFE0AA904A8CB
:1022B000FFF794FE0AA800F02DFE04A9300000F0FC
:1022C000C7FC692000F0AAFB8C2203005200019594
:1022D0000095F0210AA800F025FE0AA904A8FFF73E
:1022E0007DFE0AA800F016FE04A9300000F0B0FC44
:1022F000672000F093FB8C2282210300520001959D
:10230000009549000AA800F00DFE0AA904A8FFF7ED
:1023100065FE0AA800F0FEFD04A9300000F098FC5C
:10232000682000F07BFB8C22520003001100019515
:1023300000950AA800F0F6FD0AA904A8FFF74EFED2
:102340000AA800F0E7FD04A9300000F081FC73202A
:1023500000F064FB8C229621030052000195009549
:1023600049000AA800F0DEFD0AA904A8FFF736FE1E
:102370000AA800F0CFFD04A9300000F069FC63203A
:1023800000F04CFB8C22A021030052000195009527
:1023900049000AA800F0C6FD0AA904A8FFF71EFE1E
:1023A0000AA800F0B7FD04A9300000F051FC6F202E
:1023B00000F034FB8C22AA21030052000195009505
:1023C00049000AA800F0AEFD0AA904A8FFF706FE1E
:1023D0000AA800F09FFD04A9300000F039FC72202B
:1023E00000F01CFB8C22B4210300520001950095E3
:1023F00049000AA800F096FD0AA904A8FFF7EEFD1F
:102400000AA800F087FD04A9300000F021FC652037
:1024100000F004FB8C22BE210300520001950095C0
:1024200049000AA800F07EFD0AA904A8FFF7D6FD1E
:102430000AA800F06FFD04A9300000F009FC732029
:1024400000F0ECFABE220300520001950095F02145
:102450000AA800F067FD0AA904A8FFF7BFFD0AA8B3
:1024600000F058FD04A9300000F0F2FB652000F0F8
:10247000D5FABE2282210300520001950095490041
:102480000AA800F04FFD0AA904A8FFF7A7FD0AA8B3
:1024900002E0C046EC0D002000F03CFD04A9300035
:1024A00000F0D6FB742000F0B9FABE228C210300A4
:1024B00052000195009549000AA800F033FD0AA9D1
:1024C00004A8FFF78BFD0AA800F024FD04A9300042
:1024D00000F0BEFB742000F0A1FABE22962103009A
:1024E00052000195009549000AA800F01BFD0AA9B9
:1024F00004A8FFF773FD0AA800F00CFD04A9300042
:1025000000F0A6FB692000F089FABE22A02103009A
:1025100052000195009549000AA800F003FD0AA9A0
:1025200004A8FFF75BFD0AA800F0F4FC04A9300042
:1025300000F08EFB6E2000F071FABE22AA2103008B
:1025400052000195009549000AA800F0EBFC0AA989
:1025500004A8FFF743FD0AA800F0DCFC04A9300042
:1025600000F076FB672000F059FABE22B421030088
:1025700052000195009549000AA800F0D3FC0AA971
:1025800004A8FFF72BFD0AA800F0C4FC04A9300042
:1025900000F05EFB732000F041FABE2252000300FF
:1025A0001100019500950AA800F0BCFC0AA904A836
:1025B000FFF714FD0AA800F0ADFC04A9300000F0FC
:1025C00047FBD2210623B4220195009549000AA8B1
:1025D00000F0A8FC0AA904A8FFF700FD0AA800F073
:1025E00099FC300004A900F033FB133D2E0003904A
:1025F000012E00D0C8E0674B1B78002B22D000F0E2
:102600002DFE002000F01CFE0021080000F02CFF31
:10261000614F01237A683968604800F011FF0A2190
:10262000002000F021FF012339687A685C4800F03F
:1026300007FF1421002000F017FF06CF012359489F
:1026400000F0FEFE022D39D0032D6AD0012DD2D12B
:10265000504E3378002B03D00021502000F004FFAF
:102660003378002B06D04C4A012311684E4852683B
:1026700000F0E6FED222B423201D5200039900F0A0
:1026800010FB23782F00002B06D12378002B02D1DA
:1026900000F036FAF9E7022763782E00002B0BD101
:1026A0006378002B02D100F02BFAF9E7201D00F02F
:1026B00056FB0423002623723D0099E7354F3B78F3
:1026C000002B03D00A21502000F0CEFE3B78002BD7
:1026D00006D0314A012311683348526800F0B0FE39
:1026E0008C23D2225B00201D5200039900F0D9FAFE
:1026F00023782F00002B06D12378002B02D100F085
:10270000FFF9F9E703276378002BD5D16378002B15
:1027100002D100F0F5F9F9E7201D00F020FB0223BB
:10272000C8E71C4F3B78002B03D01421502000F049
:102730009BFE3B78002B06D0174A012311681A48EC
:10274000526800F07DFEBE23D2225B00201D5200A5
:10275000039900F0A6FA23782F00002B06D12378E6
:10276000002B02D100F0CCF9F9E737006378002B99
:10277000A2D16378002B02D100F0C2F9F9E7201D45
:1027800000F0EDFA032395E704A800F0C3FB11B0B5
:10279000F0BDC046080000201C0000205563000862
:1027A0005A630008656300086E630008F0B5884E40
:1027B000A9B00436300000F0D2FA0524002201232B
:1027C0001100019400940AA800F0ACFB0AA93000A3
:1027D000022500F03DFA01230022059001950095A5
:1027E0001E2110A800F09EFB10A9300000F030FA66
:1027F0002A000123049001950095282116A800F0D5
:1028000091FB16A9300000F023FA0123042207905F
:102810000195009528211CA800F084FB1CA930001C
:1028200000F016FA01230622089001950095282150
:1028300022A800F077FB22A9300000F009FA0990E5
:10284000002000F0FDFC2B232B2702932A3B03934F
:10285000263500F055F9029BFB1A122B08DD039A6E
:10286000012A00D189E0192B00DD9DE02C2B03DC2F
:10287000039A002A00D1A5E0002C1FDD00260136B6
:10288000A642FCD1099B524C0193089B043400934F
:10289000049A079B05992000F71900F02CFA0128EB
:1028A00004D10499200000F015FA0290029B340034
:1028B000BB4221DD0123062403931DE0002C1BD025
:1028C0000023624201339A42FCD1099B404E01939E
:1028D000089B0436BF1A0093049A079B05993000A1
:1028E00000F009FA012804D10499300000F0F2F94F
:1028F0000290029B9F42DDDB354A1178002904D10A
:102900007720EB0FA8424B41ED185378002B03D1F1
:10291000EB175B1BDB0FED1A01222D4E0692B378ED
:10292000002B02D19218327206930436300000F068
:10293000F3F9AAB200230499300000F0B2F90023A1
:10294000BAB20599300000F0ACF9300000F080FA1E
:10295000069B012B00D17CE722A800F0DBFA1CA823
:1029600000F0D8FA16A800F0D5FA10A800F0D2FAB4
:102970000AA800F0CFFA29B0F0BD0424192B06DD17
:102980000324232B03DD01242D2B13DC24192C2BF2
:1029900000DD73E770E70324222B16DC0624644273
:1029A000182B0CDD02348BE7232B00DC5EE72D2B8C
:1029B00000DC5BE7322B00DC58E701246442002393
:1029C00003937DE7292BE6DD0224644278E7C046C5
:1029D000EC0D00200F4B70B51B78002B01D000F0E0
:1029E00061FC002301250C4C2372207A0428FDD8B9
:1029F000FDF796FB03070B0A0C0000F080F8257228
:102A0000F3E7FFF749FBF0E7FEE7FEE7FFF7CEFE4F
:102A1000EBE7C04608000020EC0D00200300072073
:102A2000312B6BD00130322B68D00130332B65D085
:102A30000130342B62D00130352B5FD00130362B82
:102A40005CD00130372B59D00130382B56D00130B3
:102A5000392B53D00130302B50D00130612B4DD069
:102A60000130622B4AD00130632B47D00130642BF8
:102A700044D00130652B41D00130662B3ED001306F
:102A8000672B3BD00130682B38D00130692B35D013
:102A900001306A2B32D001306B2B2FD001306C2BE0
:102AA0002CD001306D2B29D001306E2B26D0013077
:102AB0006F2B23D00130702B20D00130712B1DD013
:102AC0000130722B1AD00130732B17D00130742BC8
:102AD00014D00130752B11D00130762B0ED001307F
:102AE000772B0BD00130782B08D00130792B05D013
:102AF0007A3B581E834158422A2318437047704737
:102B000010B50D4C08212000FDF7E0FC431E984154
:102B10000A4B102118702000FDF7D8FC431E984185
:102B2000074B202118702000FDF7D0FC431E984170
:102B3000044B187010BDC04600040048EC0D002086
:102B4000ED0D0020EE0D002070B50600040005001C
:102B50000D4B5936083391340360FF36FF34B442CD
:102B600005D0083C236820001B689847F7E72E0033
:102B70001836B44205D0203C236820001B689847D3
:102B8000F7E7280070BDC046E03A000810B5040021
:102B9000FFF7DAFFC8212000490000F0ADFD20005A
:102BA00010BD0000294BF7B508330600036005008F
:102BB000002304000F00593601928360C360037440
:102BC00083751835FF362800203500F097F9AE429E
:102BD000F9D1002330001A00190000F005FA200096
:102BE0006130012312221121FF3000F0FDF9200095
:102BF000693002231E221D21FF3000F0F5F920006C
:102C00007130032313221221FF3000F0EDF9200070
:102C10007930042313221221FF3000F0E5F920005F
:102C2000813005230A222821FF3000F0DDF9200041
:102C30000022893006231100FF3000F0D5F96B46E1
:102C40009B8867822000A382FEBDC046E03A000850
:102C5000836830B5C268002B13D1002A11D1037CE0
:102C600081605C1C0474C160980680163F240500D6
:102C70000B792540A3432B430B718A60CA60C0B215
:102C800030BD9160CA60037CC1605A1C0274980612
:102C900080163F2204000B791440934323430B71A9
:102CA000EDE770B51D008468002C10D023799B06D9
:102CB0009B168B4209D11100200000F07BF9200007
:102CC000290000F081F9012070BDA468ECE7012023
:102CD0004042F9E78368002B0AD01A7992069216CF
:102CE0008A4203D1588A4005801570479B68F2E7F5
:102CF00001204042F9E730B58368002B0AD01879EB
:102D000080068016884200D11D00904200D11C0030
:102D10009B68F2E7012030BD70B5040000F09EFA18
:102D2000A468002C1AD00025238A1B05DB169D42BF
:102D3000F6DA00262369DB03DB169E420CDA608A92
:102D4000A18A4005801589194019C9B2C0B2002274
:102D500000F0FCFA0136EDE70135E5E770BD002330
:102D60008360C36003747047312007296FD001303E
:102D700008296CD00130092969D001300A2966D0B0
:102D800001300B2963D001300C2960D001300D29AE
:102D90005DD001300E295AD001300F2957D00938A3
:102DA000102954D03130112951D0013012294ED080
:102DB000013013294BD00130142948D00130152996
:102DC00045D00130162942D0013017293FD00130BB
:102DD00018293CD00130192939D001301A2936D0B0
:102DE00001301B2933D001301C2930D001301D297E
:102DF0002DD001301E292AD001301F2927D00130C3
:102E0000202924D00130212921D0013022291ED0AF
:102E1000013023291BD00130242918D00130252965
:102E200015D00130262912D0013027290FD00130CA
:102E300028290CD00130292909D001302A2906D0AF
:102E40003E382B2903D002302C2900D0C1307047E6
:102E5000F8B507008468002C36D0217C002549068F
:102E60004916062918DD3800FFF77EFF0500238A82
:102E7000608A1B054005DB168015C018217DC0B295
:102E800000F0F2FA114A012311682800526800F09C
:102E900081FAA468DFE70135238A1B05DB169D4212
:102EA000F7DA00262369DB03DB169E42F3DA608A39
:102EB000A18A4005801589194019C9B2C0B2012202
:102EC00000F044FA0136EDE7F8BDC0461C000020D2
:102ED00010B50400034B08330360083000F014FC05
:102EE000200010BDF03A000810B50400FFF7F0FF15
:102EF0002000202100F000FC200010BD044B08330E
:102F000003600300103383600023C36003747047C1
:102F1000F03A0008704710B50400182100F0ECFBEF
:102F2000200010BDF0B51F4E89050836066000264A
:102F30001D4F8660C6604E0D418AD205394031432F
:102F400003263E274182D10D828A069C520A5202F4
:102F50000A43E1173140059D091989101C364919AA
:102F600082823140120ABA43490011434175028AF4
:102F70000E4935400A40ED011543058201690C4AAE
:102F8000344024030A4022437F2423401900026175
:102F9000D3B23F22A3430B430374037993430371DA
:102FA000F0BDC046003B000801F8FFFF7FF0FFFFC7
:102FB000FF0FFEFF89054B0D024A418A114019435C
:102FC0004182704701F8FFFFC905CB0D818A490A8C
:102FD0004902194381827047704710B504000821E7
:102FE00000F08AFB200010BD30B50B4C0B4D0834AF
:102FF00004601F242140848889012C400C43D200A6
:10300000090A114341713F210B401A00E3B28B437F
:103010001343037130BDC046103B00083FF8FFFF6B
:10302000022310B594B00893013B0B930F330C931C
:10303000002308A81093FDF7BBFC011E00D0FEE79B
:10304000072301900290039068460093FDF7C4FEA9
:10305000002800D0FEE72023079004A80493FDF782
:1030600083FF041E00D0FEE7FDF74CFFFA21890024
:10307000FDF760F8FDF752F90420FDF769F901202A
:10308000220003214042FDF70FF914B010BD0000EB
:1030900030B58BB0FDF7DAF8FFF7C2FF80204B4B5D
:1030A000800259690024014359615A69012502408F
:1030B00080200292029A596940030143596180219C
:1030C0005A69C90202400392039A5A6940480A4366
:1030D0005A615B6906940B400493049B042305A981
:1030E00005930794FDF742F938233A4805A905935B
:1030F00006940795FDF73AF93748384B846003602A
:1031000082235B004360E023DB00C36080239B00DD
:103110008361FA3BFF3BC3625B1904614461C46194
:1031200004624462846204634363FDF7A1FFA0422A
:1031300000D0FEE72A4B2B4A58609860D86098610F
:1031400018001A60FEF7ECF8002800D0FEE7264BC6
:10315000264A58609860D8601861986118001A6013
:10316000FEF7DEF8002800D0FEE7214C214BA060DE
:103170002360214B20616061A061E061206220003A
:103180006360E560FDF7BAFA011E00D0FEE720009B
:10319000FDF7C4FB011E00D0FEE72000FDF7E4FBB5
:1031A000041E00D0FEE7059005A8FEF7DBF8134BE0
:1031B00080221860032312490093019423001148D0
:1031C000FEF7B8FAFEF7C9F8FEE7C0460010024065
:1031D000000C00480004004830120020003001407C
:1031E0002813002000100040E812002000200040BA
:1031F00098120020005400400E0900209412002074
:1032000071630008D5290008034B026810B59A4283
:1032100001D1FDF72BF810BD002C01407FB517221E
:103220000A236A4410700293093B00920193002222
:1032300078210248FDF7B8FA07B000BD98120020C7
:10324000421E90418022002303494042920058547C
:1032500001339342FBD17047800F00207FB50024DB
:103260006426802520005038C0B2FFF7D7FF002029
:10327000FFF7D4FF1020FFF7D1FF084BE2019B18A6
:1032800000930296019501234022782104480134DD
:10329000FDF78AFA082CE5D17FBDC046800F0020DB
:1032A0009812002010B56420FCF7EEFFAE20FFF767
:1032B000B5FF2020FFF7B2FF0020FFF7AFFF81200E
:1032C000FFF7ACFFF020FFF7A9FFA620FFF7A6FF4E
:1032D000A820FFF7A3FF1F20FFF7A0FFA420FFF700
:1032E0009DFFD320FFF79AFF0020FFF797FFD5201F
:1032F000FFF794FF8020FFF791FFD920FFF78EFFA3
:103300002220FFF78BFFDA20FFF788FF0220FFF76C
:1033100085FFDB20FFF782FF4020FFF77FFF8D2036
:10332000FFF77CFF1420FFF779FFAF20FFF776FF50
:103330000020FFF785FFFFF791FF00220120024BDD
:103340001A805A80587110BD8011002043B210B508
:10335000002B14DB1F2912D80C4B1B79002B02D039
:1033600053425A41D2B2CB08DB0118180723084C4C
:103370001940012A04D18A40235C1A43225410BD0B
:1033800001228A40235C93432354F8E780110020F4
:10339000800F0020F0B58BB00593CBB20393274B81
:1033A0000891099203991A880600029252187F2AFE
:1033B00041DC08AA527804925C88A3181F2B3ADCDF
:1033C0003300203B5A4300230792E4B20193019B50
:1033D000049A934208D3039A029B9446174A634483
:1033E000138030000BB0F0BD079A019B00279B189B
:1033F000099A5B009B5A06936B461D7A039B9F427A
:1034000005D3019B013401330193E4B2DFE7069B4E
:103410008022BB401202134208D0059A28002100E6
:103420000135FFF793FF0137EDB2E7E7059A534205
:103430005A41D2B2F2E70026D3E7C04680110020FD
:1034400037B504001D00009101922078002800D1BA
:103450003EBD2B000099019AFFF79CFF03002078E6
:103460008342F5D10134F0E7014B18805980704751
:103470008011002007B50120114B99690143996122
:1034800080219A69490502400092009ADA6906385B
:103490000A43DA610022DB690B4001931100019BB2
:1034A000FCF702FF0220002203214042FCF7FCFE51
:1034B0000120002203214042FCF7F6FE07BDC04672
:1034C000001002407FB50F4B02689A4217D1C0230B
:1034D0009B00019312230322029301A9113B0A4886
:1034E000039304920593FCF741FF8020074A800371
:1034F000D1690143D161D36903400093009B07B0B8
:1035000000BDC046005400400004004800100240C6
:103510007FB50F4B02689A4217D180200D4A4001B7
:103520009169014391619369032203400093009BD9
:10353000E02390200193DE3B0293002301A9C00504
:10354000039304920593FCF711FF07B000BDC0463A
:10355000003001400010024003680E4A82B09342DE
:103560000AD110200C4AD1690143D161D3690340CB
:103570000093009B02B07047084A9342FAD1802022
:10358000054A4000D1690143D161D36903400193E9
:10359000019BEFE7001000400010024000200040B7
:1035A00010B5010086B000220D20FCF77DFE0D2035
:1035B000FCF7AAFE8020144A000191690143916141
:1035C000936969460340019302A8019BFDF7B0FC93
:1035D000FDF79EFC0D4C0E4B0E4923600E4BE36035
:1035E000FCF7A8FD00230138606020002361A36080
:1035F000FDF796FE03000120002B02D12000FDF70D
:1036000095FD06B010BDC046001002406C130020AE
:10361000002C014040420F00E70300007047FEE726
:1036200010B5FDF7A4FE10BD10B50248FDF78CFDE6
:1036300010BDC0466C1300200121114B11481A68BF
:103640000A431A605A6802405A601A680E480240DB
:103650001A601A680D4802401A605A680C48024005
:103660000F205A60DA6A8243DA621A6B0948024014
:103670001A635A6B8A435A6300229A607047C046A5
:10368000001002400CB8FF08FFFFF6FEFFFFFBFF33
:10369000FFFFC0FFECFEFFFF0D4885460D480E49B9
:1036A0000E4A002302E0D458C4500433C4188C429C
:1036B000F9D30B4A0B4C002301E013600432A24201
:1036C000FBD3FFF7B9FF00F06BF9FFF7E1FCFEE772
:1036D00000200020000000208C000020F86300087B
:1036E0008C000020AC130020FEE70B0010B5010099
:1036F000180000F047F910BD10B500F001F810BD3A
:1037000010B500F071F910BD03000068083310B562
:10371000984201D0FFF7F4FF10BD00000123214AB9
:103720001168194200D113601F4A1168194200D173
:10373000136001231D4A1168194200D113601C4A0D
:103740001168194200D1136001231A4A1168194205
:1037500000D11360184A1168194200D11360012387
:10376000164A1168194200D11360154A11681942AE
:1037700000D113600123134A1168194200D113606C
:10378000114A1168194200D1136001230F4A1168D0
:10379000194200D113600E4A1168194200D113601A
:1037A0007047C046B4110020B0110020AC110020B9
:1037B000A8110020A4110020A01100209C110020BD
:1037C0009811002094110020901100208C110020ED
:1037D000881100200123214A1168194200D1136089
:1037E0001F4A1168194200D1136001231D4A116854
:1037F000194200D113601C4A1168194200D11360AC
:1038000001231A4A1168194200D11360184A11683D
:10381000194200D113600123164A1168194200D1E0
:103820001360154A1168194200D113600123134A2D
:103830001168194200D11360114A1168194200D170
:10384000136001230F4A1168194200D113600E4A18
:103850001168194200D113607047C046E41100207E
:10386000E0110020DC110020D8110020D41100202C
:10387000D0110020CC110020C8110020C41100205C
:10388000C0110020BC110020B81100200123164AED
:103890001168194200D11360144A1168194200D10D
:1038A00013600123124A1168194200D11360114AB2
:1038B0001168194200D1136001230F4A116819429F
:1038C00000D113600D4A1168194200D11360012321
:1038D0000B4A1168194200D113600A4A1168194253
:1038E00000D113607047C04604120020001200206F
:1038F000FC110020F8110020F4110020F01100202C
:10390000EC110020E81100200123164A1168194229
:1039100000D11360144A1168194200D113600123C9
:10392000124A1168194200D11360114A11681942F4
:1039300000D1136001230F4A1168194200D11360AE
:103940000D4A1168194200D1136001230B4A116816
:10395000194200D113600A4A1168194200D113605C
:103960007047C04624120020201200201C120020A4
:103970001812002014120020101200200C12002037
:103980000812002070B5054C05001300201E04D05D
:103990000A000220290000E000BF70BD0000000006
:1039A00070B500260C4D0D4C641BA410A64209D125
:1039B000002600F079F80A4D0A4C641BA410A642B8
:1039C00005D170BDB300EB5898470136EEE7B30060
:1039D000EB5898470136F2E7DC630008DC63000827
:1039E000DC630008F463000810B5034B010018689D
:1039F00000F00EF810BDC04628000020002310B5CE
:103A00009A4200D110BDCC5CC4540133F8E70000E9
:103A100070B50500002910D00C1F2368002B00DAB8
:103A2000E418280000F03EF81D4A1368002B05D169
:103A300063601460280000F036F870BDA34209D915
:103A4000216860188342F3D118685B6841182160CF
:103A5000EEE713005A68002A01D0A242F9D919688A
:103A60005818A0420BD120680918581819608242D2
:103A7000E0D110685268411819605A60DAE7A04234
:103A800002D90C232B60D5E721686018824203D14C
:103A9000106852684118216062605C60CAE7C046E5
:103AA0002812002070477047F8B5C046F8BC08BC23
:103AB0009E467047F8B5C046F8BC08BC9E467047A5
:103AC00002030405060708090A0B0C0D0E0F10105F
:103AD0000102030405060708090A0B0C0D0E0F105E
:103AE0000000000000000000492B00088D2B00089A
:103AF0000000000000000000D12E0008E92E0008A0
:103B00000000000000000000152F0008172F00081B
:103B10000000000000000000D92F0008DB2F000883
:103B20000000000000000000000000000000000095
:103B30000000000000000000000000000000000085
:103B40000000000000000000000000000000000075
:103B500000000000E003E003E003E003E003E00313
:103B6000E003E003C003C003C001C001C001C00105
:103B7000C001000000000000E003E003E0030000DB
:103B800000000000000000003C1E3C1E3C1E3C1ECD
:103B90003C1E3C1E3C1E0000000000000000000017
:103BA0000000000000000000000000000000000015
:103BB000000000000000000000000000CE01CE0365
:103BC000DE039E039C039C07FF3FFF7F3807380FEF
:103BD000780F780F780EFFFFFFFFF01EF01CE01C3F
:103BE000E03CE03DE0390000000000000000000083
:103BF000FC03FE0FEE1FE01EE01EE01EE01EE01FB5
:103C0000E00FE007F003FC01FE01FE01FE01FE01F2
:103C1000FE01FE01FE3DFC3FF00FE001E00100006F
:103C200000000000033E07F78FE78EE79EE3BCE34A
:103C3000B8E7F8E7F0F7E03FC001FF03FF07F3073D
:103C4000F30FF31EF33CF338F3787FF03FE000000E
:103C50000000000000000000E007F80F780F781F58
:103C6000781F781F780FF00FE00F801FC37FC3FB12
:103C7000E7F3F7F1F7F0FFF07FF03EF87F7CFF3FCE
:103C8000EF1F00000000000000000000E003E00360
:103C9000E003E003E003C003C001000000000000F7
:103CA0000000000000000000000000000000000014
:103CB0000000000000000000000000000000000004
:103CC0003F007C00F001E001C003C00780078007CF
:103CD000800F000F000F000F000F000F000F800F6C
:103CE00080078007C007C003E001F0017C003F00AF
:103CF0000F000000007E001FC007C003E001F001BC
:103D0000F000F000F8007800780078007800780083
:103D10007800F800F000F000F001E001C003C007F7
:103D2000001F007E00780000E003C003C001CE3910
:103D3000FF3F7F3F20037003F807780F3C1F3806D2
:103D40000000000000000000000000000000000073
:103D50000000000000000000000000000000000063
:103D60000000000000000000C001C001C001C0014F
:103D7000C001C001C001FFFFFFFFC001C001C001C1
:103D8000C001C001C00100000000000000000000F0
:103D90000000000000000000000000000000000023
:103DA0000000000000000000000000000000000013
:103DB0000000E003E003E003E003E001E001E001D4
:103DC000C0018003000000000000000000000000AF
:103DD00000000000000000000000FE3FFE3F000069
:103DE00000000000000000000000000000000000D3
:103DF00000000000000000000000000000000000C3
:103E000000000000000000000000000000000000B2
:103E100000000000000000000000E003E003E003F9
:103E2000E003000000000000000000000F000F0091
:103E30001E001E003C003C0078007800F000F000FE
:103E4000E001E001C003C00380078007000F000FFE
:103E5000001E001E003C003C0078007800F00000CE
:103E6000F007F80F7C1F3E3E1E3C1F7C1F7C0F7826
:103E70000F780F780F780F780F780F781F7C1F7CE2
:103E80001E3C3E3E7C1FF80FF007000000000000C3
:103E900000000000F000F007F03FF03FF001F001FB
:103EA000F001F001F001F001F001F001F001F0018A
:103EB000F001F001F001F001F001FF3FFF3F0000D1
:103EC0000000000000000000E00FF83F7C3C3C00D8
:103ED0003E003E003E003C003C007C00F800F0014B
:103EE000E003C0078007000F001E003E003CFE3FBD
:103EF000FE3F00000000000000000000F00FF81F6F
:103F00007C1C3E003E003E003C003C00F800F00FF0
:103F1000F80F7C003E001E001E001E001E003E002A
:103F20007C1CF81FE01F00000000000000000000E3
:103F30007800F800F800F801F803F807F807780FA0
:103F4000781E781E783C78787878FFFFFFFF78003D
:103F50007800780078007800780000000000000009
:103F600000000000FC1FFC1FFC1F001E001E001EA6
:103F7000001E001EE01FF81FFC007C003E003E00FB
:103F80001E003E003E003C007C1CF81FE01F0000AD
:103F90000000000000000000FC01FE078E0F001F63
:103FA000001E003E003C003CF83DFC3F3E7F1F7E73
:103FB0000F3C0F3C0F3C0F3C0F3E1F1E3E1FFC0FE3
:103FC000F00300000000000000000000FF3FFF3F82
:103FD000FF3F0F001E001E003C0038007800F0007C
:103FE000F000E001E001C003C0038007800F800FF4
:103FF000000F001F001F0000000000000000000074
:10400000F807FC0F3E1F1E1E1E3E1E3E1E1E3C1FBE
:10401000F80FF007F80FFC1E3E3E1F3C1F7C0F7C84
:104020000F7C1F3C3E3FFC1FF0070000000000001B
:1040300000000000F007F80F7C1E3E3C1E3C1F7C79
:104040001F7C1F7C1F7C1F3C3F3EFF1FEF071F0094
:104050001E001E003E003C00F838F03FE01F00004C
:104060000000000000000000000000000000000050
:1040700000000000E003E003E003E00300000000B4
:1040800000000000000000000000E003E003E00387
:10409000E00300000000000000000000000000003D
:1040A0000000000000000000E003E003E003E00384
:1040B0000000000000000000000000000000E0031D
:1040C000E003E003E003E001E001E001C00380035E
:1040D00000000000000000000000000003000F00CE
:1040E0003F00FC00F003C00F003F00FE003FC00F88
:1040F000F003FC003F000F00030000000000000080
:1041000000000000000000000000000000000000AF
:104110000000000000000000FFFFFFFF00000000A3
:104120000000FFFFFFFF0000000000000000000093
:10413000000000000000000000000000000000007F
:104140000000000000E000F8007E801FE007F8019A
:104150007E001F007E00F801E007801F007E00F84F
:1041600000E000000000000000000000F01FFC3F25
:104170003E381F381F381E001E003C007800F0003B
:10418000E001C003C003C007C0070000000000003A
:10419000C007C007C00700000000000000000000CA
:1041A000F803FE0F1E1F0F3E7F3CFF78EF79C773A9
:1041B000C7F38FF38FF38FF39FF39FF3FF73FF7BAF
:1041C000F779003C1C1FFC0FF80300000000000002
:1041D00000000000000000000000E003E003F00722
:1041E000F007F007780F780F7C0E3C1E3C1E3E3C1B
:1041F000FE3FFF3F1F780F780FF007F007F0000039
:104200000000000000000000000000000000F83F77
:10421000FC3F3E3C1E3C1E3C1E3C3E3C7C3CF03F7A
:10422000F83F7E3C1F3C1F3C0F3C0F3C1F3CFE3FB9
:10423000F83F000000000000000000000000000047
:104240000000FF01FF07871F003E003C007C007854
:104250000078007800780078007C007C003E003F09
:10426000831FFF07FF0100000000000000000000A6
:10427000000000000000F07FFC7F7E781F781F7830
:104280000F780F780F780F780F780F780F780F78F6
:104290001F781E787E78F87FE07F00000000000025
:1042A00000000000000000000000FF3FFF3F003E54
:1042B000003E003E003E003E003EFE3FFE3F003E10
:1042C000003E003E003E003E003EFF3FFF3F00003C
:1042D0000000000000000000000000000000FF1FC0
:1042E000FF1F001E001E001E001E001E001EFF1FDE
:1042F000FF1F001E001E001E001E001E001E001ECE
:10430000001E00000000000000000000000000008F
:104310000000FE03FF0F871F003E007C007C00783A
:1043200000F800F87FF87FF80F780F7C0F7C0F3EC5
:104330008F1FFF0FFE0300000000000000000000C0
:104340000000000000001F7C1F7C1F7C1F7C1F7C66
:104350001F7C1F7C1F7CFF7FFF7F1F7C1F7C1F7CBF
:104360001F7C1F7C1F7C1F7C1F7C00000000000046
:1043700000000000000000000000FF3FFF3FE003DE
:10438000E003E003E003E003E003E003E003E00315
:10439000E003E003E003E003E003FF3FFF3F000032
:1043A0000000000000000000000000000000FC1FF2
:1043B000FC1F7C007C007C007C007C007C007C007E
:1043C0007C007C007C007C0078007800F838F03FAE
:1043D000C03F0000000000000000000000000000DE
:1043E00000001F3C1E3C3C3C783CF03CE03DE03F84
:1043F000C03F803FC03FE03FF03DF03C783C7C3C1C
:104400003E3C1F3C0F3C000000000000000000008C
:10441000000000000000003E003E003E003E003E66
:10442000003E003E003E003E003E003E003E003E9C
:10443000003E003E003EFF3FFF3F00000000000046
:10444000000000000000000000001FF81FFC1FFC1F
:104450003FFE3FFE3FFE7FFF77FF77FFF7F7E7F76F
:10446000E7F3E7F3C7F307F007F007F007F0000002
:1044700000000000000000000000000000000F7CB1
:104480000F7C0F7E0F7F0F7F8F7F8F7FCF7FEF7B24
:10449000EF79FF79FF78FF787F783F783F781F7852
:1044A0001F78000000000000000000000000000075
:1044B0000000F007FC1F3E3E1F7C0F780F780FF8BE
:1044C0000FF80FF80FF80FF80FF80F780F781F7C20
:1044D0003E3EFC1FF007000000000000000000004E
:1044E000000000000000FC3FFF3F1F3E0F3E0F3E5C
:1044F0000F3E0F3E1F3E3F3EFC3FF03F003E003E62
:10450000003E003E003E003E003E00000000000075
:1045100000000000000000000000F007FC1F3E3E0D
:104520001F7C0F780F780FF80FF80FF80FF80FF8BF
:104530000FF80F780F781F7C3E3EFC1FF8077C00B9
:104540003F000F0003000000000000000000F03FEB
:10455000FC3F7E3C3E3C1E3C1E3C3E3C3C3CFC3C0E
:10456000F03FE03FF03DF83C7C3C3E3C1E3C1F3CB5
:104570000F3C0000000000000000000000000000F0
:104580000000FC07FE1F0E3E003C003C003C003ECD
:10459000C01FF80FFE037F001F000F000F001F2039
:1045A0003E3CFC3FF01F0000000000000000000047
:1045B000000000000000FFFFFFFFE003E003E00356
:1045C000E003E003E003E003E003E003E003E003D3
:1045D000E003E003E003E003E0030000000000006C
:1045E000000000000000000000000F7C0F7C0F7C2A
:1045F0000F7C0F7C0F7C0F7C0F7C0F7C0F7C0F7C63
:104600000F7C0F7C1E3C1E3C3E3EFC1FF007000052
:10461000000000000000000000000000000007F0A3
:1046200007F007F80F780F7C1E3C1E3C1E3E3C1E18
:104630003C1F781F780FF80FF007F007F007E00332
:10464000E003000000000000000000000000000087
:10465000000003E003F003F007F0E7F3E7F3E7F30C
:10466000E773F77BF77FFF7F7F7F7F7F7E7F7E3FD4
:104670003E3E3E3E3E3E00000000000000000000C6
:1046800000000000000007F80F7C1E3E3E3E3C1F6D
:10469000F80FF007E007E003E003F007F80F7C0FE6
:1046A0007C1E3E3C1F780F780FF0000000000000D9
:1046B0000000000000000000000007F807780F7CF1
:1046C0001E3C1E3E3C1F780FF80FF007E003E0038E
:1046D000E003E003E003E003E003E003E0030000A5
:1046E0000000000000000000000000000000FF7F4C
:1046F000FF7F0F001F003E007C00F800F000E0018B
:10470000E003C007800F000F001E003E007CFF7F0B
:10471000FF7F00000000000000000000FF0780078E
:104720008007800780078007800780078007800751
:104730008007800780078007800780078007800741
:1047400080078007800780078007FF07FF070000BA
:1047500000780078003C003C001E001E000F000F97
:1047600080078007C003C003E001E001F000F00013
:10477000780078003C003C001E001E000F000F0077
:1047800007000000F07FF000F000F000F000F00003
:10479000F000F000F000F000F000F000F000F00099
:1047A000F000F000F000F000F000F000F000F00089
:1047B000F000F07FF07F0000C000C001C001E00306
:1047C000E003F007F0077807780F380F3C1E3C1E17
:1047D0001E3C1E3C0F380F780778000000000000D8
:1047E00000000000000000000000000000000000C9
:1047F00000000000000000000000000000000000B9
:1048000000000000000000000000000000000000A8
:10481000000000000000FFFFFFFF0000000000009C
:10482000F000000000000000000000000000000098
:104830000000000000000000000000000000000078
:104840000000000000000000000000000000000068
:104850000000000000000000000000000000000058
:10486000F80FFC3F7C3C3E003E003E00FE07FE1F72
:104870003E3E3E7C3E783E7C7E7CFF3FCF1F00006C
:104880000000000000000000003C003C003C003C38
:10489000003C003CF83DFE3F3E3F1F3E0F3C0F3CBE
:1048A0000F3C0F3C0F3C0F3C1F3C1E3C3E3FFC3F6F
:1048B000F03B0000000000000000000000000000CD
:1048C0000000000000000000FE03FF0F871F003EF5
:1048D000003E003C007C007C007C003C003E003E32
:1048E000871FFF0FFE030000000000000000000013
:1048F0001F001F001F001F001F001F00FF07FF1FDA
:104900003F3E1F3C1F7C1F7C1F7C1F781F781F7C35
:104910001F7C3F3C7F3EFF1FDF0F000000000000B8
:104920000000000000000000000000000000000087
:10493000F803FC0F3E1F1E3E1F3C1F7CFF7FFF7FC6
:10494000007C007C003C003E071FFF0FFE030000C0
:104950000000000000000000FF01E103C003C007E9
:10496000C007C007FF7FFF7FC007C007C007C007A1
:10497000C007C007C007C007C007C007C007C007FF
:10498000C007000000000000000000000000000060
:104990000000000000000000EF07FF1F7F3E1F3CEB
:1049A0001F7C1F7C1F781F781F781F7C1F7C3F3C5B
:1049B0007F3EFF1FDF0F1E001E001E007C38F83FE9
:1049C000003C003C003C003C003C003CFC3DFE3F09
:1049D0009E3F1F3F1F3E1F3C1F3C1F3C1F3C1F3C78
:1049E0001F3C1F3C1F3C1F3C1F3C00000000000000
:1049F00000000000F001F0010000000000000000D5
:104A0000E07FE07FE001E001E001E001E001E001A2
:104A1000E001E001E001E001E001E001E00100006F
:104A20000000000000000000F800F8000000000096
:104A300000000000F83FF83FF800F800F800F80028
:104A4000F800F800F800F800F800F800F800F800A6
:104A5000F800F800F800F000F071E07F003C003C46
:104A6000003C003C003C003C1F3C3E3C7C3CF83C95
:104A7000F03DE03DC03FC03FE03FF03DF83C7C3CB6
:104A80003E3C1F3C1F3C00000000000000000000F6
:104A9000F07FF001F001F001F001F001F001F00110
:104AA000F001F001F001F001F001F001F001F0017E
:104AB000F001F001F001F001F00100000000000041
:104AC00000000000000000000000000000000000E6
:104AD0009EF7FFFFFFFFFFFFE7FBE7F9C7F1C7F115
:104AE000C7F1C7F1C7F1C7F1C7F1C7F1C7F10000BE
:104AF00000000000000000000000000000000000B6
:104B000000000000FC3DFE3F9E3F1F3F1F3E1F3C3C
:104B10001F3C1F3C1F3C1F3C1F3C1F3C1F3C1F3CBD
:104B20001F3C00000000000000000000000000002A
:104B30000000000000000000F007FC1F3E3E1F3C8C
:104B40001F7C0F780F780F780F780F781F7C1F3C31
:104B50003E3EFC1FF00700000000000000000000C7
:104B6000000000000000000000000000F83DFE3FD3
:104B70003E3F1F3E0F3C0F3C0F3C0F3C0F3C0F3C99
:104B80001F3C1E3E3E3FFC3FF83F003C003C003CCB
:104B9000003C003C0000000000000000000000009D
:104BA000EE07FE1F7E3E1E3C1E7C1E781E781E7881
:104BB0001E781E781E7C3E7C7E3EFE1FDE0F1E0091
:104BC0001E001E001E001E0000000000000000006D
:104BD000000000007F1FFF1FE71FC71F871F001F68
:104BE000001F001F001F001F001F001F001F001FCD
:104BF000001F000000000000000000000000000096
:104C00000000000000000000FC07FE1F0E1E003E1A
:104C1000003E003FE01FFC07FE003E001E001E009D
:104C20003E3CFC3FF01F00000000000000000000C0
:104C3000000000000000800780078007FF7FFF7FE3
:104C4000800780078007800780078007800780072C
:104C500080078007C007FF03FF010000000000007D
:104C60000000000000000000000000000000000044
:104C70001E3C1E3C1E3C1E3C1E3C1E3C1E3C1E3C64
:104C80001E3C1E3C3E3C7E3CFE3EFE1FDE0F0000F6
:104C90000000000000000000000000000000000014
:104CA0000000000007F00F780F781E3C1E3C1E3EEF
:104CB0003C1E3C1E780F780FF00FF007F007E00362
:104CC000E003000000000000000000000000000001
:104CD000000000000000000003F0E3F1E3F3E7F35D
:104CE000F7F3F7F3F77F777F7F7F7F7F7F7F3E3E0E
:104CF0003E3E3E3E3E3E0000000000000000000040
:104D00000000000000000000000000000F7C1E3EBC
:104D10003C3E3C1FF80FF007F007E003F007F807F0
:104D2000F80F7C1E3E3E1F3C1F7800000000000074
:104D30000000000000000000000000000000000073
:104D400007F80F780F7C1E3C1E3C3C1E3C1E3C1F8F
:104D5000780FF80FF007F007E003E003C003C0038B
:104D6000C0038007800F007F0000000000000000EB
:104D700000000000FF3FFF3F1F003E007C00F800E6
:104D8000F001E003C007800F001F001E003CFF7F02
:104D9000FF7F00000000000000000000FE01E003B3
:104DA000C003C003C003C003E001E001E001C00193
:104DB000C003803F803FC003C001E001E001E0018B
:104DC000C003C003C003C003E003FE017E00000077
:104DD000C001C001C001C001C001C001C001C001CB
:104DE000C001C001C001C001C001C001C001C001BB
:104DF000C001C001C001C001C001C001C001C001AB
:104E0000C0010000C03FE003E001E001E001E0017B
:104E1000C001C003C003C001E001FE00FE00E001CC
:104E2000C001C003C003C001E001E001E001E001F6
:104E3000E003C03F003F0000000000000000000051
:104E40000000000000000000000000000000073F1C
:104E5000C77FE773FFF17EF0000000000000000054
:104E60000000000000000000000000000000000042
:104E70000000000000000000000000000000000032
:104E80000000000000000000000000000000000022
:104E90000000000C000C000C000C000C000C000CBE
:104EA000000C000C000C000C0000000C000C0000BA
:104EB000000000000000001B001B001B001B001B6B
:104EC00000000000000000000000000000000000E2
:104ED0000000000000000000000080198019801907
:104EE0008019C07FC07F80190033C07FC07F00332E
:104EF0000033003300330000000000000000001EFB
:104F0000003F807580650074003C001E000780052E
:104F1000806580658075003F001E0004000400006D
:104F20000000007000D840D8C0D880D900730006B7
:104F3000000C801BC036C066C046C006800300005F
:104F4000000000000000001E003F0033003300336B
:104F5000001E000CC03CC066806380618063C03E60
:104F6000801C0000000000000000000C000C000C81
:104F7000000C000C00000000000000000000000019
:104F800000000000000000000000000080000001A0
:104F90000003000600060004000C000C000C000CCE
:104FA000000C000C00040006000600030001800055
:104FB000002000100018000C000C00040006000681
:104FC00000060006000600060004000C000C001895
:104FD000001000200000000C002D003F001E0033D8
:104FE00000000000000000000000000000000000C1
:104FF0000000000000000000000000000000000CA5
:10500000000C000C000CC0FFC0FF000C000C000CDA
:10501000000C000000000000000000000000000084
:105020000000000000000000000000000000000080
:10503000000000000000000C000C00040004000848
:105040000000000000000000000000000000000060
:105050000000001E001E0000000000000000000014
:105060000000000000000000000000000000000040
:105070000000000000000000000000000000000C24
:10508000000C00000000000000000003000300030B
:105090000006000600060006000C000C000C000CC8
:1050A0000018001800180000000000000000001E9A
:1050B000003F0033806180618061806D806D806120
:1050C000806180610033003F001E0000000000008E
:1050D00000000006000E001E003600260006000636
:1050E0000006000600060006000600060006000096
:1050F000000000000000001E003F8073806180619E
:10510000800100030006000C001800300060807F62
:10511000807F0000000000000000001C003E0063D3
:1051200000630003000E000E000380018001806117
:105130008073003F001E0000000000000000000619
:10514000000E000E001E001E00160036003600661F
:10515000807F807F0006000600060000000000003F
:105160000000007F007F006000600060006E007F34
:1051700080638001800180618073003F001E000019
:10518000000000000000001E003F803380610060CE
:10519000006E007F80738061806180618033003F9A
:1051A000001E0000000000000000807F807F800162
:1051B0000003000300060006000C000C000C0008B1
:1051C0000018001800180000000000000000001E79
:1051D000003F8063806180610021001E003F80618C
:1051E000806180618061003F001E000000000000BF
:1051F0000000001E003F0073806180618061807349
:10520000803F801D800180610073003F001E000010
:105210000000000000000000000000000000000C82
:10522000000C000000000000000000000000000C66
:10523000000C000000000000000000000000000062
:1052400000000000000C000C000000000000000046
:105250000000000C000C0004000400080000000026
:105260000000000080008003000E0038006000385D
:10527000000E80038000000000000000000000001D
:1052800000000000000000000000807F807F000020
:105290000000807F807F0000000000000000000010
:1052A000000000000000000000000000004000704E
:1052B000001C000780010007001C00700040000077
:1052C00000000000000000000000001F803FC071CF
:1052D000C060C000C00180030007000E000C000C7D
:1052E0000000000C000C0000000000000000001E88
:1052F000003F803180718063806F806D806D806F32
:10530000806700600032003E001C000000000000CA
:105310000000000E000E001B001B001B001B803154
:105320008031803F803F8031C060C060C06000003D
:10533000000000000000007C007E0063006300634A
:105340000063007E007E0063806180618063007F77
:10535000007E0000000000000000001E003F8031C1
:10536000806100600060006000600060006080613B
:105370008031003F001E0000000000000000007CA3
:10538000007F0063806380618061806180618061F3
:10539000806100630063007E007C0000000000006C
:1053A0000000807F807F0060006000600060007F00
:1053B000007F0060006000600060807F807F0000F0
:1053C000000000000000807F807F006000600060BF
:1053D0000060007F007F006000600060006000608F
:1053E00000600000000000000000001E003F80314F
:1053F0008061006000600060806380638061806124
:105400008031803F001E000000000000000080612D
:1054100080618061806180618061807F807F806148
:105420008061806180618061806100000000000017
:105430000000003F003F000C000C000C000C000CB2
:10544000000C000C000C000C000C003F003F0000A2
:1054500000000000000080018001800180018001C7
:105460008001800180018001806180618073003F44
:10547000001E0000000000000000C06080610063AA
:1054800000660066006C0078007C006600660063C1
:1054900080618061C06000000000000000000060CA
:1054A00000600060006000600060006000600060FC
:1054B000006000600060807F807F000000000000CE
:1054C0000000C071C071C07BC07AC06AC06AC06E83
:1054D000C064C060C060C060C060C060C0600000E8
:1054E00000000000000080718071807980798079EF
:1054F000806D806D806D8065806780678067806368
:1055000080630000000000000000001E003F003328
:105510008061806180618061806180618061806183
:105520000033003F001E0000000000000000007E6D
:10553000007F80638061806180618063007F007E86
:10554000006000600060006000600000000000007B
:105550000000001E003F0033806180618061806137
:1055600080618061806580670033803F401E00005D
:10557000000000000000007E007F80638061806189
:105580008063007F007E006600630063806180614D
:10559000C0600000000000000000000E001F80310D
:1055A000803100300038001E000780038061806178
:1055B0008031003F001E0000000000000000C0FF1E
:1055C000C0FF000C000C000C000C000C000C000CC8
:1055D000000C000C000C000C000C0000000000008F
:1055E0000000806180618061806180618061806194
:1055F00080618061806180618073003F001E0000D7
:10560000000000000000C060C060C06080318031D8
:105610008031001B001B001B001B000E000E000E43
:1056200000040000000000000000C0C0C0C0C0C0F6
:10563000C0C0C0C0C0CC804C804C805E80528052C4
:105640008073806180610000000000000000C0C025
:10565000806080610033003B001E000C000C001EC7
:10566000001F003B80718061C0C00000000000008E
:105670000000C0C08061806100330033001E001E46
:10568000000C000C000C000C000C000C000C0000C6
:10569000000000000000803F803F80010003000305
:1056A0000006000C000C0018001800300060807F1D
:1056B000807F000000000000000F000F000C000CB5
:1056C000000C000C000C000C000C000C000C000C7A
:1056D000000C000C000C000C000F000F0000001864
:1056E00000180018000C000C000C000C000600064E
:1056F0000006000600030003000300000000000095
:10570000001E001E00060006000600060006000639
:105710000006000600060006000600060006000659
:10572000001E001E0000000C000C001E00120033C2
:105730000033806180610000000000000000000074
:105740000000000000000000000000000000000059
:105750000000000000000000000000000000000049
:105760000000000000000000E0FF00000000003822
:105770000018000C00000000000000000000000005
:105780000000000000000000000000000000000019
:1057900000000000000000000000001F803F80614A
:1057A0008001801F803F80618063807FC03800005F
:1057B0000000000000000060006000600060006EFB
:1057C000007F807380618061806180618073007F71
:1057D000006E00000000000000000000000000005B
:1057E0000000001E003F80738061006000608061E7
:1057F0008073003F001E00000000000000008001D8
:10580000800180018001801D803F80738061806104
:10581000806180618073803F801D00000000000077
:1058200000000000000000000000001E003F0073A8
:105830008061807F807F00608071003F001E0000DB
:10584000000000000000C007C00F000C000C807FAB
:10585000807F000C000C000C000C000C000C000CF5
:10586000000C00000000000000000000000000002C
:10587000801D803F80738061806180618061807362
:10588000803F801D80018063007F003E000000603B
:10589000006000600060006F807F807180618061C7
:1058A0008061806180618061806100000000000093
:1058B00000000006000600000000003E003E00065A
:1058C00000060006000600060006000600060000AE
:1058D000000000000006000600000000003E003E40
:1058E0000006000600060006000600060006000688
:1058F00000060046007E003C000000600060006082
:105900000060806100630066006C007C00760063CC
:1059100000638061C0600000000000000000003EE5
:10592000003E00060006000600060006000600060F
:105930000006000600060006000600000000000049
:105940000000000000000000000080DDC0FFC0CEAD
:10595000C0CCC0CCC0CCC0CCC0CCC0CCC0CC000073
:105960000000000000000000000000000000006FC8
:10597000807F8071806180618061806180618061F1
:105980008061000000000000000000000000000036
:105990000000001E003F8073806180618061806133
:1059A0008073003F001E00000000000000000000A7
:1059B00000000000006E007F807380618061806164
:1059C00080618073007F006E006000600060006096
:1059D0000000000000000000801D803F8073806197
:1059E0008061806180618073803F801D80018001C3
:1059F000800180010000000000000000000000673E
:105A0000803F00390030003000300030003000307E
:105A10000030000000000000000000000000000056
:105A20000000001E803F80610060007F803F800199
:105A30008061007F001E00000000000000000000E8
:105A4000000800180018007F007F001800180018D8
:105A5000001800180018801F800F000000000000D0
:105A60000000000000000000000080618061806193
:105A700080618061806180618063807F803D000003
:105A80000000000000000000000000000000C060F6
:105A9000803180318031001B001B001B000E000E86
:105AA00000060000000000000000000000000000F0
:105AB000000080DD80DD80DD005500550055007759
:105AC000007700220022000000000000000000001B
:105AD000000000000000806100330033001E000C55
