:020000040800F2
:1000000000200020011D0008851C0008871C000836
:1000100000000000000000000000000000000000E0
:10002000000000000000000000000000B5140008FF
:10003000000000000000000021150008891C0008D5
:10004000511D000800000000511D0008511D00084E
:10005000511D0008511D0008511D0008511D0008C8
:1000600000000000511D0008511D0008511D00082E
:10007000511D0008911C0008511D000800000000DF
:10008000511D0008511D000800000000511D00080E
:10009000511D0008511D0008511D0008511D000888
:1000A000511D0008511D0008511D0008511D000878
:1000B000511D0008000000000000000000000000CA
:1000C00010B5064C2378002B07D1054B002B02D02E
:1000D000044800E000BF0123237010BD6C00002025
:1000E0000000000060200008044B10B5002B03D076
:1000F0000349044800E000BF10BDC04600000000F6
:100100007000002060200008002243088B4274D356
:1001100003098B425FD3030A8B4244D3030B8B4208
:1001200028D3030C8B420DD3FF22090212BA030C11
:100130008B4202D31212090265D0030B8B4219D3F2
:1001400000E0090AC30B8B4201D3CB03C01A524112
:10015000830B8B4201D38B03C01A5241430B8B425A
:1001600001D34B03C01A5241030B8B4201D30B0343
:10017000C01A5241C30A8B4201D3CB02C01A52416A
:10018000830A8B4201D38B02C01A5241430A8B422D
:1001900001D34B02C01A5241030A8B4201D30B0216
:1001A000C01A5241CDD2C3098B4201D3CB01C01A30
:1001B000524183098B4201D38B01C01A524143093A
:1001C0008B4201D34B01C01A524103098B4201D328
:1001D0000B01C01A5241C3088B4201D3CB00C01A95
:1001E000524183088B4201D38B00C01A524143080D
:1001F0008B4201D34B00C01A5241411A00D2014632
:10020000524110467047FFE701B5002000F006F8A4
:1002100002BDC0460029F7D076E770477047C04658
:1002200010B5064A136810210B431360002001F03B
:10023000EDFC01F0C1FC002010BDC04600200240D2
:10024000024A1368013313607047C046DC0D00207A
:10025000014B18687047C046DC0D002070B50028BF
:1002600011DB8408134DC034A400625903231840E5
:10027000C000FC331E008640B24389010B4083401E
:100280001343635170BDC0B20F220240083A920876
:1002900006329200084BD3185D6803242040C0004A
:1002A000FF2214008440A54389010A4082402A436A
:1002B0005A60E7E700E100E000ED00E01F2318408E
:1002C0001E3B8340014A13607047C04600E100E0D6
:1002D00001380A4B98420FD8094A50600948036A0E
:1002E0001B021B0AC02109060B4303620023936013
:1002F00007331360002070470120FCE7FFFFFF0079
:1003000010E000E000ED00E0042805D0054A136885
:1003100004218B4313607047024A136804210B4386
:100320001360F8E710E000E0F0B5C64600B582B013
:10033000002338E0032600E00026AE4035003D43B0
:100340000234A400554EA551554C25684246D4436D
:100350002E0026404A68D20302D5424615432E009D
:100360004F4D2E606D682E0026404A68920302D5DC
:10037000424615432E004A4D6E60AD682E00264061
:100380004A68D20202D5424615432E00444DAE6063
:10039000ED682C404A68920202D542462A43140076
:1003A0003F4AD46001330A681400DC4071D0012553
:1003B0009D402A409046F5D04C68022C01D0122C6A
:1003C0000ED1DC080834A400275807261E40B600CA
:1003D0000F22B24097430A69B24016003E432650AE
:1003E00002685F0003242600BE40F6433240944674
:1003F0004A681440BC406246144304604C68621E64
:10040000012A03D9112C01D0122C10D18468344058
:10041000A446CC68BC406246144384604468AC4344
:100420004A681209012515409D4025434560C4686E
:1004300026408C68BC403443C4604A68D200B1D5C1
:10044000184DAE6901242643AE61AD692C4001947C
:10045000019C9C08A51CAD00104EAF5903251D4002
:10046000AD000F26AE40B7439026F605B04200D14E
:1004700062E70D4EB04208D00C4EB04207D00C4E91
:10048000B04200D156E7052657E7012655E7022678
:1004900053E702B004BC9046F0BDC04600000140E6
:1004A0000004014000100240000400480008004819
:1004B000000C0048002A01D1816270478161FCE78D
:1004C00070B582B004000368DB0726D5AE4B5A68CE
:1004D0000C231340042B18D0AB4B5A680C23134049
:1004E000082B0ED06368012B3CD0002B51D1A64BBA
:1004F0001A68A6490A401A601A68A5490A401A6093
:1005000036E0A14B5B68DB03ECD59F4B1B689B037C
:1005100003D56368002B00D1ECE123689B0773D5FA
:10052000994B5B680C221A425DD0974B5A680C239A
:100530001340082B53D0E368002B00D186E0924A89
:10054000136801210B431360FFF782FE05008E4BF9
:100550001B689B0771D4FFF77BFE401B0228F6D96E
:100560000320CAE1884A116880235B020B431360B1
:100570006368002B25D0FFF76BFE0500824B1B68DC
:100580009B03CAD4FFF764FE401B6428F6D90320FE
:10059000B3E1052B09D07C4B1A687C490A401A60EC
:1005A0001A687B490A401A60E2E7774B1968802293
:1005B000D2020A431A601968802252020A431A6062
:1005C000D6E7FFF745FE05006F4B1B689B03A4D5DC
:1005D000FFF73EFE401B6428F6D903208DE16A4BED
:1005E0005B68DB03A7D4684B1B689B0704D5E368F3
:1005F000012B01D0012080E163490B68F82293436D
:100600002269D20013430B6023681B0744D5E369BA
:10061000002B2ED05C4A536A01210B435362FFF733
:1006200017FE0500584B5B6A9B0735D4FFF710FE99
:10063000401B0228F6D903205FE153490B68F822DA
:1006400093432269D20013430B60DDE74E4A1368DF
:1006500001218B431360FFF7FBFD05004A4B1B682C
:100660009B07D1D5FFF7F4FD401B0228F6D90320E4
:1006700043E1454A536A01218B435362FFF7E8FD8A
:100680000500414B5B6A9B0706D5FFF7E1FD401B68
:100690000228F6D9032030E123685B0700D47FE00D
:1006A000394BDB69DB001DD4374AD1698020400516
:1006B0000143D161D36903400193019B0125354B6F
:1006C0001B68DB0510D5A368012B21D0002B36D188
:1006D0002D4B1A6A01218A431A621A6A03318A432E
:1006E0001A621AE00025EAE72A4A116880235B00B3
:1006F0000B431360FFF7ACFD0600264B1B68DB05C0
:10070000E1D4FFF7A5FD801B6428F6D90320F4E0AF
:100710001D4A136A01210B431362A368002B24D0E6
:10072000FFF796FD0600184B1B6A9B0736D4FFF7B0
:100730008FFD801B184B9842F5D90320DDE0052B77
:1007400009D0114B1A6A01218A431A621A6A0331CD
:100750008A431A62E1E70C4B1A6A04210A431A62BF
:100760001A6A03390A431A62D7E7FFF771FD0600D8
:10077000054B1B6A9B0711D5FFF76AFD801B064BD3
:100780009842F5D90320B8E000100240FFFFFEFFB9
:10079000FFFFFBFF0070004088130000012D33D0E5
:1007A0002368DB0610D56369012B33D0053351D1A3
:1007B000544A536B04218B435363536BF4318B4383
:1007C000A169C9000B435363236A002B00D193E056
:1007D0004C4A51680C220A40082A00D18FE0022BB3
:1007E0004FD0484A136848490B401360FFF730FD6B
:1007F0000400444B1B689B017AD5FFF729FD001BC1
:100800000228F6D9032078E03E4AD3693F490B40DD
:10081000D361C5E73B4B5A6B04210A435A635A6BB9
:1008200003390A435A63FFF713FD0500354B5B6B31
:100830009B0706D4FFF70CFD401B0228F6D90320C6
:100840005BE030494B6BF8229343A269D20013431B
:100850004B63B9E72B4B5A6B04210A435A635A6B1B
:1008600003398A435A63FFF7F3FC0500254B5B6BA2
:100870009B07A9D5FFF7ECFC401B0228F6D9032003
:100880003BE0204A136820490B401360FFF7E0FC6F
:1008900005001C4B1B689B0106D5FFF7D9FC401BCC
:1008A0000228F6D9032028E0164BDA6A0F218A4382
:1008B000E16A0A43DA625A6815490A40A16A606A25
:1008C00001430A435A601968802252040A431A609D
:1008D000FFF7BEFC04000B4B1B689B0106D4FFF71F
:1008E000B7FC001B0228F6D9032006E0002004E034
:1008F000002002E0012000E0002002B070BD0120D5
:10090000FBE7C04600100240FFFFFFFEFFFFFFEFC6
:10091000FFFFC2FF30B589B004AA174B180032C8D8
:1009200032C2110002680A606A46103313CB13C248
:100930001B681360114B5A680C231340082B19D104
:10094000910C0733194004A8445C0C49C96A0B4058
:100950006946C95CD30308D463011B1B9801C01A04
:10096000C0000419200209B030BD0548FFF7CCFBD8
:100970006043F8E70248F6E77820000800100240DC
:1009800000127A0070B505000C004D4B1A68012367
:1009900013408B420BD24A490B68012293432343F5
:1009A0000B600B681A40A24201D0012070BD2B6879
:1009B0009B0706D5434A5368F0218B43A9680B4334
:1009C00053602B68DB074BD56B68012B20D0022BC3
:1009D00024D03C4A126892076FD53A494A680320EE
:1009E000824313434B60FFF733FC06006B68012B17
:1009F0001AD0022B26D0334B5B680C221A422FD020
:100A0000FFF726FC801B304B9842F4D90320CDE73A
:100A10002C4A12689203E0D40120C7E7294A1268E1
:100A20009201DAD40120C1E7264B5A680C23134007
:100A3000042B15D0FFF70CFC801B234B9842F3D9F5
:100A40000320B3E71F4B5A680C231340082B07D031
:100A5000FFF7FEFB801B1C4B9842F3D90320A5E750
:100A6000174B1A6801231340A3420BD914490B6892
:100A70000122934323430B600B681A40A24201D02A
:100A8000012093E72B685B0706D50E4A53680F4990
:100A90000B40E9680B435360FFF73CFF094B5A6872
:100AA00012090F2313400A4AD35CD840094B18603F
:100AB000002001F0ABF8002078E7012076E7C0467F
:100AC000002002400010024088130000FFF8FFFFE2
:100AD000CC20000804000020014B18687047C04675
:100AE0000400002010B5FFF7F7FF044B5A68120A04
:100AF00007231340024AD35CD84010BD00100240C7
:100B0000DC20000810B5072303600A4B5C68032251
:100B1000224042605C68F022224082605B68E022F2
:100B2000D2001340C360044B1A68012313400B60CA
:100B300010BDC0460010024000200240704703680C
:100B4000DA6801210A43DA60026813680B43136014
:100B500000207047704770477047704710B5040019
:100B600003681A6992070FD5DA6892070CD5032239
:100B700052421A610123037703689B699B0763D084
:100B8000FFF7E9FF0023237723681A69520712D57C
:100B9000DA6852070FD5052252421A6102232377E1
:100BA00023689A69C0239B001A4253D02000FFF7A4
:100BB000D2FF0023237723681A69120710D5DA6859
:100BC00012070DD5092252421A61042323772368A4
:100BD000DB699B0745D02000FFF7BDFF002323778B
:100BE00023681A69D20612D5DA68D2060FD5112207
:100BF00052421A61082323772368DA69C0239B00D5
:100C00001A4235D02000FFF7A6FF00232377236880
:100C10001A69D20702D5DA68D20730D423681A6974
:100C2000120602D5DA68120630D423681A69520611
:100C300002D5DA68520630D423681A69920602D5C2
:100C4000DA68920630D410BDFFF784FF2000FFF76A
:100C500083FF97E72000FFF77DFF2000FFF77CFF71
:100C6000A7E72000FFF776FF2000FFF775FFB5E745
:100C70002000FFF76FFF2000FFF76EFFC5E702229D
:100C800052421A61200000F033FEC7E7812252422F
:100C90001A61200000F075F8C7E7412252421A613C
:100CA0002000FFF75AFFC7E7212252421A612000B5
:100CB00000F066F8C7E7000003681D4A904202D0C2
:100CC0001C4A904203D1702293434A681343184A46
:100CD00090420ED0174A90420BD0174A904208D04B
:100CE000164A904205D0164A904202D0154A9042C8
:100CF00003D1154A1340CA681343802293434A69BB
:100D0000134303608B68C3620B688362084B98428D
:100D100008D00A4B984205D0094B984202D0094BA3
:100D2000984201D10B690363012343617047C046B8
:100D3000002C014000040040002000400040014021
:100D40000044014000480140FFFCFFFF70B5041E55
:100D500014D03D23C35C002B0AD03D2502236355EC
:100D6000211D2068FFF7A8FF01236355002070BDF7
:100D70003C330022C254FFF7E1FEEEE70120F6E724
:100D800070477047842801D0033070470020FCE78B
:100D900010B500F0A9F9002010BDF0B585B00D0028
:100DA0004668076804690823C05EFFF7EBFFA2B23C
:100DB00003AB019300902B003900300000F064F980
:100DC000012802D1039805B0F0BD0020FBE710B563
:100DD000002800D1013000F09BFA002010BD10B5B2
:100DE00000F022FB012801D000F0BCFB10BD030085
:100DF00008334360012252428260C36003610023D2
:100E00000360704700230361704743684B609A6832
:100E10008A609A68516099600861036801330360D1
:100E2000704730B50C68631C02D00200083202E043
:100E3000026904E01A0053681D68A542FAD9536894
:100E40004B6099608A6051600861036801330360F8
:100E500030BD036942688168916082684168516071
:100E60005A68824205D0002202611A68501E18603A
:100E7000704782685A60F6E7084B9B6A1B68002B34
:100E800006D0064B9A6AD268D2685268DA62704716
:100E9000024B01225242DA62F9E7C0468800002084
:100EA00010B50400006B00F051FC200000F04EFC77
:100EB00010BD0000F0B583B000900193089C0A9E1D
:100EC0001D4B9C4662449200336B9C466244072350
:100ED0009A43170000230F2B09D8C8180578F21879
:100EE000343215700278002A01D00133F3E743232E
:100EF0000022F254062C00D90624F4627464002502
:100F0000B564301DFFF77EFF30001830FFF77AFF21
:100F1000366107231C1BB4617662F5644933F554CE
:100F2000019A0099380000F0B5FA3060099B002B57
:100F300000D01E6003B0F0BDFFFFFF3F70B500247E
:100F400007E0A3001B1998000F4BC018FFF74FFFD5
:100F50000134062CF5D90D4C260030363000FFF751
:100F600046FF250044352800FFF741FF20001430DC
:100F7000FFF73DFF20005830FFF739FF2000FFF753
:100F800036FFA662E56670BD2801002088000020BB
:100F900010B5040000F09CFA1F4B1A6F01321A675B
:100FA0005B6F002B0CD01C4B9B6F002B0DD11A4B91
:100FB0005B6FDB6AE26A934207D8174B5C6704E019
:100FC000154B5C671B6F012B1FD0134AD36F013386
:100FD000D367E26A114B1B689A4201D90F4B1A6022
:100FE000211D93009B1898000D4BC018FFF70DFFB3
:100FF00000F07AFA084B9B6F002B05D0064B5B6F15
:10100000DA6AE36A9A4203D310BDFFF797FFDCE781
:1010100000F052FAF8E7C0468800002008010020DE
:101020002801002070B504000D00154B5E68154BBB
:10103000586F0430FFF70DFF631C11D03419114BAA
:101040005B6F5C60A64213D80E4DA86A696F0431CD
:10105000FFF7E7FEEB6AA34210D90A4BDC620DE012
:10106000002DEBD00748416F0431FFF7CEFE05E0BD
:10107000044BD86E596F0431FFF7D3FE70BDC046E4
:101080000801002088000020F0B587B00490059189
:1010900014001F00900000F0F5FA061E1ED0542028
:1010A00000F0F0FA051E15D00663002D19D00023BC
:1010B000039302950D9B01930C9B00933B00220030
:1010C00005990498FFF7F6FE2800FFF761FF01205D
:1010D00007B0F0BD300000F039FBE6E701204042E8
:1010E000F6E701204042F3E700B583B00F4B103321
:1010F00001930023009380220D490E48FFF7C4FF9F
:10110000012803D0431C0ED003B000BD72B60A4BB9
:1011100001225242DA6202329A67044B00225A607C
:1011200000F046FAF0E772B6FEE7C046080100207C
:10113000E42000089113000888000020024AD368C8
:101140000133D3607047C04608010020F8B5384B22
:10115000DB68002B60D1364B5D6801355D60002D8A
:1011600011D1344B9B6A1B68002B01D072B6FEE78D
:10117000304B9A6AD96E9962DA662D4A5369013307
:101180005361FFF779FE2B4BDB6AAB423AD900245F
:10119000284B5B6FDA6A93009B189A00264BD35852
:1011A000012B3ED901243CE00124224B9B6A1B68A1
:1011B000002B29D01F4B9B6ADB68DE6873689D4259
:1011C00027D3371D3800FFF744FEB36A002B03D046
:1011D00030001830FFF73DFEF26A154B1B689A424B
:1011E00001D9134B1A6093009B189800124BC0183A
:1011F0003900FFF70AFEF26A0E4B5B6FDB6A9A4218
:10120000D2D2D2E70024D0E70A4B01225242DA625E
:10121000BEE7084AD362BBE7054A9369013393618D
:101220000024034BDB69002B00D001242000F8BD13
:1012300008010020880000202801002070B5314BF3
:10124000DB68002B01D172B6FEE700F041F92D4BAF
:10125000DA68013ADA60DB68002B4ED12A4B1B6F4B
:10126000002B04D1002400F03FF9200070BD0024C1
:10127000254B5B69002B23D0234B1B6ADC682000C5
:101280001830FFF7E6FD251D2800FFF7E2FDE26AB2
:101290001C4B1B689A4201D91A4B1A6093009B1889
:1012A00098001A4BC0182900FFF7AFFD164B5B6F73
:1012B000DB6AE26A9A42DBD3124B0122DA61D7E79A
:1012C000002C01D0FFF7D8FD0E4B9C69002C0CD0F0
:1012D000FFF73CFF002802D00A4B0122DA61013CF3
:1012E000002CF5D1074B00229A61064BDB69002BDD
:1012F00005D000F0E1F80124B5E70024B3E70024AD
:10130000B1E7C04608010020880000202801002025
:1013100010B5041E0FD0094BDB68002B01D072B64C
:10132000FEE7FFF70BFF00212000FFF77BFEFFF732
:1013300085FF002801D100F0BFF810BD0801002092
:1013400070B5114B9B68002B1CD0FFF7F7FE0F4BBD
:101350009C6DFFF773FF002CF3D000F0B9F80B4C35
:10136000636EDD68281DFFF774FD236F013B236763
:10137000054A9368013B936000F0B6F82800FFF738
:101380008FFDDEE770BDC046080100208800002008
:1013900010B5FFF7D5FF034B1B68012BF9D900F0FF
:1013A0008BF8F6E72801002030B51C4BDB68002BDA
:1013B00003D01A4B0122DA6130BD184B0022DA61EA
:1013C0001B689A00D2189100154A8A58002A05D144
:1013D000002B01D0013BF4E772B6FEE7104D9900F7
:1013E000CA1890002818426854684460C9188A00D6
:1013F0000832521994420BD09A00D2189100084A30
:1014000052185268D168074A5167044A1360D3E7FB
:101410006068142159436A185060EDE70801002004
:101420002801002088000020064B9B6F002B07D06E
:10143000054BDB68002B01D0002002E0022000E019
:10144000012070478800002008010020034B1B6822
:10145000013301D072B6FEE772B6FEE7000000204D
:101460000B4A13681868203080F30988022080F343
:101470001488BFF36F8F3FBCAE4608BC04BC62B695
:101480001847C046C046C046C046C046C046C046D3
:10149000FC00002010B5031F802464041C60043B82
:1014A0001960043B02491960143B1A60403810BDB2
:1014B0004D14000870470000044B802252051A604A
:1014C000BFF34F8FBFF36F8F7047C04604ED00E04E
:1014D00072B6044A136801331360BFF34F8FBFF332
:1014E0006F8F704700000020064B1B68002B01D156
:1014F00072B6FEE7013B034A1360002B00D162B6CF
:101500007047C04600000020EFF3108072B67047AD
:10151000002080F3108870470000000000000000E9
:10152000EFF309800E4B1A6820381060F0C0444673
:101530004D4656465F46F0C008B572B6FFF734FF19
:1015400062B60CBC116808681030F0C8A046A94605
:10155000B246BB4680F309882038F0C81847C04619
:10156000FC00002010B5FFF7CFFF0400FFF7EEFDF1
:10157000002803D0034B802252051A602000FFF799
:10158000C8FF10BD04ED00E010B5064B1868FA2145
:101590008900FEF7B9FD0138034B1860034B0722A1
:1015A0001A6010BD0400002014E000E010E000E02C
:1015B00010B50A4B1968FF2212040A431A60196811
:1015C000FF2212060A431A60FFF7DEFF044B0022D7
:1015D0001A60FFF745FFFFF739FFC04620ED00E036
:1015E0000000002010B5114A53071BD0D11D07235E
:1015F0009943C0231B015B1A9B180A000C490A601F
:1016000000204860D318083B0724A3438B60586030
:101610001860981A50601360C860086180231B0628
:101620004B6110BDC0231B01E8E7C046CC01002080
:10163000B401002010B5124B1A68824219D35968C0
:101640005C18844203D14068091859601800416849
:101650004418A24211D10A4CA468A2420BD052688D
:10166000891841601A6812680260984200D01860B8
:1016700010BD1300E0E70460F7E70260F5E7C0463D
:10168000B401002070B50400FFF758FD2E4B9B6895
:10169000002B0FD02C4B5B6923424AD1002C0CD07D
:1016A0000834630709D007239C430834234204D03D
:1016B00072B6FEE7FFF796FFECE7002C3BD0224B1B
:1016C0001B69A34239D3204B1D6801E02B00150094
:1016D0006A68A24202D22A68002AF7D11A4A92689E
:1016E000AA422CD01E6808362A681A606B681B1B39
:1016F000102B08D92819420701D072B6FEE74360C3
:101700006C60FFF797FF69680F4A13695B1A1361F2
:10171000D268934201D20C4AD3600B4B5B690B43F6
:101720006B6000232B60FFF789FD730709D072B649
:10173000FEE70026F7E70026F5E70026F3E7002698
:10174000F1E7300070BDC046B401002070B500283C
:1017500020D00500083D6B680F4A52691A4201D13A
:1017600072B6FEE7010008390968002901D072B697
:10177000FEE70838040093434360FFF7DFFC63682B
:10178000054A11698C46634413612800FFF752FF34
:10179000FFF754FD70BDC046B4010020704710B57E
:1017A00004001C2100F0EEFA200010BD70B5049D6D
:1017B000059C194E0836066000268660C660818248
:1017C000C282E11703220A4012199210AA18D2000D
:1017D00052B2D2101F211F361640027E8A43324376
:1017E00002761F222A40D201058A0C4E354015434D
:1017F0000582214009030A4C026914400C4304612C
:101800007F221A40E3B27F218B4313430374037991
:101810003F229343037170BD982000087FF0FFFFC3
:10182000FF0FFEFFC08A7047808A7047007C40002F
:1018300040B24010C0B27047F0B589B0264B59692C
:1018400080200003014359615A6902400092009AC6
:10185000596980208002014359615A69024001920E
:10186000019A5A698021C9020A435A615B690B4097
:101870000293029B002203211848FEF71BFE8927D2
:101880007F00002239009020C005FEF713FE872656
:10189000F600002231001248FEF70CFE03230393EA
:1018A0000125049500240594069403A90B48FEF72E
:1018B0003BFD039704950594069403A99020C00569
:1018C000FEF732FD039604950594069403A9044897
:1018D000FEF72AFD09B0F0BD0010024000080048E4
:1018E0000004004810B50120FFF771FAFBE7000083
:1018F00010B50268034B9A4200D010BDFEF7A0FC61
:10190000FBE7C046002C0140FEE7000000B591B0A7
:1019100002230493013B07930F33089300230C9396
:1019200004A8FEF7CDFD00281ED107230093002355
:1019300001930293039300216846FFF723F80028E0
:1019400016D1FFF7C9F8FA218900FEF7DDFBFEF793
:10195000BFFC0420FEF7D8FC0120002203214042F6
:10196000FEF77CFC11B000BDB0210348FFF7CCFFAF
:10197000BD210148FFF7C8FFEC20000830B589B051
:10198000FEF74EFCFFF7C2FFFFF756FF03A80C4916
:1019900003000A0032CA32C312CA12C30021FFF781
:1019A000FCF9084B186000230193033300930023D4
:1019B000802205490548FFF767FBFFF7E9F9FEE7D5
:1019C000A8200008E00D0020FC200008991B00085A
:1019D000704710B50400042100F0D4F9200010BDB8
:1019E000014B083303607047BC200008F8B50C00B9
:1019F0004BB2002B4BDB630650D4A30654D4E30652
:101A000058D423075CD4630760D4A30764D4E307E6
:101A100069D4802676009024E4050122310020005C
:101A2000FEF748FDFA208000FFF772FC0022022139
:101A30002000FEF73FFD002210212000FEF73AFDB6
:101A40002C4D002208212800FEF734FD2A4F0022E9
:101A500002213800FEF72EFD002201213800FEF79A
:101A600029FD002220212800FEF724FD002210215C
:101A70002800FEF71FFD80210022C9002800FEF784
:101A800019FD002231002000FEF714FDF8BD802171
:101A90000122C9001748FEF70DFDACE70122102115
:101AA0001448FEF707FDA8E7012220211148FEF7A0
:101AB00001FDA4E7012201210F48FEF7FBFCA0E78E
:101AC000012202210C48FEF7F5FC9CE701220821C7
:101AD0000848FEF7EFFC98E7902001221021C0058E
:101AE000FEF7E8FC93E7902001220221C005FEF7F3
:101AF000E1FC8EE7000400480008004870B50500CE
:101B00000E000024012C09D8E30031001941C9B2AC
:101B10002800FFF76BFF0134E4B2F3E770BD00006B
:101B200030B583B005001C2000F013F904009721A4
:101B30001E23019300931B3B144A8900FFF736FED6
:101B40002000FFF773FE00B21149014389B228005B
:101B5000FFF7D4FF2000FFF767FE8021C901014392
:101B600089B22800FFF7CAFF2000FFF75BFE094992
:101B7000014389B22800FFF7C1FF002C03D023687E
:101B80005B682000984703B030BDC0460B020000E0
:101B900000C0FFFF0080FFFF10B5042000F0D9F85F
:101BA0000400FFF71DFF2000FFF7BAFF0148FFF711
:101BB000AFFBF8E78813000000B583B0124B9969BA
:101BC00001221143996199690A400092009ADA69E9
:101BD000802149050A43DA61DB690B400193019BCF
:101BE0000520002200214042FEF738FB022000229F
:101BF00003214042FEF732FB012000220321404234
:101C0000FEF72CFB03B000BD0010024000B587B00A
:101C1000010000220D20FEF721FB0D20FEF74EFBF8
:101C2000134A916980200001014391619369034047
:101C30000093009B01A902A8FEF764FFFEF752FF84
:101C40000C49FEF761FA431E0B480C4A02600C4A2D
:101C5000C2604360002303618360FFF777F80028C8
:101C600002D0012007B000BD0348FEF768FFF9E786
:101C70000010024040420F00E40D0020002C014003
:101C8000E70300007047FEE710B5FFF7A8F810BDA6
:101C900010B50248FEF762FF10BDC046E40D0020FB
:101CA000114B1A6801210A431A605A680F48024012
:101CB0005A601A680E4802401A601A680D480240BD
:101CC0001A605A680C4802405A60DA6A0F20824350
:101CD000DA621A6B094802401A635A6B8A435A63E4
:101CE00000229A607047C046001002400CB8FF08FE
:101CF000FFFFF6FEFFFFFBFFFFFFC0FFECFEFFFF55
:101D00000D4885460D480E490E4A002302E0D4587E
:101D1000C4500433C4188C42F9D30B4A0B4C002333
:101D200001E013600432A242FBD3FFF7B9FF00F0D9
:101D300039F8FFF723FEFEE7002000200000002016
:101D40006C000020202100086C000020280E0020DC
:101D5000FEE710B5041E00D10134200000F046F863
:101D6000002807D100F008F8002801D100F012F88F
:101D70008047F2E710BD0000014B18687047C0466D
:101D8000CC0D002010B500F001F810BD10B500F02A
:101D900037F810BD10B5062000F020F9012000F042
:101DA0005DF9000070B500260C4D0D4C641BA410AD
:101DB000A64209D1002600F053F90A4D0A4C641BD3
:101DC000A410A64205D170BDB300EB589847013668
:101DD000EEE7B300EB5898470136F2E71821000808
:101DE00018210008182100081C21000810B5034B19
:101DF0000100186800F058F810BDC0460800002027
:101E000010B5034B0100186800F004F810BDC0467F
:101E10000800002070B50500002910D00C1F2368B1
:101E2000002B00DAE418280000F0F8F81D4A1368C7
:101E3000002B05D163601460280000F0F0F870BD3D
:101E4000A34209D9216860188342F3D118685B68FE
:101E500041182160EEE713005A68002A01D0A2421F
:101E6000F9D919685818A0420BD1206809185818D8
:101E700019608242E0D110685268411819605A60B6
:101E8000DAE7A04202D90C232B60D5E7216860185D
:101E9000824203D1106852684118216062605C6020
:101EA000CAE7C046D00D0020032370B5CD1C9D436A
:101EB000083506000C2D1ED20C25A9421DD8300075
:101EC00000F0ACF8254A14682100002919D1244CEF
:101ED0002368002B03D1300000F044F82060290073
:101EE000300000F03FF8431C2BD10C23300033604E
:101EF00000F095F803E0002DDFDA0C2333600020BA
:101F000070BD0B685B1B19D40B2B03D90B60CC186D
:101F1000256003E04B688C420DD11360300000F067
:101F20007EF8200007220B30231D9043C31AE7D010
:101F30005A42E250E4E763600C00EFE70C004968A6
:101F4000C3E70323C41C9C43A042E1D0211A300004
:101F500000F008F8431CDBD1C7E7C046D00D0020D5
:101F6000D40D0020002370B5064C05000800236046
:101F700000F066F8431C03D12368002B00D02B60CF
:101F800070BDC046240E002070B504000D001F294E
:101F900004D9162303600120404270BD436C002B1E
:101FA00004D08A009B181A68002A08D1200000F08B
:101FB00031F82A000100200000F01AF8EDE70020B7
:101FC000012AEAD0511C03D1162301302360E4E733
:101FD000002428001C6090472000DEE710B5034B6A
:101FE00001001868FFF7D0FF10BDC04608000020B0
:101FF000002370B5064C050008001100236000F0B6
:1020000017F8431C03D12368002B00D02B6070BD50
:10201000240E002010B500F003F810BD7047704783
:1020200058220120014B40421A607047240E0020C4
:1020300058220120014B40421A607047240E0020B4
:10204000044A1368002B00D1034B181810601800C5
:102050007047C046D80D0020280E0020FEE7C0467D
:10206000F8B5C046F8BC08BC9E467047F8B5C046F7
:08207000F8BC08BC9E46704755
:1020780002030405060708090A0B0C0D0E0F1010C1
:102088000102030405060708090A0B0C0D0E0F10C0
:1020980000000000000000009D1700089F170008BE
:1020A8000C210008E51800080000000000000000EE
:1020B800800000000000000000000000D1190008A6
:1020C800D31900080000000000000000010203040A
:1020D80006070809000000000102030449444C45B2
:1020E800000000002E2E2F5372632F6D61696E2E33
:1020F8006300000053656E64696E672064617461F3
:102108000000000064656661756C745461736B004F
:04211800E9000008D2
:04211C00C1000008F6
:10212000AAAAAAAA00127A000C000020000000004F
:10213000000000000000000000000000000000009F
:10214000000000000000000000000000000000008F
:10215000000000000000000000000000000000007F
:10216000000000000000000000000000000000006F
:10217000000000000000000000000000000000005F
:0C21800000000000000000000000000053
:0400000508001D01D1
:00000001FF
