:020000040800F2
:1000000000800220CD4C0008614C0008634C0008C1
:10001000654C0008674C0008694C000800000000AF
:100020000000000000000000000000003124000873
:100030006B4C000800000000D12400086D4C000843
:100040001D4D00081D4D00081D4D00081D4D0008E8
:100050001D4D00081D4D00081D4D00081D4D0008D8
:100060001D4D00081D4D00081D4D00081D4D0008C8
:100070001D4D00081D4D00081D4D00081D4D0008B8
:100080001D4D00081D4D00081D4D00081D4D0008A8
:100090001D4D00081D4D00081D4D00081D4D000898
:1000A0001D4D0008754C00081D4D00081D4D000831
:1000B0001D4D00081D4D0008000000001D4D0008EA
:1000C0001D4D00081D4D00081D4D00081D4D000868
:1000D0001D4D00081D4D00081D4D00081D4D000858
:1000E0001D4D00081D4D000800000000000000002C
:1000F0000000000000000000000000000000000000
:10010000000000001D4D0008000000001D4D00080B
:100110001D4D0008000000001D4D000800000000FB
:100120001D4D00081D4D00081D4D00081D4D000807
:100130001D4D00081D4D00081D4D00080000000069
:100140001D4D00081D4D00081D4D00081D4D0008E7
:100150001D4D00081D4D00081D4D00081D4D0008D7
:100160001D4D00081D4D00081D4D00080000000039
:10017000000000001D4D000800000000000000000D
:100180001D4D00081D4D00081D4D00081D4D0008A7
:080190001D4D000800000000F5
:1001A00010B5054C237833B9044B13B10448AFF3B1
:1001B00000800123237010BD90000020000000008B
:1001C000D45000080C4B43B10C480D4910B5AFF3A7
:1001D00000800C48036823B910BD0A48036833B98E
:1001E0007047094B002BF7D0BDE810401847064B6D
:1001F000002BF5D0184700BF00000000D4500008C5
:1002000094000020900000200000000008B50320AA
:1002100000F026F8002004F0E7FC04F073FC002056
:1002200008BD0000024A136801331360704700BF25
:10023000F4110020014B1868704700BFF411002032
:1002400038B50446FFF7F6FF0546B4F1FF3F00D08E
:100250000134FFF7EFFF401B8442FAD838BD00009D
:10026000074AD36823F4E0631B041B0C000200F46C
:10027000E060184340F0BF6040F40030D060704749
:1002800000ED00E030B4164BDB68C3F30223C3F18A
:100290000704042C28BF04241D1D062D17D9033B79
:1002A000012505FA04F4013C2140994005FA03F3C5
:1002B000013B1340194300280BDB0901C9B200F1CF
:1002C000604000F5614080F8001330BC70470023A7
:1002D000E6E700F00F000901C9B2024B1954F4E738
:1002E00000ED00E014ED00E0420900F01F000123E2
:1002F00003FA00F0014B43F82200704700E100E0F0
:100300000138B0F1807F0AD2064B5860F021064ACE
:1003100082F823100020986007221A60704701209D
:10032000704700BF10E000E000ED00E0042805D0B9
:10033000054A136823F0040313607047024A1368E8
:1003400043F004031360704710E000E0F0B583B0A1
:1003500000238CE0DE08083650F8264003F0070E34
:100360004FEA8E0E0F2707FA0EF724EA07040F69EB
:1003700007FA0EF73C4340F8264087E0866826409F
:10038000CF6807FA0EF73E438660466826EA050501
:100390004E68C6F300169E4035434560C5682C4044
:1003A0008D6805FA0EF52C43C4604C6814F0805F2C
:1003B0005CD04A4C256E45F001052566246E04F09C
:1003C00001040194019C9D08AE1C454C54F8264044
:1003D00003F00306B6000F27B74024EA0704B0F184
:1003E000904F70D03F4FB8426FD007F58067B8424A
:1003F0006DD007F58067B8426BD007F58067B842CB
:100400005FD0072707FA06F634430235344E46F824
:100410002540354C2568D44305EA04064F6817F497
:10042000803F01D042EA05062F4D2E606D6804EA38
:1004300005064F6817F4003F01D042EA05062A4D31
:100440006E60AD6804EA05064F6817F4801F01D09E
:1004500042EA0506244DAE60ED682C404E6816F465
:10046000001F01D042EA05041F4AD46001330A6824
:1004700032FA03F42FD001259D402A40F6D04C6873
:10048000022C3FF467AF122C3FF464AF06684FEACA
:10049000430E032404FA0EF4E44326404F6807F0A9
:1004A000030707FA0EF73E4306604E68771E012FDA
:1004B0007FF664AF112E3FF461AF122E7FF46EAF62
:1004C0005CE704279EE700279CE701279AE70227BD
:1004D00098E7032796E703B0F0BD00BF0010024085
:1004E0000000014000040048000401400369194273
:1004F00001D100207047012070470AB9816270471E
:100500008161704703689A6912F0020F01D00022DE
:100510009A6203689A6912F0010F03D19A6942F056
:1005200001029A61704770B4039D066870686C0D93
:1005300004F4806444F07F7444F4583444F47F74C9
:1005400044F0030420EA0400C1F3090141EA024136
:10055000194329430843706070BC704770B5044666
:100560000D46164603689B6913F0100F1CD02368D4
:100570009A6912F0200F19D1B5F1FF3FF7D0FFF7BC
:1005800059FE801B854201D3002DF0D1636C43F0EE
:1005900020036364202384F84130002384F8423030
:1005A00084F84030012070BD002070BD1022DA6157
:1005B00023682025DD612046FFF7A4FF22685368E9
:1005C00023F0FF7323F48B3323F4FF7323F0010331
:1005D0005360636C43F00403636484F84150002368
:1005E00084F8423084F84030012070BD70B5044674
:1005F0000D46164623689B6913F0020F1DD1324643
:1006000029462046FFF7AAFFC8B9B5F1FF3FF1D050
:10061000FFF710FE801B854201D3002DEAD1636CE9
:1006200043F020036364202384F84130002384F8DE
:10063000423084F84030012070BD002070BD0120A0
:1006400070BDF8B505460F4616461C462B689B69DB
:1006500037EA03030CBF01230023B34218D1B4F1DE
:10066000FF3FF3D0FFF7E6FD069BC01A844201D39B
:10067000002CEBD16B6C43F020036B64202385F8D6
:100680004130002385F8423085F840300120F8BD24
:100690000020F8BD70B582B0044615461E46184BC2
:1006A00000934FF08073F2B2FFF73DFF079A06996F
:1006B0002046FFF79BFFE8B9012E0CD023682A0AD9
:1006C0009A62079A06992046FFF790FFB0B923680F
:1006D000EDB29D6202E02368EDB29D62079B00933C
:1006E000069B002280212046FFF7ABFF034610B196
:1006F000012300E00123184602B070BD0123FAE790
:100700000020008070B505460C4616462B689B6994
:1007100013F0200F1AD1324621462846FFF71EFF5C
:10072000B0B9FFF787FD801B844201D3002CEDD1C7
:100730006B6C43F020036B64202385F84130002369
:1007400085F8423085F84030012070BD002070BD32
:10075000012070BD10B50446002847D090F8413004
:10076000002B48D0242384F841302268136823F0FA
:10077000010313602268636823F0706313612268C9
:10078000936823F400439360E368012B38D0226818
:10079000A36843F404439360E368022B36D02268D5
:1007A000536843F0007343F4004353602268D368F6
:1007B00023F40043D3602268236961690B43A16974
:1007C00043EA0123D3602268E369216A0B43136083
:1007D0002268136843F00103136000206064202343
:1007E00084F84130206384F8420010BD4FF4007358
:1007F0004364012010BD80F8403004F0CBF9B1E72C
:100800002268A36843F400439360C5E723684FF46C
:1008100000625A60C3E72DE9F04782B0BDF82C5062
:1008200090F84140E4B2202C04D00223184602B0D4
:10083000BDE8F0870A9C34B12DB190F84040012CFE
:1008400006D10223F2E74FF4007343640123EDE77E
:10085000984691460E4604464FF0010A80F840A0A3
:10086000FFF7E8FC07460090192352464FF4004179
:100870002046FFF7E6FE08B10123D7E7212384F8DD
:100880004130402384F84230002363640A9A626254
:100890006585636301970C9B009343464A46314646
:1008A0002046FFF7F7FE70B9638D9BB2FF2B0FD97F
:1008B000FF222285002300934FF0807331462046AB
:1008C000FFF731FE21E0002384F840305346ADE7C6
:1008D000628D92B22285002300934FF00073D2B252
:1008E00031462046FFF71FFE0FE0628D92B222854F
:1008F000002300934FF00073D2B231462046FFF739
:1009000012FE638D9BB2002B32D03A460C992046E2
:10091000FFF76CFE002848D12268636A591C6162A7
:100920001B789362638D9BB2013B9BB26385238DE1
:10093000013B9BB22385628D92B2002AE1D0002B4D
:10094000DFD100970C9B002280212046FFF779FE23
:1009500068BB638D9BB2FF2BC7D9FF222285002382
:1009600000934FF0807331462046FFF7DCFDC8E767
:100970003A460C992046FFF7C5FE0346C8B92268DF
:100980002021D1612068426822F0FF7222F48B326C
:1009900022F4FF7222F00102426084F8411000222A
:1009A00084F8422084F8402040E701233EE70123F9
:1009B0003CE701233AE790F84130DBB2202B01D02D
:1009C0000220704790F84030012B20D0012380F89E
:1009D0004030242380F841300268136823F001037B
:1009E00013600268136823F480531360026813686D
:1009F000194311600268136843F001031360202358
:100A000080F84130002380F84030184670470220BB
:100A1000704790F84130DBB2202B01D002207047A4
:100A200090F84030012B1ED0012380F84030242361
:100A300080F841300268136823F0010313600268F4
:100A4000136823F4706343EA01211160026813689C
:100A500043F001031360202380F84130002380F825
:100A6000403018467047022070470000024B18685B
:100A700000F4C060704700BF00700040B0F5007F18
:100A80000FD0204B1B6803F4C063B3F5806F37D0E1
:100A90001C4A136823F4C06343F48063136000208E
:100AA0007047184B1B6803F4C063B3F5007F23D075
:100AB000144A136823F4C06343F400731360124BA9
:100AC0001B6802F1467202F55B3202F28322A2FB3E
:100AD00003239A0C322303FB02F300E0013B23B112
:100AE000084A526912F4806FF8D1064B5B6913F41F
:100AF000806F03D0032070470020704700207047AC
:100B000000207047007000402400002030B583B002
:100B10000546204B9B6D13F0805F0BD0FFF7A6FFBF
:100B2000B0F5007F17D0802D1FD82DD0702D2DD07F
:100B300000211BE0174CA36D43F08053A365A36D08
:100B400003F080530193019BFFF790FFA36D23F007
:100B50008053A365E4E7802D03D9A02D03D902219A
:100B600004E0002102E0012100E003210A4A1368A9
:100B700023F007030B431360136803F00703994244
:100B800006D0012003B030BD0221EFE70121EDE7DF
:100B90000020F7E700100240002002403B4B9B681A
:100BA00013F00C0F1AD0394B9B6803F00C030C2B7D
:100BB0000ED0364B9B6803F00C03042B2FD0334B25
:100BC0009B6803F00C03082B2CD00020014618E092
:100BD0002E4BDB6803F00303012BEAD12B4B1B6880
:100BE00013F0080F14D1294BD3F89430C3F3032327
:100BF000274A52F82310254B9B6813F00C0F0CD09A
:100C00000020224A936803F00C030C2B0DD0704790
:100C10001E4B1B68C3F30313EAE70846F1E71D48C0
:100C20000021EEE71C480021EBE71346D26802F0F2
:100C30000302DB68C3F302130133022A0AD0032A3A
:100C40001AD0B1FBF3F3114AD068C0F3062000FBC1
:100C500003F008E00F48B0FBF3F30C4AD068C0F390
:100C6000062000FB03F0094BDB68C3F3416301334B
:100C70005B00B0FBF3F0CAE70748B0FBF3F3034AAD
:100C8000D068C0F3062000FB03F0ECE70010024040
:100C9000687900080024F40000127A00002800F0AF
:100CA000D78270B582B00446036813F0100F3FD0AE
:100CB000974B9B6813F00C0F40F09280944B1B688D
:100CC00013F0020F03D08369002B00F0C382206A67
:100CD0008F4B1B6813F0080F62D08D4B1B6803F01D
:100CE000F003834263D2FFF711FF002840F0B48283
:100CF000874B1A6842F008021A601A6822F0F00264
:100D0000216A0A431A605A6822F47F42E16942EA82
:100D100001225A60FFF742FF7D4B9B68C3F3031328
:100D20007C4AD35CD8407C4B1860002003F05CFF09
:100D3000236813F0010F00F0A180754B9B6803F04E
:100D40000C03082B00F09180714B9B6803F00C039F
:100D50000C2B00F083806368B3F5803F00F0B58012
:100D6000B3F5A02F00F0B780694B1A6822F48032E7
:100D70001A601A6822F480221A606368002B00F05F
:100D8000B780FFF757FA0546614B1B6813F4003F25
:100D900074D1FFF74FFA401B6428F5D9032062E2B3
:100DA0005B4BD3F894301B0903F0F00399E7584BE1
:100DB0001A6842F008021A601A6822F0F002216AEA
:100DC0000A431A605A6822F47F42E16942EA01222A
:100DD0005A60206AFFF79AFE00289BD0012042E269
:100DE000836933B34A4A136843F001031360FFF782
:100DF00021FA0546464B1B6813F0020F06D1FFF798
:100E000019FA401B0228F5D903202CE2404B1A683E
:100E100042F008021A601A6822F0F002216A0A43BE
:100E20001A605A6822F47F42E16942EA01225A605C
:100E30007EE7374A136823F001031360FFF7FAF9DE
:100E40000546334B1B6813F0020F3FF471AFFFF7F9
:100E5000F1F9401B0228F4D9032004E22C4BDB6893
:100E600003F00303032B7FF476AF294B1B6813F4C5
:100E7000003F03D06368002B00F0F081236813F07B
:100E8000020F62D0224B9B6803F00C03042B4BD063
:100E90001F4B9B6803F00C030C2B3FD0E368002B27
:100EA00079D01B4A136843F480731360FFF7C2F9CB
:100EB0000546174B1B6813F4806F63D1FFF7BAF92F
:100EC000401B0228F5D90320CDE1114A136843F4F1
:100ED0008033136051E703F18043A3F53C331A6874
:100EE00042F480221A601A6842F480321A6044E7A1
:100EF000FFF7A0F90546064B1B6813F4003FBDD071
:100F0000FFF798F9401B6428F5D90320ABE100BF37
:100F1000001002409879000824000020B14BDB68E3
:100F200003F00303022BB9D1AE4B1B6813F4806F9F
:100F300003D0E368002B00F09381AA4A536823F0A2
:100F4000FE43216943EA01635360236813F0080FED
:100F50004CD063699BB3A34AD2F8943043F00103A9
:100F6000C2F89430FFF766F905469E4BD3F89430EB
:100F700013F0020F3AD1FFF75DF9401B0228F4D9B4
:100F8000032070E1974A536823F0FE43216943EA46
:100F900001635360D9E7934A136823F480731360A5
:100FA000FFF748F905468F4B1B6813F4806FCCD0D0
:100FB000FFF740F9401B0228F5D9032053E1894A85
:100FC000D2F8943023F00103C2F89430FFF732F9DD
:100FD0000546844BD3F8943013F0020F06D0FFF788
:100FE00029F9401B0228F4D903203CE1236813F0BF
:100FF000040F7AD07B4B9B6D13F0805F36D1794B19
:101000009A6D42F080529A659B6D03F08053019374
:10101000019B0125744B1B6813F4807F28D0A368C3
:10102000012B39D0052B3FD06E4BD3F8902022F006
:101030000102C3F89020D3F8902022F00402C3F8F4
:101040009020A368002B3DD0FFF7F4F80646654BCF
:10105000D3F8903013F0020F46D1FFF7EBF8801B66
:1010600041F288339842F2D90320FCE00025D1E711
:101070005D4A136843F480731360FFF7DBF806469C
:10108000594B1B6813F4807FC9D1FFF7D3F8801B3D
:101090000228F5D90320E6E0524AD2F8903043F016
:1010A0000103C2F89030CCE74E4BD3F8902042F0C9
:1010B0000402C3F89020D3F8902042F00102C3F854
:1010C0009020BEE7FFF7B6F80646464BD3F89030BF
:1010D00013F0020F08D0FFF7ADF8801B41F2883300
:1010E0009842F2D90320BEE0E5B9236813F0200F3F
:1010F00035D0636AE3B13B4AD2F8983043F001033C
:10110000C2F89830FFF796F80546364BD3F898307A
:1011100013F0020F23D1FFF78DF8401B0228F4D9FA
:101120000320A0E02F4A936D23F080539365DCE702
:101130002C4AD2F8983023F00103C2F89830FFF718
:1011400079F80546274BD3F8983013F0020F06D0F4
:10115000FFF770F8401B0228F4D9032083E0A36A4C
:10116000002B7FD01F4A926802F00C020C2A7CD020
:10117000022B23D01B4B1A6822F080721A601B6866
:1011800013F0006F04D1174AD36823F00303D36030
:10119000144AD36823F0887323F48033D360FFF7B5
:1011A00049F804460F4B1B6813F0007F4ED0FFF741
:1011B00041F8001B0228F5D9032054E0094A1368BE
:1011C00023F080731360FFF735F80546054B1B6865
:1011D00013F0007F0AD0FFF72DF8401B0228F5D945
:1011E000032040E00010024000700040236B5A1EB4
:1011F000636B1B0243EA0213E26A1343E26B520879
:10120000013A43EA4253226C5208013A43EA4263EC
:10121000A26B43EAC263164AD360136843F080733B
:101220001360D36843F08073D360FFF703F804467C
:101230000F4B1B6813F0007F06D1FEF7FBFF001B6E
:101240000228F5D903200EE000200CE000200AE07F
:1012500001207047012006E0012004E0012002E0A7
:10126000012000E0002002B070BD0120FBE700BFBC
:1012700000100240002800F0998070B504464D4BE4
:101280001B6803F007038B420CD24A4A136823F011
:1012900007030B431360136803F00703994201D05F
:1012A000012070BD0D46236813F0010F39D063682B
:1012B000032B09D0022B26D063BB3F4A126812F0E1
:1012C000020F06D1012070BD3B4A126812F0007F68
:1012D0006ED039498A6822F0030213438B60FEF70F
:1012E000A9FF0646344B9B6803F00C036268B3EB1E
:1012F000820F16D0FEF79EFF801B41F28833984282
:10130000F0D9032070BD2C4A126812F4003FE0D1DE
:10131000012070BD284A126812F4806FD9D10120D3
:1013200070BD236813F0020F06D0234A936823F0A0
:10133000F003A1680B4393601E4B1B6803F0070387
:101340009D420CD21B4A136823F007032B43136002
:10135000136803F007039D4201D0012070BD23688C
:1013600013F0040F06D0144A936823F4E063E16895
:101370000B439360236813F0080F07D00E4A93685D
:1013800023F46053216943EAC1039360FFF706FC2D
:10139000094B9B68C3F30313084AD35CD840084B3E
:1013A0001860002003F020FC002070BD0120704771
:1013B000012070BD00200240001002409879000812
:1013C00024000020014B1868704700BF2400002053
:1013D00008B5FFF7F7FF044B9B68C3F3C223034A2A
:1013E000D35CD84008BD00BF00100240A8790008B7
:1013F0000F2303600B4B9A6802F0030242609A6865
:1014000002F0F00282609A6802F4E062C2609B68B7
:10141000DB0803F4E0630361034B1B6803F007037D
:101420000B6070470010024000200240F8B55D4B91
:10143000DB6813F0030F19D05A4BDB6803F003038A
:101440000268934204D00124002C48D02046F8BD05
:10145000002A42D0534BDB68C3F3021301334268C6
:10146000934201D00124EFE70024EDE70368022B4B
:1014700018D0032B1DD0012B0DD00124002CE3D15B
:10148000484EF26822F073024568013D43EA0513B5
:101490001343F360D8E7434A126812F0020F14D0E6
:1014A0000024EBE73F4A126812F4806F0FD000244B
:1014B000E4E73C4A126812F4003F0AD1394A126844
:1014C00012F4802F07D00024D8E70124D6E70124A6
:1014D000D4E70024D2E70124D0E70124B4E70F4683
:1014E0000546304A136823F080631360FEF7A2FEBE
:1014F00006462C4B1B6813F0006F05D0FEF79AFED2
:10150000801B0228F5D90324002C9FD147BB254915
:101510000B6923F0784323F4FE43A868EA68D206F7
:1015200042EA002213430B611E4A136843F08063B2
:101530001360FEF77FFE06461A4B1B6813F0006F20
:1015400005D1FEF777FE801B0228F5D90324002C75
:101550007FF47CAF134A1369A9690B43136175E7E4
:10156000012F0FD00F48026922F0C06222F4FE4220
:10157000A9686B695B08013B5B0643EA01231343DF
:101580000361D1E70748026922F4C00222F4FE4257
:10159000A9682B695B08013B5B0543EA0123134300
:1015A0000361C1E7001002402DE9F04182B004461A
:1015B000036813F4006F24D0C36CB3F5000F13D08D
:1015C000B3F5400F02D0B3B1012700E00027002F90
:1015D0006FD1BD4AD2F8883023F44003E16C0B434D
:1015E000C2F888303E460EE0B74AD36843F48033F1
:1015F000D3600027EBE700210430FFF717FF074611
:10160000E5E700263746236813F4003F6DD0AE4B64
:101610009B6D13F0805F4ED1AB4B9A6D42F08052C0
:101620009A659B6D03F080530193019B4FF0010875
:10163000A64A136843F480731360FEF7FBFD05466A
:10164000A24B1B6813F4807F05D1FEF7F3FD401B0E
:101650000228F5D90327002F42D19B4BD3F89030B5
:1016600013F4407315D0626E934212D0964AD2F8AA
:10167000903023F44073D2F8901041F48031C2F8D6
:101680009010D2F8901021F48031C2F89010C2F876
:10169000903013F0010F11D1002F40F013818A4ACE
:1016A000D2F8903023F44073616E0B43C2F890304F
:1016B00017E03E46A7E74FF00008B9E7FEF7BAFD8E
:1016C0000546814BD3F8903013F0020FE4D1FEF7BA
:1016D000B1FD401B41F288339842F2D90327DBE782
:1016E0003E46B8F1000F40F0F380236813F0010F7D
:1016F00008D0754AD2F8883023F00303216A0B43DF
:10170000C2F88830236813F0020F08D06E4AD2F86E
:10171000883023F00C03616A0B43C2F888302368D9
:1017200013F0040F08D0684AD2F8883023F0300351
:10173000A16A0B43C2F88830236813F0080F08D061
:10174000614AD2F8883023F0C003E16A0B43C2F843
:101750008830236813F0200F08D05B4AD2F8883015
:1017600023F44063216B0B43C2F88830236813F4E1
:10177000007F08D0544AD2F8883023F44023616CAB
:101780000B43C2F88830236813F4806F08D04E4AA8
:10179000D2F8883023F44013A16C0B43C2F8883090
:1017A000236813F0400F08D0474AD2F8883023F45A
:1017B0004053616B0B43C2F88830236813F0800FED
:1017C00008D0414AD2F8883023F44043A16B0B4340
:1017D000C2F88830236813F4807F08D03A4AD2F8E0
:1017E000883023F44033E16B0B43C2F88830236820
:1017F00013F4801F08D0344AD2F89C3023F003033E
:10180000216C0B43C2F89C30236813F4005F0FD0A7
:101810002D4AD2F8883023F04063216D0B43C2F883
:101820008830236DB3F1006F58D0B3F1806F5AD078
:10183000236813F4002F0FD0234AD2F8883023F006
:101840004063616D0B43C2F88830636DB3F1006F84
:1018500051D0B3F1806F53D0236813F4802F0FD091
:10186000194AD2F8883023F04063A16D0B43C2F8C7
:101870008830A36DB3F1006F4AD0B3F1806F4CD0C4
:10188000236813F4804F0CD00F4AD2F8883023F02D
:101890004053E16D0B43C2F88830E36DB3F1805FD4
:1018A00043D0236813F4803F08D0074AD2F8883029
:1018B00023F00043216E0B43C2F88830304602B05B
:1018C000BDE8F0813E460CE7001002400070004089
:1018D0001A4A936D23F08053936506E7D36843F467
:1018E0008013D360A4E70121201DFFF79FFD00288E
:1018F0009ED006469CE7D36843F48013D360ABE7E1
:101900000121201DFFF792FD0028A5D00646A3E780
:10191000D36843F48013D360B2E70121201DFFF7A1
:1019200085FD0028ACD00646AAE70221201DFFF75E
:101930007DFD0028B5D00646B3E700BF0010024089
:10194000704700000268D36843F00103D360036866
:101950009968084A0A40062A09D09968054A0A4047
:10196000B2F5803F03D01A6842F001021A600020ED
:10197000704700BF0700010070477047704770470D
:1019800010B5044603681A6912F0020F11D0DA6824
:1019900012F0020F0DD06FF002021A6101230377DB
:1019A00003689B6913F0030F79D0FFF7E6FF00236C
:1019B000237723681A6912F0040F12D0DA6812F044
:1019C000040F0ED06FF004021A61022323772368FC
:1019D0009B6913F4407F68D02046FFF7CEFF0023B9
:1019E000237723681A6912F0080F12D0DA6812F010
:1019F000080F0ED06FF008021A61042323772368C2
:101A0000DB6913F0030F57D02046FFF7B6FF002322
:101A1000237723681A6912F0100F12D0DA6812F0D7
:101A2000100F0ED06FF010021A610823237723687D
:101A3000DB6913F4407F46D02046FFF79EFF00236A
:101A4000237723681A6912F0010F03D0DA6812F0C5
:101A5000010F3FD123681A6912F0800F03D0DA68B2
:101A600012F0800F3DD123681A6912F4807F03D0F1
:101A7000DA6812F0800F3BD123681A6912F0400F28
:101A800003D0DA6812F0400F39D123681A6912F0D6
:101A9000200F03D0DA6812F0200F37D110BDFFF706
:101AA0006BFF2046FFF76AFF81E72046FFF764FFE0
:101AB0002046FFF763FF92E72046FFF75DFF2046D1
:101AC000FFF75CFFA3E72046FFF756FF2046FFF72E
:101AD00055FFB4E76FF001021A61204602F0F8FDED
:101AE000B8E76FF080021A61204600F073F8BAE799
:101AF0006FF480721A61204600F06DF8BCE76FF059
:101B000040021A612046FFF73AFFBEE76FF020025D
:101B10001A61204600F05DF8C0E7000003681F4A24
:101B2000904233D0B0F1804F30D0A2F59432904241
:101B30002CD01A4A90420ED0B0F1804F0BD0A2F5B3
:101B40009432904207D002F59E32904203D002F5C3
:101B50008062904203D123F44073CA68134323F098
:101B600080034A69134303608B68C3620B68836216
:101B70000A4B98420FD003F5A05398420BD003F5BF
:101B80008063984207D001234361704723F07003BC
:101B90004A681343CDE70B690363F4E7002C014067
:101BA000A8B110B5044690F83D305BB1022384F82B
:101BB0003D30211D2068FFF7B1FF012384F83D303F
:101BC000002010BD80F83C30FFF7BAFEEEE70120A0
:101BD0007047704770477047842801D003307047C2
:101BE0000020704708B500F0CDF9002008BDF0B521
:101BF00085B00F46446805680669B0F90800FFF72C
:101C0000EBFF03AB019300903B46B2B2294620465E
:101C100000F086F9012802D1039805B0F0BD00203C
:101C2000FBE708B5034600B90123184600F0F2FAB5
:101C3000002008BD08B500F09BFB012801D000F092
:101C400079FC08BD00F1080343604FF0FF32826069
:101C5000C360036100230360704700230361704782
:101C600043684B609A688A609A685160996008611D
:101C7000036801330360704730B40D68B5F1FF3F6E
:101C800002D000F1080202E0026904E01A4653683B
:101C90001C68A542FAD253684B6099608A60516013
:101CA000086103680133036030BC70470369426810
:101CB000816891608268416851605A68904205D09D
:101CC00000220261186801381860704782685A6003
:101CD000F6E70000094B9B6A1B6843B9012343B92F
:101CE000064B9A6AD268D2685268DA62704700235B
:101CF000F5E74FF0FF32014BDA627047AC0000208D
:101D000010B50446006B00F093FD204600F090FDF6
:101D100010BD2DE9F04780469946089D099F0A9C11
:101D2000266B02F18042013A06EB820626F0070696
:101D300000230F2B07D8C85CE21882F83400CA5C75
:101D40000AB10133F5E7002384F84330062D00D9AA
:101D50000625E56265644FF0000AC4F848A0201D1E
:101D6000FFF77BFF04F11800FFF777FF2461C5F14F
:101D70000705A5616462C4F84CA084F850A04A46E7
:101D80004146304600F038FB206007B13C60BDE8BA
:101D9000F087000070B5002407E004EB8402930094
:101DA00010481844FFF74EFF0134062CF5D90E4CAD
:101DB00004F1BC063046FFF745FF04F1D005284684
:101DC000FFF740FF04F11400FFF73CFF04F1E400CB
:101DD000FFF738FF2046FFF735FFA662C4F8F8503A
:101DE00070BD00BFDC000020AC00002038B5054607
:101DF00000F030FB264BD3F8FC200132C3F8FC2066
:101E0000D3F80031002B38D0214BD3F804314BB933
:101E10001F4BD3F80031DA6AEB6A9A4202D81C4BA6
:101E2000C3F800511A4CD4F808310133C4F8083112
:101E3000EB6A01229A40D4F80C110A43C4F80C2131
:101E400004F1300003EB83039A00291D1044FFF7CF
:101E500007FF00F021FBD4F804316BB1D4F8003156
:101E6000DA6AEB6A9A4207D24FF08052094B1A6045
:101E7000BFF34F8FBFF36F8F38BD054BC3F80051D1
:101E8000D3F8FC30012BCDD1FFF784FFCAE700BFA8
:101E9000AC00002004ED00E070B504460E461F4B78
:101EA000D3F81051D3F800010430FFF7FFFE60B9FA
:101EB0001A4BD3F80021D16A012202FA01F1D3F8BA
:101EC0000C2122EA0102C3F80C21B4F1FF3F12D029
:101ED0002C44124BD3F800315C60A54214D80F4D4E
:101EE000A86AD5F800110431FFF7C6FEEB6A9C42E0
:101EF00000D2EC6270BD002EEAD00848D0F8001184
:101F00000431FFF7ADFE70BD044BD3F8F800D3F8F1
:101F100000110431FFF7B0FE70BD00BFAC0000201F
:101F20002DE9F04385B006460F46154698469000C9
:101F300000F0F8FB00B38146542000F0F3FB0446A8
:101F4000B0B1C0F83090CCB10023039302940D9B44
:101F500001930C9B009343462A4639463046FFF7CF
:101F6000D8FE2046FFF742FF012005B0BDE8F08310
:101F7000484600F05DFCE6E70024E4E74FF0FF3060
:101F8000F3E7000000B583B0174B019300230093E3
:101F9000802216491648FFF7C3FF012805D0B0F18B
:101FA000FF3F17D003B05DF804FB4FF0500383F3FD
:101FB0001188BFF36F8FBFF34F8F0E4B4FF0FF327F
:101FC000DA620122C3F804210022C3F8102100F0D4
:101FD000DDFAE7E74FF0500383F31188BFF36F8F0B
:101FE000BFF34F8FFEE700BFC8010020B0790008A3
:101FF000B9220008AC000020034AD2F8183101339E
:10200000C2F81831704700BFAC0000202DE9F04144
:10201000424BD3F81831002B70D1404BD3F81051FC
:102020000135C3F81051CDB99B6A1B6843B14FF01D
:10203000500383F31188BFF36F8FBFF34F8FFEE719
:10204000364B9A6AD3F8F8109962C3F8F820D3F89F
:1020500020210132C3F82021FFF73CFE2F4BDB6A21
:102060009D423FD200242D4AD2F80031DB6A03EBB7
:10207000830399000A44136B012B46D9012444E0E1
:102080000124264B9B6A1B6873B3002373BB234B4D
:102090009B6ADB68DE6873689D422CD306F10408F6
:1020A0004046FFF703FEB36A1BB106F11800FFF7C5
:1020B000FDFDF36A01229A40184FD7F80C110A432C
:1020C000C7F80C2107F1300003EB83039A00414667
:1020D0001044FFF7C5FDF26AD7F80031DB6A9A4277
:1020E000CED2CEE70024CCE70123CFE74FF0FF327A
:1020F0000A4BDA62B7E7094AD362B4E7074AD2F873
:1021000024310133C2F824310024044BD3F82831A0
:1021100003B101242046BDE8F08100BFAC000020DF
:102120003A4BD3F8183143B94FF0500383F3118879
:10213000BFF36F8FBFF34F8FFEE770B500F08AF9E2
:10214000324BD3F81821013AC3F81821D3F81831CB
:10215000002B57D12D4BD3F8FC3023B9002400F0CD
:102160009BF9204670BD0024284B5B692BB3274D9B
:102170002B6ADC6804F11800FFF798FD261D304635
:10218000FFF794FDE36A01229A40D5F80C110A4347
:10219000C5F80C2105F1300003EB83039A003146AA
:1021A0001044FFF75DFDE26AD5F80031DB6A9A4220
:1021B000DAD30122C5F82821D6E70CB1FFF78AFD52
:1021C000124BD3F824417CB9104BD3F82831DBB142
:1021D0004FF080520E4B1A60BFF34F8FBFF36F8FDB
:1021E0000124BCE7013C08D0FFF710FF0028F9D01C
:1021F0000122064BC3F82821F4E70022034BC3F861
:102200002421E1E70024AAE70024A8E7AC0000208D
:1022100004ED00E010B5B0B10446104BD3F818310E
:1022200043B14FF0500383F31188BFF36F8FBFF3B7
:102230004F8FFEE7FFF7E0FE00212046FFF72CFE60
:10224000FFF76EFF00E0002038B94FF08052044BDA
:102250001A60BFF34F8FBFF36F8F10BDAC0000202B
:1022600004ED00E038B5134BD3F814310BB3FFF78E
:10227000C3FE104BD3F8E440FFF752FF002CF2D01E
:1022800000F0E8F80B4CD4F8F030DD68281DFFF7BB
:102290000DFDD4F8FC30013BC4F8FC30D4F8143107
:1022A000013BC4F8143100F0F7F82846FFF728FD89
:1022B000D9E738BDAC00002008B5FFF7D3FF064BC7
:1022C0001B6B012BF9D94FF08052044B1A60BFF3FE
:1022D0004F8FBFF36F8FF0E7AC00002004ED00E0FC
:1022E000224BD3F81831CBB9204A0023C2F8283149
:1022F000D2F80C31B3FA83F3DBB2C3F11F0303EB63
:10230000830081000A44126B6AB94FF0500383F3D3
:102310001188BFF36F8FBFF34F8FFEE70122134B7E
:10232000C3F82821704710B4104A9900CC18A000B7
:102330001044446B64684463303219448800014699
:102340000830024494420BD0084903EB83039A00FF
:102350000A44536BDB68C1F800315DF8044B7047E9
:102360006068024A0A445063EEE700BFAC000020F8
:10237000064BD3F804312BB1044BD3F818311BB9F9
:10238000022070470120704700207047AC000020F9
:102390000B4B1B68B3F1FF3F08D04FF0500383F3A2
:1023A0001188BFF36F8FBFF34F8FFEE74FF05003DD
:1023B00083F31188BFF36F8FBFF34F8FFEE700BF2A
:1023C0000400002006480068006880F3088862B6B0
:1023D00061B6BFF34F8FBFF36F8F00DF00BF000008
:1023E00008ED00E0DFF80C00016841F470010160C5
:1023F0007047000088ED00E04FF0807340F8043C27
:1024000021F0010140F8081C054B40F80C3C40F855
:10241000202C6FF0020340F8243C4438704700BF82
:1024200091230008000000000000000000000000F0
:10243000074B19680868B0E8F04F80F30988BFF3CC
:102440006F8F4FF0000080F311887047AFF300806A
:10245000AC0100204FF0500383F31188BFF36F8F5E
:10246000BFF34F8F0A4A136801331360012B0DD15C
:10247000084B1B6813F0FF0F08D04FF0500383F395
:102480001188BFF36F8FBFF34F8FFEE7704700BF18
:102490000400002004ED00E0094B1B6843B94FF035
:1024A000500383F31188BFF36F8FBFF34F8FFEE7A5
:1024B000013B034A13600BB983F31188704700BFD7
:1024C00004000020000000000000000000000000E8
:1024D000EFF30980BFF36F8F154B1A681EF0100FD2
:1024E00008BF20ED108A20E9F04F10604DF8043D40
:1024F0004FF0500080F31188BFF34F8FBFF36F8F01
:10250000FFF7EEFE4FF0000080F3118808BC196859
:102510000868B0E8F04F1EF0100F08BFB0EC108A4A
:1025200080F30988BFF36F8F704700BFAFF300805F
:10253000AC01002008B54FF0500383F31188BFF3BE
:102540006F8FBFF34F8FFFF761FD18B14FF08052CF
:10255000024B1A60002383F3118808BD04ED00E0EC
:10256000064B1B68064AA2FB03239B09013B054A55
:1025700013600722044B1A60704700BF240000203C
:10258000D34D621014E000E010E000E0314B1A6817
:10259000314B9A4219D02F4B1A68304B9A421DD0BA
:1025A00000B583B02E4B1A78D2B20192FF221A7076
:1025B0001B78DBB28DF803309DF8033003F0500335
:1025C000284A1370072353601BE04FF0500383F336
:1025D0001188BFF36F8FBFF34F8FFEE74FF05003AB
:1025E00083F31188BFF36F8FBFF34F8FFEE71D4A50
:1025F0005368013B53609DF803305B00DBB28DF8FC
:1026000003309DF8033013F0800FF0D1154A536862
:102610001B0203F4E0635360019BDBB2104A1370AA
:10262000114B1A6842F470021A601A6842F0704244
:102630001A60FFF795FF00220C4B1A60FFF7D2FEDD
:102640000B4A136843F040431360FFF7BBFEFFF7EC
:102650009FFE00BF00ED00E071C20F4170C20F414C
:1026600000E400E0D801002020ED00E0040000209C
:1026700034EF00E0144A12F0070F21D0D11D21F0F1
:102680000701C1F53B63083313440A460E49C1F8FC
:10269000B82B0020C1F8BC0B1344083B23F0070300
:1026A000C1F8C03B58601860981A50601360C1F8B8
:1026B000C40BC1F8C80B4FF00043C1F8CC3B7047C6
:1026C00040F6B833E2E700BFE001002010B4134B3E
:1026D0001A6882421CD359685C18A04203D1406832
:1026E00001445960184641684418A24214D10C4C68
:1026F000D4F8C04BA2420DD05268114441601A6810
:1027000012680260984200D018605DF8044B704770
:102710001346DDE70460F5E70260F3E7980D00205B
:10272000E001002070B50446FFF766FC3F4BD3F88C
:10273000C03BC3B13D4BD3F8CC3B1C426CD1ACB1D8
:10274000083414F0070F11D024F00704083404F003
:1027500007035BB14FF0500383F31188BFF36F8F12
:10276000BFF34F8FFEE7FFF785FFE3E7002C55D05F
:102770002E4BD3F8C83B9C4252D82C4BD3F8B85BB5
:1027800003F6B83301E02B4615466A68944202D935
:102790002A68002AF7D1254AD2F8C02B954241D0A9
:1027A0001E6808362A681A606B681B1B102B10D92C
:1027B000281910F0070F08D04FF0500383F3118849
:1027C000BFF36F8FBFF34F8FFEE743606C60FFF77F
:1027D0007DFF6968154AD2F8C83B5B1AC2F8C83B4E
:1027E000D2F8C42B934202D2104AC2F8C43B0F4B1A
:1027F000D3F8CC3B0B436B6000232B60FFF790FCBE
:1028000016F0070F10D04FF0500383F31188BFF379
:102810006F8FBFF34F8FFEE70026EFE70026EDE74F
:102820000026EBE70026E9E7304670BDE001002016
:1028300098B338B50446A0F1080550F8042C1749A0
:10284000D1F8CC1B0A4208D14FF0500383F3118812
:10285000BFF36F8FBFF34F8FFEE750F8080C40B106
:102860004FF0500383F31188BFF36F8FBFF34F8F87
:10287000FEE722EA010244F8042CFFF7BDFB54F8FE
:10288000041C064AD2F8C83B0B44C2F8C83B284691
:10289000FFF71CFFFFF744FC38BD7047E001002044
:1028A000012800D0704738B54FF6FF73994200D029
:1028B00038BD0C4C4FF4D2724FF42071204601F019
:1028C0006DFB094D2A460949204602F028FA04F515
:1028D000C874204601F0C8FF2A460549204602F088
:1028E0001EFAE5E7B00D002000000020453F00087B
:1028F0005948000870B59AB0234D284601F07BFC7A
:1029000005240194009407230A22322112A801F021
:102910001DFE12A9284601F091FB06460194009481
:102920002B230A2228210DEB010001F00FFE0AA93A
:10293000284601F083FB019400942C230A223C21B9
:1029400002A801F003FE02A9284601F077FB00204F
:1029500001F0A4FF072507E02A46F1B20A4801F07A
:10296000C3FB094801F0F2FC01F0C4FA064C204612
:1029700001F01FFC94F89631002BF2D101352A2D7D
:10298000EADD0725E8E700BFB00D0020FEE7FEE71F
:1029900008B54FF6FF710120FFF782FF08BD000068
:1029A000F0B593B0D24D284601F025FC6A212846A7
:1029B00001F00AFD142401940094034650224FF4C0
:1029C00082710AA801F0C2FD0AA9284601F036FB6F
:1029D0006521284601F0F8FC01940094034650223A
:1029E0004FF48C7102A801F0B1FD9DF80C309DF8F8
:1029F0002C2043F3050363F305028DF82C20049B80
:102A00000C93059B0D939DF818309DF8382043F3E7
:102A1000060363F306028DF83820BDF81830BDF8C0
:102A2000382043F3C41363F3CB12ADF838200E9A69
:102A3000069B43F3043363F310320E92079B0F930C
:102A4000089B10939DF824309DF8442043F3040321
:102A500063F304028DF8442002A801F06FFD0AA977
:102A6000284601F0EBFA7421284601F0ADFC0194F0
:102A70000094034650224FF4967102A801F066FDBF
:102A80009DF80C309DF82C2043F3050363F30502F9
:102A90008DF82C20049B0C93059B0D939DF818300A
:102AA0009DF8382043F3060363F306028DF83820BF
:102AB000BDF81830BDF8382043F3C41363F3CB12CC
:102AC000ADF838200E9A069B43F3043363F31032BB
:102AD0000E92079B0F93089B10939DF824309DF84E
:102AE000442043F3040363F304028DF8442002A856
:102AF00001F024FD0AA9284601F0A0FA7021284619
:102B000001F062FC01940094034650224FF4A0713E
:102B100002A801F01BFD9DF80C309DF82C2043F31A
:102B2000050363F305028DF82C20049B0C93059B91
:102B30000D939DF818309DF8382043F3060363F396
:102B400006028DF83820BDF81830BDF8382043F360
:102B5000C41363F3CB12ADF838200E9A069B43F3EF
:102B6000043363F310320E92079B0F93089B10936C
:102B70009DF824309DF8442043F3040363F30402DA
:102B80008DF8442002A801F0D9FC0AA9284601F0DA
:102B900055FA6121284601F017FC01940094034680
:102BA00050224FF4AA7102A801F0D0FC9DF80C301D
:102BB0009DF82C2043F3050363F305028DF82C20C8
:102BC000049B0C93059B0D939DF818309DF83820BD
:102BD00043F3060363F306028DF83820BDF818307E
:102BE000BDF8382043F3C41363F3CB12ADF838209B
:102BF0000E9A069B43F3043363F310320E92079B45
:102C00000F93089B10939DF824309DF8442043F3C4
:102C1000040363F304028DF8442002A801F08EFC43
:102C20000AA9284601F00AFA6321284601F0CCFBE4
:102C300001940094034650224FF4B47102A801F0AD
:102C400085FC9DF80C309DF82C2043F3050363F3BD
:102C500005028DF82C20049B0C93059B0D939DF889
:102C600018309DF8382043F3060363F306028DF80D
:102C70003820BDF81830BDF8382043F3C41363F38F
:102C8000CB12ADF838200E9A069B43F3043363F35E
:102C900010320E92079B0F93089B10939DF82430DF
:102CA0009DF8442043F3040363F304028DF84420A9
:102CB00002A801F043FC0AA9284601F0BFF96B21E4
:102CC000284601F081FB01940094034650224FF402
:102CD000BE7102A801F03AFC9DF80C309DF82C2042
:102CE00043F3050363F305028DF82C2002E000BFD7
:102CF000B00D0020049B0C93059B0D939DF818309C
:102D00009DF8382043F3060363F306028DF838205C
:102D1000BDF81830BDF8382043F3C41363F3CB1269
:102D2000ADF838200E9A069B43F3043363F3103258
:102D30000E92079B0F93089B10939DF824309DF8EB
:102D4000442043F3040363F304028DF8442002A8F3
:102D500001F0F4FB0AA9284601F070F97021284619
:102D600001F032FB019400940346B4224FF48C71BD
:102D700002A801F0EBFB9DF80C309DF82C2043F3EA
:102D8000050363F305028DF82C20049B0C93059B2F
:102D90000D939DF818309DF8382043F3060363F334
:102DA00006028DF83820BDF81830BDF8382043F3FE
:102DB000C41363F3CB12ADF838200E9A069B43F38D
:102DC000043363F310320E92079B0F93089B10930A
:102DD0009DF824309DF8442043F3040363F3040278
:102DE0008DF8442002A801F0A9FB0AA9284601F0A9
:102DF00025F96C21284601F0E7FA01940094034676
:102E0000B4224FF4967102A801F0A0FB9DF80C309B
:102E10009DF82C2043F3050363F305028DF82C2065
:102E2000049B0C93059B0D939DF818309DF838205A
:102E300043F3060363F306028DF83820BDF818301B
:102E4000BDF8382043F3C41363F3CB12ADF8382038
:102E50000E9A069B43F3043363F310320E92079BE2
:102E60000F93089B10939DF824309DF8442043F362
:102E7000040363F304028DF8442002A801F05EFB12
:102E80000AA9284601F0DAF86121284601F09CFAE7
:102E9000019400940346B4224FF4A07102A801F0FB
:102EA00055FB9DF80C309DF82C2043F3050363F38C
:102EB00005028DF82C20049B0C93059B0D939DF827
:102EC00018309DF8382043F3060363F306028DF8AB
:102ED0003820BDF81830BDF8382043F3C41363F32D
:102EE000CB12ADF838200E9A069B43F3043363F3FC
:102EF00010320E92079B0F93089B10939DF824307D
:102F00009DF8442043F3040363F304028DF8442046
:102F100002A801F013FB0AA9284601F08FF87921D5
:102F2000284601F051FA019400940346B4224FF46C
:102F3000AA7102A801F00AFB9DF80C309DF82C2024
:102F400043F3050363F305028DF82C20049B0C93D7
:102F5000059B0D939DF818309DF8382043F3060328
:102F600063F306028DF83820BDF81830BDF838201C
:102F700043F3C41363F3CB12ADF838200E9A069BCB
:102F800043F3043363F310320E92079B0F93089BB5
:102F900010939DF824309DF8442043F3040363F319
:102FA00004028DF8442002A801F0C8FA0AA92846B4
:102FB00001F044F86821284601F006FA01940094D3
:102FC00003464FF48C72DC2102A801F0BFFA9DF891
:102FD0000C309DF82C2043F3050363F305028DF8B4
:102FE0002C20049B0C93059B0D939DF818309DF8A5
:102FF000382043F3060363F306028DF83820BDF84A
:103000001830BDF8382043F3C41363F3CB12ADF886
:1030100038200E9A069B43F3043363F310320E926A
:10302000079B0F93089B10939DF824309DF8442034
:1030300043F3040363F304028DF8442002A801F073
:103040007DFA0AA9284600F0F9FF6921284601F017
:10305000BBF90194009403464FF48C72F02102A84E
:1030600001F074FA9DF80C309DF82C2043F3050311
:1030700063F305028DF82C20049B0C93059B0D93A4
:103080009DF818309DF8382043F3060363F30602D9
:103090008DF83820BDF81830BDF8382043F3C4133C
:1030A00063F3CB12ADF838200E9A069B43F304333A
:1030B00063F310320E92079B0F93089B10939DF8B9
:1030C00024309DF8442043F3040363F304028DF895
:1030D000442002A801F032FA0AA9284600F0AEFF07
:1030E0006721284601F070F90194009403464FF4DB
:1030F0008C724FF4827102A801F028FA9DF80C300E
:103100009DF82C2043F3050363F305028DF82C2072
:10311000049B0C93059B0D939DF818309DF8382067
:1031200043F3060363F306028DF83820BDF8183028
:10313000BDF8382043F3C41363F3CB12ADF8382045
:103140000E9A069B43F3043363F310320E92079BEF
:103150000F93089B10939DF824309DF8442043F36F
:10316000040363F304028DF8442002A801F0E6F999
:103170000AA9284600F062FF6821284601F024F9D8
:103180000194009403464FF48C72114602A801F09A
:10319000DDF99DF80C309DF82C2043F3050363F313
:1031A00005028DF82C20049B0C93059B0D939DF834
:1031B00018309DF8382043F3060363F306028DF8B8
:1031C0003820BDF81830BDF8382043F3C41363F33A
:1031D000CB12ADF838200E9A069B43F3043363F309
:1031E00010320E92079B0F93089B10939DF824308A
:1031F0009DF8442043F3040363F304028DF8442054
:1032000002A801F09BF90AA9284600F017FF7321D4
:10321000284601F0D9F80194009403464FF48C72CB
:103220004FF4967102A801F091F99DF80C309DF8C9
:103230002C2043F3050363F305028DF82C20049B37
:103240000C93059B0D939DF818309DF8382043F39F
:10325000060363F306028DF83820BDF81830BDF878
:10326000382043F3C41363F3CB12ADF838200E9A21
:10327000069B43F3043363F310320E92079B0F93C4
:10328000089B10939DF824309DF8442043F30403D9
:1032900063F304028DF8442002A801F04FF92C4694
:1032A0000AA9284600F0CAFE6321284601F08CF8DE
:1032B00014250195009503464FF48C724FF4A071CC
:1032C00002A801F043F99DF80C309DF82C2043F33F
:1032D000050363F305028DF82C20049B0C93059BDA
:1032E0000D939DF818309DF8382043F3060363F3DF
:1032F00006028DF83820BDF81830BDF8382043F3A9
:10330000C41363F3CB12ADF838200E9A069B43F337
:10331000043363F310320E92079B0F93089B1093B4
:103320009DF824309DF8442043F3040363F3040222
:103330008DF8442002A801F001F90AA9204600F006
:103340007DFE6F21204601F03FF801950095034670
:103350004FF48C724FF4AA7102A801F0F7F89DF8AF
:103360000C309DF82C2043F3050363F305028DF820
:103370002C20049B0C93059B0D939DF818309DF811
:10338000382043F3060363F306028DF83820BDF8B6
:103390001830BDF8382043F3C41363F3CB12ADF8F3
:1033A00038200E9A069B43F3043363F310320E92D7
:1033B000079B0F93089B10939DF824309DF84420A1
:1033C00043F3040363F304028DF8442002A801F0E0
:1033D000B5F80AA9204600F031FE7221204600F01F
:1033E000F3FF0195009503464FF48C724FF4B471CE
:1033F00002A801F0ABF89DF80C309DF82C2043F3A7
:10340000050363F305028DF82C20049B0C93059BA8
:103410000D939DF818309DF8382043F3060363F3AD
:1034200006028DF83820BDF81830BDF8382043F377
:10343000C41363F3CB12ADF838200E9A069B43F306
:10344000043363F310320E92079B0F93089B109383
:103450009DF824309DF8442043F3040363F30402F1
:103460008DF8442002A801F069F80AA9204600F06E
:10347000E5FD6521204600F0A7FF01950095034674
:103480004FF48C724FF4BE7102A801F05FF89DF802
:103490000C309DF82C2043F3050363F305028DF8EF
:1034A0002C20049B0C93059B0D939DF818309DF8E0
:1034B000382043F3060363F306028DF83820BDF885
:1034C0001830BDF8382043F3C41363F3CB12ADF8C2
:1034D00038200E9A069B43F3043363F310320E92A6
:1034E000079B0F93089B10939DF824309DF8442070
:1034F00043F3040363F304028DF8442002A801F0AF
:103500001DF80AA9204600F099FD7321204600F01D
:103510005BFF0195009503464FF4BE72F02102A8AF
:1035200001F014F89DF80C309DF82C2043F30503AE
:1035300063F305028DF82C20049B0C93059B0D93DF
:103540009DF818309DF8382043F3060363F3060214
:103550008DF83820BDF81830BDF8382043F3C41377
:1035600063F3CB12ADF838200E9A069B43F3043375
:1035700063F310320E92079B0F93089B10939DF8F4
:1035800024309DF8442043F3040363F304028DF8D0
:10359000442002A800F0D2FF0AA9204600F04EFD08
:1035A0006521204600F010FF0195009503464FF479
:1035B000BE724FF4827102A800F0C8FF9DF80C3073
:1035C0009DF82C2043F3050363F305028DF82C20AE
:1035D000049B0C93059B0D939DF818309DF83820A3
:1035E00043F3060363F306028DF83820BDF8183064
:1035F000BDF8382043F3C41363F3CB12ADF8382081
:103600000E9A069B43F3043363F310320E92079B2A
:103610000F93089B10939DF824309DF8442043F3AA
:10362000040363F304028DF8442002A800F086FF2F
:103630000AA9204600F002FD7421204600F0C4FED5
:103640000195009503464FF4BE724FF48C7102A8A9
:1036500000F07CFF9DF80C309DF82C2043F305030F
:1036600063F305028DF82C20049B0C93059B0D93AE
:103670009DF818309DF8382043F3060363F30602E3
:103680008DF83820BDF81830BDF8382043F3C41346
:1036900063F3CB12ADF838200E9A069B43F3043344
:1036A00063F310320E92079B0F93089B10939DF8C3
:1036B00024309DF8442043F3040363F304028DF89F
:1036C000442002A800F03AFF0AA9204600F0B6FC08
:1036D0007421204600F078FE0195009503464FF4D2
:1036E000BE724FF4967102A800F030FF9DF80C30C6
:1036F0009DF82C2043F3050363F305028DF82C207D
:10370000049B0C93059B0D939DF818309DF8382071
:1037100043F3060363F306028DF83820BDF8183032
:10372000BDF8382043F3C41363F3CB12ADF838204F
:103730000E9A069B43F3043363F310320E92079BF9
:103740000F93089B10939DF824309DF8442043F379
:10375000040363F304028DF8442002A800F0EEFE97
:103760000AA9204600F06AFC6921204600F02CFEE0
:103770000195009503464FF4BE724FF4A07102A864
:1037800000F0E4FE9DF80C309DF82C2043F3050377
:1037900063F305028DF82C20049B0C93059B0D937D
:1037A0009DF818309DF8382043F3060363F30602B2
:1037B0008DF83820BDF81830BDF8382043F3C41315
:1037C00063F3CB12ADF838200E9A069B43F3043313
:1037D00063F310320E92079B0F93089B10939DF892
:1037E00024309DF8442043F3040363F304028DF86E
:1037F000442002A800F0A2FE0AA9204600F01EFC08
:103800006E21204600F0E0FD0195009503464FF43F
:10381000BE724FF4AA7102A800F098FE9DF80C3019
:103820009DF82C2043F3050363F305028DF82C204B
:10383000049B0C93059B0D939DF818309DF8382040
:1038400043F3060363F306028DF83820BDF8183001
:10385000BDF8382043F3C41363F3CB12ADF838201E
:103860000E9A069B43F3043363F310320E92079BC8
:103870000F93089B10939DF824309DF8442043F348
:10388000040363F304028DF8442002A800F056FEFE
:103890000AA9204600F0D2FB6721204600F094FDE3
:1038A0000195009503464FF4BE724FF4B47102A81F
:1038B00000F04CFE9DF80C309DF82C2043F30503DE
:1038C00063F305028DF82C20049B0C93059B0D934C
:1038D0009DF818309DF8382043F3060363F3060281
:1038E0008DF83820BDF81830BDF8382043F3C413E4
:1038F00063F3CB12ADF838200E9A069B43F30433E2
:1039000063F310320E92079B0F93089B10939DF860
:1039100024309DF8442043F3040363F304028DF83C
:10392000442002A800F00AFE0AA9204600F086FB07
:103930007321204600F048FD0195009503464FF4A1
:10394000BE72114602A800F001FE9DF80C309DF8F1
:103950002C2043F3050363F305028DF82C20049B10
:103960000C93059B0D939DF818309DF8382043F378
:10397000060363F306028DF83820BDF81830BDF851
:10398000382043F3C41363F3CB12ADF838200E9AFA
:10399000069B43F3043363F310320E92079B0F939D
:1039A000089B10939DF824309DF8442043F30403B2
:1039B00063F304028DF8442002A800F0BFFD0AA9B9
:1039C000204600F03BFB019500950623B4224FF4FE
:1039D000D27102A800F0BAFD9DF80C309DF82C20A1
:1039E00043F3050363F305028DF82C20049B0C932D
:1039F000059B0D939DF818309DF8382043F306037E
:103A000063F306028DF83820BDF81830BDF8382071
:103A100043F3C41363F3CB12ADF838200E9A069B20
:103A200043F3043363F310320E92079B0F93089B0A
:103A300010939DF824309DF8442043F3040363F36E
:103A400004028DF8442002A800F078FD0AA920465F
:103A500000F0F4FA044601252E4643E000F02EFF64
:103A6000002000F01BFF0021084601F043F8704FD2
:103A7000012397E806006F4801F024F80A2100208E
:103A800001F038F8012397E806006B4801F01AF8B6
:103A90001421002001F02EF8012397E80600674862
:103AA00001F010F827E00021502001F023F82CE06D
:103AB0005F4A012306CA624801F004F829E00225A2
:103AC000604B93F895316BB95E4B93F8953113B910
:103AD00000F010FAF8E75B4E304600F08CFB042350
:103AE00033710026002E00F09D8000F003FA564B43
:103AF0001B78002BB2D1022D1FD0032D57D0012DE2
:103B0000F0D1514B1B78002BCDD14F4B1B78002BA4
:103B1000CED14C4FB4234FF4D272E1B2384600F00C
:103B2000F6FA97F89431002BCAD1464B93F89431AA
:103B3000002BC4D100F0DEF9F7E7434B1B78ABB99B
:103B4000414B1B78BBB93F4F4FF48C734FF4D2728B
:103B5000E1B2384600F0DBFA97F894319BB9394B63
:103B600093F8943173B900F0C5F9F8E70A215020B1
:103B700000F0C0FFE4E72E4A012306CA304800F0F7
:103B8000A1FFE0E703252F4B93F89531002BA9D136
:103B90002C4B93F8953113B900F0ACF9F8E7294EA6
:103BA000304600F028FB0223337100269AE7264BAB
:103BB0001B78ABB9244B1B78BBB9224F4FF4BE73B3
:103BC0004FF4D272E1B2384600F0A1FA97F894317E
:103BD0009BB91C4B93F8943173B900F08BF9F8E75B
:103BE0001421502000F086FFE4E7114A012306CAA1
:103BF000134800F067FFE0E73546124B93F8953124
:103C0000002B7FF46FAF0F4B93F8953113B900F091
:103C100071F9F8E70B4E304600F0EDFA03233371EB
:103C200000265FE70AA800F089FC13B0F0BD00BFD2
:103C30001C000020C0790008C8790008D479000869
:103C4000E0790008B00D0020080000202DE9F04FB9
:103C5000B1B0914E304600F0CEFA052501950095A1
:103C600001230022114628A800F070FC28A9304644
:103C700000F0E4F902900224019400940123002250
:103C80001E2120A800F062FC20A9304600F0D6F9E1
:103C900003900194009401232246282118A800F0E3
:103CA00055FC18A9304600F0C9F90490019400941D
:103CB00001230422282110A800F048FC10A9304656
:103CC00000F0BCF9059001940094012306222821FC
:103CD00008A800F03BFC08A9304600F0AFF90690B8
:103CE000002000F0DBFD4FF02B080126444628277A
:103CF000B34654E004255DE003255FE0022561E062
:103D0000354663E009F101094D4518DD01349DF8A0
:103D10000CA09DF8183001939DF8143000939DF885
:103D2000103052469DF808105B4800F016FA012842
:103D3000E8D15146584800F002FA8046E2E744458F
:103D4000C0F29480544B93F8943113B9772F00DC70
:103D50000137514B93F8953113B9002F00DD013F26
:103D60004D4B93F8963123B905224B4B1A714FF006
:103D7000000BDFF82491484600F01BFA0023BAB28A
:103D80009DF80C10484600F0C2F90023A2B29DF83D
:103D90000810484600F0BBF9484600F0D7FABBF1DE
:103DA000000F66D000F0A6F8A4EB0803122B01DD8B
:103DB000012E9FD0192B01DD012E9DD0232B01DD7B
:103DC000012E9BD02D2B01DD012E99D0322B01DD50
:103DD00000260625322B02DD0EB94FF0FF352C2BC5
:103DE00002DC0EB96FF00105292B02DC0EB96FF071
:103DF0000205222B02DC0EB96FF00305182B02DC42
:103E00000EB96FF00505002D02DD4FF000097BE7CC
:103E1000002D97DAC5F1000A4FF00009CDF81CB06B
:103E200001E009F10109D14518DA013C9DF80CB017
:103E30009DF8183001939DF8143000939DF81030D0
:103E40005A469DF80810144800F087F90128E8D177
:103E50005946114800F073F98046E2E7DDF81CB0DE
:103E60004445BFF66FAF5E4606256BE75E46062506
:103E700068E708A800F062FB10A800F05FFB18A834
:103E800000F05CFB20A800F059FB28A800F056FBCE
:103E900031B0BDE8F08F00BFB00D002008B5124B67
:103EA0001B785BB90022114B1A71104B1B79052B43
:103EB000FBD8DFE803F0060C110F131600F026FD07
:103EC000F0E700F015F80122084B1A71EDE7FEF754
:103ED00067FDEAE7FEF75BFDFEF758FDFFF7B6FE6C
:103EE000E3E7FEF707FD00BF08000020B00D00204B
:103EF0007047000010B50F4C20212046FCF7F6FA61
:103F0000003018BF01200C4B187040212046FCF7F0
:103F1000EDFA003018BF0120084B18704FF4807183
:103F20002046FCF7E3FA003018BF0120044B18705C
:103F300010BD00BF00080048440F0020450F0020BE
:103F4000460F002070B506460D4B036010F5AC74AB
:103F500009D000F5C875A54205D055F8083D1B6885
:103F600028469847F7E716F1180507D0AC4205D068
:103F700054F8203D1B6820469847F7E7304670BD4F
:103F8000F850000810B50446FFF7DCFF4FF4C87185
:103F9000204600F0C9FE204610BD00002DE9F0418A
:103FA000064688461746244B036000238360C3609F
:103FB0000374837500F118050924002C05DB2846DD
:103FC00000F0B0FA2035013CF7E700231A46194605
:103FD00006F5AC7000F0FAFA01231222112106F561
:103FE000B07000F0F3FA02231E221D2106F5B47012
:103FF00000F0ECFA03231322122106F5B87000F04A
:10400000E5FA04231322122106F5BC7000F0DEFA53
:1040100005230A22282106F5C07000F0D7FA0623EE
:104020000022114606F5C47000F0D0FAA6F81280FE
:10403000B7823046BDE8F081F8500008836893B13C
:10404000C3689960C368CB60C160037C5A1C02746A
:1040500043F305030A7963F305020A71C36818790B
:1040600040F305007047C368002BE9D18160C1604F
:10407000037C5A1C027443F305030A7963F30502B7
:104080000A71C26800239360C268D360C36818795C
:1040900040F30500704770B506460D4684680FE092
:1040A000F368DB68F36000229A6015E0B3689B68F0
:1040B000B3600022DA6023685B6820469847A468F2
:1040C0008CB1237943F30503AB42F8D1A0680028F3
:1040D000E6D0E16800F070FAE0680028E6D0A16858
:1040E00000F068FAE7E770BD836873B1187940F3B0
:1040F0000500884201D09B68F7E742F30602197C6D
:1041000062F306011974012070470020704738B52A
:1041100084688CB1207940F30500884201D0A468FE
:10412000F7E71D461146204600F040FA2946204692
:1041300000F03EFA012038BD4FF0FF3038BD8368F3
:1041400043B11A7942F305028A4201D09B68F7E72E
:10415000586970474FF0FF30704730B4806802E014
:10416000044606E0806840B1037943F305038B42BF
:10417000F6D09342F6D10546F4E7A4B1B5B1A369F0
:10418000227F42F304029B1AAA69297F41F30401AA
:104190000A449B1A0333022B02D8012030BC70471B
:1041A0004FF0FF30FAE74FF0FF30F7E74FF0FF3006
:1041B000F4E770B5044600F081FBA56817E001360E
:1041C0002B8A43F3C4139E4210DA00242B6943F375
:1041D00004339C42F3DA68693044A969214400221F
:1041E000C9B2C0B200F0EAFB0134EFE7AD680DB12F
:1041F0000026E5E770BD38B505460024FE2C05DC39
:10420000E1B22846FFF747FF0134F7E70023AB6030
:10421000EB602B7438BD07294DD008294DD00929F2
:104220004DD00A294DD00B294DD00C294DD00D2948
:104230004DD00E294DD00F294DD010294DD0112928
:104240004DD012294DD013294DD014294DD0152908
:104250004DD016294DD017294DD018294DD01929E8
:104260004DD01A294DD01B294DD01C294DD01D29C8
:104270004DD01E294DD01F294DD020294DD02129A8
:104280004DD022294DD023294DD024294DD0252988
:104290004DD026294DD027294DD028294DD0292968
:1042A0004DD02A294DD02B294DD02C2901D0FF20CB
:1042B00070473E20704731207047322070473320CE
:1042C00070473420704735207047362070473720BC
:1042D0007047382070473920704730207047612080
:1042E00070476220704763207047642070476520E4
:1042F00070476620704767207047682070476920C4
:1043000070476A2070476B2070476C2070476D20A3
:1043100070476E2070476F20704770207047712083
:104320007047722070477320704774207047752063
:104330007047762070477720704778207047792043
:1043400070477A2070473C2070470000F8B5074658
:10435000856815E0C9B23846FFF75DFF04466B6912
:10436000288A40F3C41053FA80F0297EC0B200F0CE
:10437000C1FB144A012306CA204600F049FBAD6880
:10438000F5B1297C41F306014BB2062BE2DC002695
:1043900000E001362B8A43F3C4139E42EFDA002477
:1043A0002B6943F304339C42F3DA68693044A9690A
:1043B00021440122C9B2C0B200F000FB0134EFE792
:1043C000F8BD00BF1C000020312947D0322947D05A
:1043D000332947D0342947D0352947D0362947D00B
:1043E000372947D0382947D0392947D0302947D0F5
:1043F000612947D0622947D0632947D0642947D033
:10440000652947D0662947D0672947D0682947D012
:10441000692947D06A2947D06B2947D06C2947D0F2
:104420006D2947D06E2947D06F2947D0702947D0D2
:10443000712947D0722947D0732947D0742947D0B2
:10444000752947D0762947D0772947D0782947D092
:10445000792947D07A2947D12A2070470720704709
:1044600008207047092070470A2070470B207047CA
:104470000C2070470D2070470E2070470F207047AA
:10448000102070471120704712207047132070478A
:10449000142070471520704716207047172070476A
:1044A00018207047192070471A2070471B2070474A
:1044B0001C2070471D2070471E2070471F2070472A
:1044C000202070472120704722207047232070470A
:1044D00024207047252070472620704727207047EA
:1044E00028207047292070474FF0FF3070470000A8
:1044F00010B50446054B0360034653F8080F083314
:10450000984201D000F012FC204610BD085100086E
:1045100010B50446FFF7ECFF2021204600F004FC14
:10452000204610BD0346044943F8081B0833836046
:104530000023C3600374704708510008704710B52A
:104540000446202100F0F0FB204610BD70B4039D0E
:10455000049C154E066000268660C660416182613B
:104560002246B4421EDB05EBA20242F30402017FA5
:1045700062F30401017745F30405028A65F3CB1267
:10458000028244F30404026964F31032026143F3CB
:10459000060363F30602027403796FF305030371E4
:1045A00070BC7047E21CDEE718510008416170479B
:1045B0008161704781607047C1607047704710B576
:1045C0000446082100F0B0FB204610BD30B40A4C70
:1045D000046041F30401848861F38A1442F3040205
:1045E000210A62F3C701417143F3050363F3050434
:1045F000047130BC704700BF28510008F0B589B085
:104600002D4BDA6C42F00402DA64DA6C02F0040238
:104610000092009ADA6C42F00102DA64DA6C02F07D
:1046200001020192019ADA6C42F00202DA64DB6C58
:1046300003F002030293029B204E00220321304626
:10464000FBF75BFF00224FF489714FF09040FBF7BE
:1046500054FF1B4F00224FF487613846FBF74DFF94
:10466000032303930125049500240594069403A9CC
:104670003046FBF76BFE4FF4897303930495059462
:10468000069403A94FF09040FBF760FE4FF4B0731F
:1046900003930494059503A93046FBF757FE4FF4A6
:1046A0008763039304950594069403A93846FBF7A2
:1046B0004DFE09B0F0BD00BF0010024000080048E8
:1046C0000004004808B50120FDF7ABFAFBE7000045
:1046D00008B50268034B9A4200D008BDFBF7A2FD63
:1046E000FBE700BF002C0140FEE7000008B51548BD
:1046F000154B036040F6146343600023836001227E
:10470000C260036143618361C3610362FCF722F805
:1047100050B900210B48FCF74EF948B9002109486F
:10472000FCF777F940B908BDF8210848FFF7DCFF2E
:10473000FF210648FFF7D8FF4FF483710348FFF7C6
:10474000D3FF00BFF811002000540040E4790008B6
:1047500000B5B1B010211F910122259200232693AC
:1047600060232793022329932A922B922C910722CC
:104770002D922E932F931FA8FCF790FA68BB0F235E
:104780001A9303231B93A0231C9300211D911E91B8
:104790001AA8FCF76FFD20BB4023009300230D9364
:1047A0006846FCF701FF00BB4FF40070FCF766F9A8
:1047B000F8B9FCF707FE114BA3FB00308009FBF7AB
:1047C0009FFD0420FBF7B2FD00220F214FF0FF30C8
:1047D000FBF758FD31B05DF804FBBE210848FFF738
:1047E00083FFCC210648FFF77FFFD3210448FFF762
:1047F0007BFFDA210248FFF777FF00BFD34D62103D
:10480000E479000800B589B0FBF700FDFFF7A0FFD1
:10481000FFF7F4FEFFF76AFF03AC0B4D0FCD0FC49B
:104820002B682360002103A8FDF7E1F9074B18600E
:104830000023019303220092802205490548FDF7D9
:104840006FFBFDF7CFF9FEE7447900084412002022
:10485000F47900089D3E0008704710B50446042115
:1048600000F062FA204610BD014B0360704700BFA4
:104870006079000800B587B006AA02F8010D0A2386
:104880000293012301930092002278210248FBF752
:10489000C2FF07B05DF804FBF8110020002303E01D
:1048A000FF21054AD1540133B3F5007F03D200281C
:1048B000F6D10021F5E77047480F002010B584B00D
:1048C00000241AE0A4F15000C0B2FFF7D3FF00208B
:1048D000FFF7D0FF1020FFF7CDFF64230293802362
:1048E0000193084B03EBC41300930123402278216A
:1048F0000548FBF790FF0134E4B2072CE2D904B07D
:1049000010BD00BF480F0020F811002008B564203A
:10491000FBF796FCAE20FFF7ADFF2020FFF7AAFFC4
:104920000020FFF7A7FF8120FFF7A4FFF020FFF78B
:10493000A1FFA620FFF79EFFA820FFF79BFF1F20E7
:10494000FFF798FFA420FFF795FFD320FFF792FF12
:104950000020FFF78FFFD520FFF78CFF8020FFF7A7
:1049600089FFD920FFF786FF2220FFF783FFDA2097
:10497000FFF780FF0220FFF77DFFDB20FFF77AFFC4
:104980004020FFF777FF8D20FFF774FF1420FFF71B
:1049900071FFAF20FFF76EFF0020FFF77FFFFFF7EB
:1049A0008DFF054B0022A3F80022A3F8022201206C
:1049B00083F8050208BD00BF480F002010F0800FEB
:1049C00016D11F2914D8114B93F8043213B1B2FA3F
:1049D00082F25209012A0CD0CB0800EBC31001F07F
:1049E000070101238B40094A115C21EA030111549C
:1049F0007047CB0800EBC31001F0070101238B4087
:104A0000024A115C19431154704700BF480F00203F
:104A10002DE9F04F83B002AC04E90600284AB2F851
:104A200000229DF8006032447F2A43DC244AB2F819
:104A300002229DF801A0D34652441F2A3EDC98462C
:104A40008146002523E01E4BB3F80002B3F80212A2
:104A500029442044B8FA88F25209C9B2C0B2FFF71B
:104A6000ADFF0134B44211D207FA04F313F4004F3E
:104A7000E9D0134BB3F80002B3F8021229442044E2
:104A80004246C9B2C0B2FFF799FFEAE70135554582
:104A900008D2A9F1200303FB0B53019A32F81370DB
:104AA0000024DFE7064BB3F800221644A3F80062A7
:104AB000484600E0002003B0BDE8F08F0020FAE790
:104AC000480F002070B582B0054602A800E9060034
:104AD0001E462C785CB1334602AA12E90600204635
:104AE000FFF796FF2C78A04201D10135F1E720466F
:104AF00002B070BD024BA3F80002A3F80212704787
:104B0000480F002000B583B0214B1A6E42F001021D
:104B10001A661A6E02F001020092009A9A6D42F033
:104B200080529A659B6D03F080530193019B032093
:104B3000FBF796FB002211466FF00B00FBF7A2FB80
:104B4000002211466FF00A00FBF79CFB0022114681
:104B50006FF00900FBF796FB002211466FF004008E
:104B6000FBF790FB002211466FF00300FBF78AFB76
:104B700000220F216FF00100FBF784FB00220F21C0
:104B80004FF0FF30FBF77EFB03B05DF804FB00BF86
:104B9000001002400268114B9A4200D0704700B5E5
:104BA00087B04FF4407301931223029301230393C0
:104BB00003230493042305930DEB03010848FBF73B
:104BC000C5FB084B9A6D42F400129A659B6D03F485
:104BD00000130093009B07B05DF804FB00540040F5
:104BE000000400480010024000B589B000220146D0
:104BF0001920FBF747FB1920FBF776FB144B1A6EC5
:104C000042F400621A661B6E03F400630193019B79
:104C100002A903A8FCF7ECFBFCF7DAFB0D4BA3FBA6
:104C200000239B0C013B0C480C4A026040F2E73227
:104C3000C2604360002303618360FCF7B1FF18B1D9
:104C4000012009B05DF804FB0348FCF77BFEF8E7A0
:104C50000010024083DE1B4348120020002C01405C
:104C60007047FEE7FEE7FEE7FEE7704708B5FCF792
:104C7000E1FF08BD08B50248FCF782FE08BD00BF91
:104C8000481200200F49D1F8883043F47003C1F86E
:104C900088300D4B1A6842F001021A6000209860BB
:104CA0001A6822F0A85222F410221A604FF480529F
:104CB000DA601A6822F480221A6098614FF000636B
:104CC0008B60704700ED00E000100240DFF834D048
:104CD000002103E00C4B5B58435004310B480C4B54
:104CE00042189A42F6D30B4A02E0002342F8043BF2
:104CF000094B9A42F9D3FFF7C5FF00F06FF9FFF7B0
:104D000081FDFEE700800220887A00080000002074
:104D1000900000209000002088120020FEE70B4643
:104D20000146184600F04CB900F000B800F07AB91E
:104D3000244B1A68D0075CBF01221A60224B1A6804
:104D4000D1075CBF01221A60204B1A68D2075CBFF2
:104D500001221A601E4B1A68D0075CBF01221A603C
:104D60001C4B1A68D1075CBF01221A601A4B1A68E3
:104D7000D2075CBF01221A60184B1A68D0075CBFCB
:104D800001221A60164B1A68D1075CBF01221A6013
:104D9000144B1A68D2075CBF01221A60124B1A68C2
:104DA000D0075CBF01221A60104B1A68D1075CBFA4
:104DB00001221A600E4B1A68D2075CBF01221A60EA
:104DC000704700BF7C110020781100207411002072
:104DD000701100206C110020681100206411002067
:104DE000601100205C110020581100205411002097
:104DF00050110020244B1A68D0075CBF01221A60B2
:104E0000224B1A68D1075CBF01221A60204B1A6836
:104E1000D2075CBF01221A601E4B1A68D0075CBF24
:104E200001221A601C4B1A68D1075CBF01221A606C
:104E30001A4B1A68D2075CBF01221A60184B1A6815
:104E4000D0075CBF01221A60164B1A68D1075CBFFD
:104E500001221A60144B1A68D2075CBF01221A6043
:104E6000124B1A68D0075CBF01221A60104B1A68F7
:104E7000D1075CBF01221A600E4B1A68D2075CBFD3
:104E800001221A60704700BFAC110020A811002059
:104E9000A4110020A01100209C11002098110020D6
:104EA00094110020901100208C1100208811002006
:104EB0008411002080110020184B1A68D1075CBFB4
:104EC00001221A60164B1A68D2075CBF01221A60D1
:104ED000144B1A68D0075CBF01221A60124B1A6883
:104EE000D1075CBF01221A60104B1A68D2075CBF61
:104EF00001221A600E4B1A68D0075CBF01221A60AB
:104F00000C4B1A68D1075CBF01221A600A4B1A6861
:104F1000D2075CBF01221A60704700BFCC1100208D
:104F2000C8110020C4110020C0110020BC110020B5
:104F3000B8110020B4110020B0110020184B1A68DD
:104F4000D1075CBF01221A60164B1A68D2075CBFFA
:104F500001221A60144B1A68D0075CBF01221A6044
:104F6000124B1A68D1075CBF01221A60104B1A68F5
:104F7000D2075CBF01221A600E4B1A68D0075CBFD3
:104F800001221A600C4B1A68D1075CBF01221A601B
:104F90000A4B1A68D2075CBF01221A60704700BF33
:104FA000EC110020E8110020E4110020E0110020A5
:104FB000DC110020D8110020D4110020D0110020D5
:104FC00010B5054C13462CB10A4601460220AFF33A
:104FD000008010BD204610BD0000000070B50D4ED1
:104FE0000D4CA41BA4100025A54209D10B4E0C4C5E
:104FF00000F070F8A41BA4100025A54205D170BDD7
:1050000056F8253098470135EEE756F82530984791
:105010000135F2E7687A0008687A0008687A0008C3
:10502000807A0008024B0146186800F003B800BF00
:105030002800002038B50546002945D051F8043C29
:105040000C1F002BB8BFE41800F042F81F4A136889
:10505000104633B9636014602846BDE8384000F05C
:1050600038B8A3420CD921686218934204BF1A6869
:105070005B68636004BF521822600460ECE713466B
:105080005A680AB1A242FAD919685818A0420BD13D
:1050900020680144581882421960DDD110685268B6
:1050A0005A6001441960D7E702D90C232B60D3E77B
:1050B000206821188A4204BF11685268626004BFE8
:1050C000091821605C60C7E738BD00BFF0110020FF
:1050D00070477047F8B500BFF8BC08BC9E467047E3
:1050E000F8B500BFF8BC08BC9E4670470000000041
:1050F0000000000000000000453F0008853F000858
:105100000000000000000000F14400081145000804
:1051100000000000000000003D4500083F45000879
:105120000000000000000000BD450008BF45000869
:10513000000000000000000000000000000000006F
:10514000000000000000000000000000000000005F
:10515000000000000000000000000000000000004F
:1051600000000000E003E003E003E003E003E003ED
:10517000E003E003C003C003C001C001C001C001DF
:10518000C001000000000000E003E003E0030000B5
:1051900000000000000000003C1E3C1E3C1E3C1EA7
:1051A0003C1E3C1E3C1E00000000000000000000F1
:1051B00000000000000000000000000000000000EF
:1051C000000000000000000000000000CE01CE033F
:1051D000DE039E039C039C07FF3FFF7F3807380FC9
:1051E000780F780F780EFFFFFFFFF01EF01CE01C19
:1051F000E03CE03DE039000000000000000000005D
:10520000FC03FE0FEE1FE01EE01EE01EE01EE01F8E
:10521000E00FE007F003FC01FE01FE01FE01FE01CC
:10522000FE01FE01FE3DFC3FF00FE001E001000049
:1052300000000000033E07F78FE78EE79EE3BCE324
:10524000B8E7F8E7F0F7E03FC001FF03FF07F30717
:10525000F30FF31EF33CF338F3787FF03FE00000E8
:105260000000000000000000E007F80F780F781F32
:10527000781F781F780FF00FE00F801FC37FC3FBEC
:10528000E7F3F7F1F7F0FFF07FF03EF87F7CFF3FA8
:10529000EF1F00000000000000000000E003E0033A
:1052A000E003E003E003C003C001000000000000D1
:1052B00000000000000000000000000000000000EE
:1052C00000000000000000000000000000000000DE
:1052D0003F007C00F001E001C003C00780078007A9
:1052E000800F000F000F000F000F000F000F800F46
:1052F00080078007C007C003E001F0017C003F0089
:105300000F000000007E001FC007C003E001F00195
:10531000F000F000F800780078007800780078005D
:105320007800F800F000F000F001E001C003C007D1
:10533000001F007E00780000E003C003C001CE39EA
:10534000FF3F7F3F20037003F807780F3C1F3806AC
:10535000000000000000000000000000000000004D
:10536000000000000000000000000000000000003D
:105370000000000000000000C001C001C001C00129
:10538000C001C001C001FFFFFFFFC001C001C0019B
:10539000C001C001C00100000000000000000000CA
:1053A00000000000000000000000000000000000FD
:1053B00000000000000000000000000000000000ED
:1053C0000000E003E003E003E003E001E001E001AE
:1053D000C001800300000000000000000000000089
:1053E00000000000000000000000FE3FFE3F000043
:1053F00000000000000000000000000000000000AD
:10540000000000000000000000000000000000009C
:10541000000000000000000000000000000000008C
:1054200000000000000000000000E003E003E003D3
:10543000E003000000000000000000000F000F006B
:105440001E001E003C003C0078007800F000F000D8
:10545000E001E001C003C00380078007000F000FD8
:10546000001E001E003C003C0078007800F00000A8
:10547000F007F80F7C1F3E3E1E3C1F7C1F7C0F7800
:105480000F780F780F780F780F780F781F7C1F7CBC
:105490001E3C3E3E7C1FF80FF0070000000000009D
:1054A00000000000F000F007F03FF03FF001F001D5
:1054B000F001F001F001F001F001F001F001F00164
:1054C000F001F001F001F001F001FF3FFF3F0000AB
:1054D0000000000000000000E00FF83F7C3C3C00B2
:1054E0003E003E003E003C003C007C00F800F00125
:1054F000E003C0078007000F001E003E003CFE3F97
:10550000FE3F00000000000000000000F00FF81F48
:105510007C1C3E003E003E003C003C00F800F00FCA
:10552000F80F7C003E001E001E001E001E003E0004
:105530007C1CF81FE01F00000000000000000000BD
:105540007800F800F800F801F803F807F807780F7A
:10555000781E781E783C78787878FFFFFFFF780017
:1055600078007800780078007800000000000000E3
:1055700000000000FC1FFC1FFC1F001E001E001E80
:10558000001E001EE01FF81FFC007C003E003E00D5
:105590001E003E003E003C007C1CF81FE01F000087
:1055A0000000000000000000FC01FE078E0F001F3D
:1055B000001E003E003C003CF83DFC3F3E7F1F7E4D
:1055C0000F3C0F3C0F3C0F3C0F3E1F1E3E1FFC0FBD
:1055D000F00300000000000000000000FF3FFF3F5C
:1055E000FF3F0F001E001E003C0038007800F00056
:1055F000F000E001E001C003C0038007800F800FCE
:10560000000F001F001F000000000000000000004D
:10561000F807FC0F3E1F1E1E1E3E1E3E1E1E3C1F98
:10562000F80FF007F80FFC1E3E3E1F3C1F7C0F7C5E
:105630000F7C1F3C3E3FFC1FF007000000000000F5
:1056400000000000F007F80F7C1E3E3C1E3C1F7C53
:105650001F7C1F7C1F7C1F3C3F3EFF1FEF071F006E
:105660001E001E003E003C00F838F03FE01F000026
:10567000000000000000000000000000000000002A
:1056800000000000E003E003E003E003000000008E
:1056900000000000000000000000E003E003E00361
:1056A000E003000000000000000000000000000017
:1056B0000000000000000000E003E003E003E0035E
:1056C0000000000000000000000000000000E003F7
:1056D000E003E003E003E001E001E001C003800338
:1056E00000000000000000000000000003000F00A8
:1056F0003F00FC00F003C00F003F00FE003FC00F62
:10570000F003FC003F000F00030000000000000059
:105710000000000000000000000000000000000089
:105720000000000000000000FFFFFFFF000000007D
:105730000000FFFFFFFF000000000000000000006D
:105740000000000000000000000000000000000059
:105750000000000000E000F8007E801FE007F80174
:105760007E001F007E00F801E007801F007E00F829
:1057700000E000000000000000000000F01FFC3FFF
:105780003E381F381F381E001E003C007800F00015
:10579000E001C003C003C007C00700000000000014
:1057A000C007C007C00700000000000000000000A4
:1057B000F803FE0F1E1F0F3E7F3CFF78EF79C77383
:1057C000C7F38FF38FF38FF39FF39FF3FF73FF7B89
:1057D000F779003C1C1FFC0FF803000000000000DC
:1057E00000000000000000000000E003E003F007FC
:1057F000F007F007780F780F7C0E3C1E3C1E3E3CF5
:10580000FE3FFF3F1F780F780FF007F007F0000012
:105810000000000000000000000000000000F83F51
:10582000FC3F3E3C1E3C1E3C1E3C3E3C7C3CF03F54
:10583000F83F7E3C1F3C1F3C0F3C0F3C1F3CFE3F93
:10584000F83F000000000000000000000000000021
:105850000000FF01FF07871F003E003C007C00782E
:105860000078007800780078007C007C003E003FE3
:10587000831FFF07FF010000000000000000000080
:10588000000000000000F07FFC7F7E781F781F780A
:105890000F780F780F780F780F780F780F780F78D0
:1058A0001F781E787E78F87FE07F000000000000FF
:1058B00000000000000000000000FF3FFF3F003E2E
:1058C000003E003E003E003E003EFE3FFE3F003EEA
:1058D000003E003E003E003E003EFF3FFF3F000016
:1058E0000000000000000000000000000000FF1F9A
:1058F000FF1F001E001E001E001E001E001EFF1FB8
:10590000FF1F001E001E001E001E001E001E001EA7
:10591000001E000000000000000000000000000069
:105920000000FE03FF0F871F003E007C007C007814
:1059300000F800F87FF87FF80F780F7C0F7C0F3E9F
:105940008F1FFF0FFE03000000000000000000009A
:105950000000000000001F7C1F7C1F7C1F7C1F7C40
:105960001F7C1F7C1F7CFF7FFF7F1F7C1F7C1F7C99
:105970001F7C1F7C1F7C1F7C1F7C00000000000020
:1059800000000000000000000000FF3FFF3FE003B8
:10599000E003E003E003E003E003E003E003E003EF
:1059A000E003E003E003E003E003FF3FFF3F00000C
:1059B0000000000000000000000000000000FC1FCC
:1059C000FC1F7C007C007C007C007C007C007C0058
:1059D0007C007C007C007C0078007800F838F03F88
:1059E000C03F0000000000000000000000000000B8
:1059F00000001F3C1E3C3C3C783CF03CE03DE03F5E
:105A0000C03F803FC03FE03FF03DF03C783C7C3CF5
:105A10003E3C1F3C0F3C0000000000000000000066
:105A2000000000000000003E003E003E003E003E40
:105A3000003E003E003E003E003E003E003E003E76
:105A4000003E003E003EFF3FFF3F00000000000020
:105A5000000000000000000000001FF81FFC1FFCF9
:105A60003FFE3FFE3FFE7FFF77FF77FFF7F7E7F749
:105A7000E7F3E7F3C7F307F007F007F007F00000DC
:105A800000000000000000000000000000000F7C8B
:105A90000F7C0F7E0F7F0F7F8F7F8F7FCF7FEF7BFE
:105AA000EF79FF79FF78FF787F783F783F781F782C
:105AB0001F7800000000000000000000000000004F
:105AC0000000F007FC1F3E3E1F7C0F780F780FF898
:105AD0000FF80FF80FF80FF80FF80F780F781F7CFA
